:020000040800F2
:10000000D0040020C9000008010E0008390C0008C7
:1000100000000000000000000000000000000000E0
:100020000000000000000000000000002111000896
:100030000000000000000000ED0E0008B9110008EB
:10004000F900000800000000F9000008F9000008AD
:10005000F9000008F9000008F9000008C90A0008C2
:1000600000000000F9000008F9000008F90000088D
:10007000F9000008F9000008F9000008000000007D
:10008000F90000080000000000000000F90000086E
:10009000F9000008F9000008F9000008F90000085C
:1000A000F9000008F9000008F900000845120008EE
:1000B000F90000080348854600F04CFA0048004764
:1000C000951E0008D00400200C4880F308880C48D6
:1000D0000168090E0B4A914205D10B480B4901609A
:1000E0000B480C4901600C4880470C480047FEE76C
:1000F000FEE7FEE7FEE7FEE7FEE70000D004002093
:10010000040000001F000000181002400100000061
:100110000000014000000000C9110008B5000008FF
:1001200030B50B46014600202022012409E00D468F
:10013000D5409D4205D31D469540491B2546954017
:1001400040191546521E002DF1DC30BD10B50022BD
:1001500000E0521C835C8C5CA34201D1002BF8D1DF
:10016000D8B2E1B2401A10BDF0B51FB40646002067
:1001700082B005464024019100901BE0019922467F
:100180000F46304600F008FA049A059B801A994100
:1001900010D310461946224600F0EEF9361A8F4168
:1001A0000197224601200021009F00F0E5F9381850
:1001B0004D4100902046641E0028DFDC019B009822
:1001C0002946324607B0F0BDF0B50746084658400C
:1001D00087B0C00F049048000E46590040084908F7
:1001E000BC1A884105D2384631461E4617460B4692
:1001F00002465800400810434CD0300D0390400593
:100200005900400D490D0590401A0290402872DABD
:1002100018030121000B090508430190049800927E
:10022000002805D001995242002088410092019097
:10023000029840210A1A0199009800F09DF905469C
:100240000C466B4607CB00F0B8F9C0197141039A10
:100250000E0D0023D71756401A467A40164344D055
:10026000049A002A2DD0029A012A039A15DC12055D
:10027000C01A914101263605001C7141D20F059E1E
:10028000D2070093019202962A46234600F0B5F960
:1002900007B0F0BD38463146FAE71605224A0F4648
:1002A000B218C01AB74101210905001C4F410018BE
:1002B0007F41114618187941E20F10436D196441CE
:1002C00013E0E2076D0815436408C2071443039A5C
:1002D00001261205C01A91413605001C7141CE0756
:1002E000400830434908C01851412A46234600F0CF
:1002F00077F9CDE7FFE7049801224000C117121AF1
:1003000000238B4104983146C417381AA141EEE707
:1003100030B40124E407634030BC55E730B4012415
:10032000E407614030BC4FE70000E0FFF0B51FB4C8
:1003300088B00B990998002448400999C00F4900DA
:1003400049080991C0070B990090490049080B9191
:1003500009990898A64608431CD00B990A980843A7
:1003600018D0099801244000420D4800410D099819
:1003700024050003000B204309900B980003000B99
:1003800020430B9050181C4940180022019014463D
:10039000104605E0002001460DB0F0BD032801DA4B
:1003A000034600E003239C46C11A0AAE0AE05F0040
:1003B00008ADED5B4F00F75B7D430027AA187C4139
:1003C000491C5B1E6145F2DD410004AB5A52210419
:1003D000120C0A43240C401C0828DFDB0198029011
:1003E0000099704601910090059B049A0799069820
:1003F00000F003F9D0E700000DFCFFFFF0B50C465C
:100400005C4085B0E40FE40703944C0000266408C8
:1004100059009446490802460296224321D062467A
:100420000A431ED06200570D4A000E032303550DE8
:10043000012402462C492405781B1B0B360B40185F
:1004400023432643614600901C46501AB44103D30F
:100450000098401C009002E0921800985B41002830
:1004600003DA0020014605B0F0BD00200121090596
:100470000746864611E064461D46141BB54106D367
:100480006546521BB341744607430C43A646CD074D
:1004900040084908284392185B4105460D43EAD1BC
:1004A0001046184313D06046194650407140084327
:1004B00006D06046101AB34106D20122002306E09E
:1004C00000220123DB0702E00122D24353100098EF
:1004D00074460105381C6141029C039D0019694165
:1004E00000F07EF8BFE70000FD0300004A000903AA
:1004F0000123090B1B0519430A4B10B5520D9A42F3
:1005000002DA0020014610BD064B34339A4203DC68
:100510009A1A00F041F810BD034BD21800F02CF8E5
:1005200010BD0000FF030000CDFBFFFF10B5002948
:1005300004DB0124E40740428C412146002B04DB0C
:100540001C460123DB075242A341994200D190424D
:1005500010BD0000064C0125064E05E0E36807CCFF
:100560002B430C3C98471034B442F7D3FFF7A6FD59
:10057000C0210008E021000810B5202A04DB014654
:10058000203A9140002010BD914020239C1A034640
:10059000E3401943904010BD10B5202A04DB084603
:1005A000203AD040002110BD0B46D340D04020243B
:1005B000A21A91400843194610BD10B5202A06DB47
:1005C000CB170846203A1041C1170B4306E00B46F3
:1005D0001341D0402024A21A91400843194610BD6F
:1005E00010B5002B08DA0024401C614192185B41D1
:1005F0001A4301D14008400010BDF0B51FB482B0CD
:1006000005460C0003D0084600F08AFF02E000F027
:1006100087FF20300246009021462846FFF7ACFFB6
:10062000049B059A04460F4618431143084314D00F
:10063000184610431BD0009840210A1A1846059905
:10064000FFF7AAFF05460E46009A05990498FFF7A2
:1006500093FF084305D0012004E02046394607B047
:10066000F0BD0020C11705430E432C4337430099CA
:100670000E986305401A7905E40A00220C43FD0A2E
:100680000A3002D500200146E9E701051019694149
:100690000C9C0D9D00196941FFF7A2FFDFE70000E8
:1006A00070B504463D480078012848D13C4801789F
:1006B0000078401C3A4A107008290CDA20210920E1
:1006C000C00600F0ADFA37490978884237D00020DB
:1006D0003349087033E034480078002809D12021DC
:1006E0000920C00600F09CFA3049087001202E490C
:1006F00008702D4801780078401C2B4A107008299A
:1007000009DA2A48007827490978884217D1002059
:100710001146087013E025480078002801D1012017
:1007200000E00020014622A000F0EAFE00201C4963
:1007300008701D4908701D4800781A49087000F0BB
:1007400035FD1F490968451A002D01DB284600E0E8
:100750006842A04221DD00F029FD194908601948CE
:100760000078012819D1184801780078401C164AF1
:1007700010700A2911DB0020114608702021092081
:10078000C00600F04DFA002801D1012000E0002051
:100790000546294606A000F0B3FE70BD20000020EB
:1007A0003E0000203C0000203F0000203D000020D3
:1007B00073656E736F723C25643E0D0A3E3E000009
:1007C00038000020210000204000002010B515480E
:1007D00000880121C9030840002821D0114804786D
:1007E000002011490855084600F08AFE0E4800789E
:1007F000002803D10DA000F083FE0EE00A4800F0AF
:1008000035F8002803D109A000F07AFE05E008A021
:1008100000F076FE144800F073FE002001490880C5
:1008200010BD0000080000206C0000203E3E0000CB
:100830000D0A636F6D6D616E6473206E6F20666F5D
:10084000756E64202C20747970652068656C70204A
:10085000746F2073656520636F6D6D616E647320C6
:100860006C6973740D0A0000DC20000870B5044642
:100870000025204600F05CF8002823D0214612A075
:10088000FFF764FC002805D111A000F039FE00F04C
:10089000D5F917E0214611A0FFF758FC002806D132
:1008A00010A313A2154916A000F02AFE0AE0214663
:1008B0001BA0FFF74BFC002803D11B481B49C86055
:1008C00000E00125284670BD68656C7000000000DE
:1008D00076657273696F6E3A0D0A00007665727301
:1008E000696F6E0041707220313820323032300032
:1008F00031313A33393A323800000000000000202C
:100900006669726D77617265202573206275696C06
:10091000642061742025732025730D0A00000000F7
:100920007265626F6F7400000400FA0500ED00E06C
:1009300070B50446002528A12046FFF707FC0028D3
:1009400010D120210920C00600F06AF9002801D149
:10095000012000E000200646314621A000F0D0FD35
:10096000002070BD20A12046FFF7F0FB002807D132
:1009700001202249087022A000F0C2FD0020F0E70B
:100980002BA12046FFF7E2FB002806D11B49087087
:100990002CA000F0B5FD0020E3E731A12046FFF7D1
:1009A000D5FB002807D101203249087032A000F0A1
:1009B000A7FD0020D5E738A12046FFF7C7FB002898
:1009C00006D12C49087039A000F09AFD0020C8E734
:1009D00002252846C5E7000073656E736F7200003C
:1009E0003C25643E0D0A00006175746F20746F67CA
:1009F000676C6520656E61626C65000020000020F8
:100A00003C6D6F64653A7072696E74206D657373C6
:100A1000616765207768656E20746865207374610E
:100A2000747573206368616E67653E0D0A0000008F
:100A30006175746F20746F67676C6520646973619A
:100A4000626C65003C64697362616C6520617574F9
:100A50006F20746F67676C65206F6B3E0D0A000036
:100A60006175746F2073747265616D20656E61626B
:100A70006C650000210000203C6D6F64653A707267
:100A8000696E74207374617475732070657220319F
:100A900030306D733E0D0A006175746F207374728F
:100AA00065616D2064697361626C65003C646973A3
:100AB00062616C65206175746F2073747265616D1D
:100AC000206F6B3E0D0A000010B5202000F030F8BA
:100AD000002819D020210920C00600F0A1F80B49F8
:100AE00008700B480078097888420AD007480078D7
:100AF000002801D1012000E00020014605A000F0FF
:100B0000FFFC202000F00EF810BD000023000020A4
:100B10002200002073656E736F723C25643E0D0ADF
:100B20003E3E00000149486170470000000401405A
:100B300001460020044A52690A40002A01D00120DF
:100B400000E000207047000000040140F0B50A46B4
:100B500000210023002400BF3DE001258D402B46ED
:100B600015681D402C469C4234D11579012D02D0C8
:100B70001579022D16D185684F000326BE40B54376
:100B8000856055794E00B540866835438560858817
:100B900001268E40B5438580858896798E40B6B211
:100BA0003543858005684F000326BE40B543056088
:100BB00015794E00B540066835430560C5684F009D
:100BC0000326BE40B543C560D5794E00B540C66822
:100BD0003543C560491C1029BFD3F0BDF0B50023D3
:100BE00000244D07EE0E1546B5402B46CD10AE0045
:100BF00005462035AD594E07F70E0F26BE40B543CA
:100C0000CE10B60007462037BD51CD10AE003D4690
:100C1000AD591D432C46CD10AD003E467451F0BD7C
:100C200002460020138A0B40002B01D0012000E077
:100C3000002070470185704700BFFEE710B50BA08C
:100C400000F05EFC0AA000F05BFC16A000F058FC6F
:100C5000224800F055FC22A000F052FC2DA000F02C
:100C60004FFC3BA000F04CFC10BD00000D0A000042
:100C700068656C702020202020202020202020204B
:100C800020202020202020202D2D2D5072696E74D0
:100C900020636F6D6D616E6473206C6973740D0AEF
:100CA0000000000073656E736F72202020202020EA
:100CB0002020202020202020202020202D2D2D47E6
:100CC0006574206461746120696E20706F6C6C695A
:100CD0006E67206D6F64650D0A000000202100081A
:100CE0006175746F20746F67676C652064697361E8
:100CF000626C6520202020202D2D2D646973616297
:100D00006C6520746F67676C65206D6F64650D0A94
:100D1000000000006175746F2073747265616D204E
:100D2000656E61626C652020202020202D2D2D53C2
:100D3000747265616D2073656E736F722073746178
:100D400074757320706572203130306D730D0A0038
:100D50006175746F2073747265616D20646973616D
:100D6000626C6520202020202D2D2D646973616226
:100D70006C652073747265616D206D6F64650D0A1A
:100D8000000000001CB50121480400F0B1F810205B
:100D90000090012168460171002181710321417198
:100DA00069460920C006FFF7D1FE10210920C006C0
:100DB000FFF740FF202000900021684601710121CB
:100DC000C1710321417169460920C006FFF7BEFECB
:100DD00004A000F095FB094800F092FBFFF72EFFFE
:100DE0001CBD0000636F6E74726F6C6C657220695D
:100DF0006E6974206F6B0D0A000000006C21000802
:100E00007047000000218278002A27D0184A032367
:100E10001B02D21803789B109B00D15802789207CE
:100E2000D30EFF229A400B4693431946427892070D
:100E3000120E03789B07DB0E9A4011430C4A0323E2
:100E40001B02D21803789B109B00D1500278D30666
:100E5000DB0E01229A40064B1A6007E00278D306A7
:100E6000DB0E01229A40024B80331A60704700006B
:100E700000E100E010B5002819DA1A4A03071B0F39
:100E8000083B9B089B00D2588307DC0EFF23A3403E
:100E90009A438B071B0E8407E40EA3401A43114BA1
:100EA0000407240F083CA408A4001A5118E00E4AB5
:100EB00003231B02D21883089B00D2588307DC0E41
:100EC000FF23A3409A438B071B0E8407E40EA34025
:100ED0001A43054B032424021B198408A4001A5149
:100EE00010BD00001CED00E000E100E070470000D4
:100EF000002905D0054A52690243044B5A6104E0B7
:100F0000024A52698243014B5A6170470010024005
:100F1000002905D0054A92690243044B9A6104E016
:100F2000024A92698243014B9A6170470010024065
:100F3000FEB5044600250026002002900190009096
:100F40000027704840680C2108400546002D06D057
:100F5000042D07D0082D08D00C2D2CD128E06A488C
:100F600020602BE06848206028E0664840680F2138
:100F7000890408400646634840680321C9030840C5
:100F80000290B00C861C0298002803D15F483746B7
:100F900047430BE05B48C06A0007000F401C01900C
:100FA00059480199FFF7BCF870430746276005E0F0
:100FB0005748206002E05448206000BF00BF5148FD
:100FC0004068F021084005462D095248405D0090D8
:100FD00021680098C14061604A48406807210902C1
:100FE000084005462D0A4B48405D00906168009816
:100FF000C140A1604348006BFF2101310840884295
:1010000002D04548E0600DE03E4840680121890378
:101010000840884203D0A0684008E06002E0A06871
:101020008008E0603748006B40210840402802D02B
:101030003A48206102E00120C00320613148006B82
:1010400010210840102802D02F48606101E020687C
:1010500060612C48006B8007800F002802D1A068D7
:10106000A06119E02748006B8007800F012802D19A
:101070002068A06110E02348006B8007800F0228E1
:1010800002D18003A06107E01E48006B8007800F3B
:10109000032801D11C48A0611A48006B03210904F0
:1010A0000840002802D1A068E06120E01548006BEC
:1010B00003210904084001210904884202D1206863
:1010C000E06114E00F48006B03210904084001218E
:1010D0004904884202D18010E06108E00948006BB1
:1010E000032109040840884201D10748E06105480E
:1010F000006B80210840802802D00548206200E073
:101100002762FEBD0010024000127A0000093D0077
:10111000006CDC0210000020809FD50012800000CF
:10112000704700000CB500200190009011201D496F
:1011300008601D4840681C4948600846406848608F
:10114000084640687B21C903884317494860084620
:1011500040680521C90408431349486008460068EF
:101160000121090608431049086000BF0E480068C5
:101170000121490608400028F8D00B484068800843
:101180008000094948600846406802210843064932
:10119000486000BF044840680C2108400828F9D185
:1011A0000CBD000000200240001002400148006811
:1011B000704700000C00002002480068401C0149F4
:1011C000086070470C00002010B51B480068012122
:1011D00008431949086008464068184908401649FC
:1011E00048600846006816490840134908600846E8
:1011F00000680121890488430F4908600846406857
:101200003F21090488430C4948600846C06A000928
:101210000001C8620846006BFF215431884306492B
:1012200008630846406B400840004863002088601F
:10123000FFF778FF10BD0000001002400CB8FF0857
:10124000FFFFF6FE10B50821354800F088F80128A8
:1012500006D10821324800F06BF8314800F046F919
:1012600001212F4800F07BF8012806D101212C48EC
:1012700000F05EF82A4800F039F90221284800F011
:101280006EF8012806D10221254800F051F82448C3
:1012900000F02CF92349224800F06BF800283DD0DB
:1012A00020491F4800F046F81D4800F01FF9C4B25D
:1012B0001D4800880121C903084000282ED11A4882
:1012C00000884910084000280DD00A2C03D00020C7
:1012D0001549088022E0144800880121C903084309
:1012E000114908801AE00D2C07D10F480088012110
:1012F000890308430C49088010E00B4800888004EB
:10130000800C0A490C5408480088401C0649088093
:1013100008460088632801DD0020088010BD000019
:101320000038014005010500080000206C00002085
:101330000162704710B5002300220B0C01249C4071
:101340002246026210BD002904D0026801231A431C
:10135000026003E0026852085200026070470246D1
:101360000020D3690B40002B01D0012000E00020B9
:10137000704770B502460B4600240021002500206E
:101380001E04350ED9B201268E403146012D02D100
:101390001668314006E0022D02D15668314001E066
:1013A000966831401C0C0126A6403446D66934406C
:1013B000002903D0002C01D0012000E0002070BDE6
:1013C000F8B50346002400260096002500201846A4
:1013D0000E04340ECEB200960127009EB7403D4663
:1013E000022C01D1001D02E0032C00D10830002A9C
:1013F00003D006682E43066002E00668AE4306602E
:10140000F8BD0000F0B58BB004460D460027002063
:101410000A9000262068400840002060666803218A
:101420000903304688430646A86806436660266876
:101430002A480640E9686868084329690843064362
:101440002660A6680321090230468843064668697B
:101450000643A66001A8FFF76BFD2148844202D134
:1014600007980A9007E01F48844202D108980A9022
:1014700001E003980A9020680121C9030840002870
:101480000CD029680A9A5000FEF74AFE07462968E0
:101490000A9A5000FEF744FE0E4609E029680A98B1
:1014A000FEF73EFE074629680A98FEF739FE0E460B
:1014B00028684008B04200D87F1C20680121C90379
:1014C0000840002806D03807460F3846064908402D
:1014D00030430746A7810BB0F0BD0000F3E9FFFFE2
:1014E0000038014000440040F0FF00000146888CB5
:1014F000C005C00D7047CA05D20D028570470000B7
:101500000FB410B503A9044B044A029800F0E8F8A0
:1015100010BC08BC04B01847711E0008440000202D
:101520002021020C01D010211046020A01D01046E1
:101530000839020901D01046091F820801D010465F
:10154000891E420801D0881E7047081A704702E0C1
:1015500008C8121F08C1002AFAD17047704700203E
:1015600001E001C1121F002AFBD17047F0B51FB482
:1015700086B00998089A030D0021024314D05148FF
:10158000514A1818504305141198012810981AD080
:10159000281A401C00264D4F4D4900960191049099
:1015A000002812DA444211E01198012449A30128CD
:1015B00001D11098C1430698119A84600360C260FB
:1015C00041600BB0F0BD4042E4E704462105002035
:1015D0003F4A001C51410391029012E0E00707D0FE
:1015E00032463B4601990098FEF7A0FE019100901B
:1015F00032463B4610461946FEF798FE06460F4611
:101600006410002CEAD10498039B0028029A0999DF
:10161000089806DAFEF78AFE019B009AFEF786FE1E
:1016200005E0FEF7EBFE019B009AFEF7E7FE04469D
:101630000E460022284BFEF779FF03D80020C04356
:10164000014607E00022254B20463146FEF7BCFD4F
:10165000FEF74CFF102409E0002C0ADB0A220023CD
:10166000FEF782FD079B30321A55641E02460A437C
:10167000F2D11122641C079B121B1C19119B012B18
:1016800003D0012308430ED10AE0084304D01120FF
:1016900010900020119077E71098151A6D1E0BE03E
:1016A0001098824202DD00236D1C03E0824201DAC1
:1016B00000236D1E002BEED0069811998260C16048
:1016C00030C07EE701FCFFFF104D00000000144019
:1016D0000000F03F300000000000F0430000E03F59
:1016E000FFB597B00646002518E2252877D10024DB
:1016F0002746FD49049400E00443761C327801201B
:10170000203A90400842F7D130782A280ED00222A1
:10171000307801463039092916D804990A235943EB
:10172000303940181443761C0490F1E7189802C829
:1017300004911890002904DA012040030443484230
:10174000049002200443761C30782E2814D1042003
:1017500004437078761C2A2809D11898761C80C812
:10176000189009E00A214F43303FC719761C3078A2
:10177000014630390929F5D930786C2810D006DCBB
:101780004C281AD068280ED06A2817D104E0742893
:1017900013D07A2812D110E00120400504430CE058
:1017A0000121090501E0032109050C4371788142FB
:1017B00003D1012000052418761C761C3078119086
:1017C00066280BD013DC58287DD009DC00287BD09C
:1017D0004528F6D04628F4D047281AD1A5E118E0CC
:1017E000632835D0642870D0652812D19DE1702817
:1017F0006CD008DC6728F1D069287BD06E280DD02A
:101800006F2806D1BAE073282ED0752871D07828B9
:1018100059D01A9A199990476D1C7EE16002400FC9
:10182000022809D003280DD00428189801680DD08B
:101830000D60001D189070E11898EA1701680D609E
:101840004A60F6E7189801680D80F2E70D70F0E73E
:1018500018986A4601781172001D18900020507285
:1018600002A80090012005E0189802C818900020F6
:101870000091C04361070DD5002101E00199491C89
:101880000191B94212DA8142F8DB009A515C0029D9
:10189000F4D10BE0002101E00199491C0191814242
:1018A000FADB019A0099895C0029F5D10199049825
:1018B0001A9B471A21463846199A00F097FA01995F
:1018C000401945180BE04FE02CE113E04EE0009882
:1018D00000990078491C00911A9A1999904701982B
:1018E000401E0190401CF2D1214638461A9B199A9D
:1018F00010E137E00A200021009001916002410FC1
:10190000022907D0189A01CA1892C21794460329CF
:1019100008D00AE01898C01DC108C90005C918916F
:10192000944607E000B2C2179446042902D140B29F
:10193000C1178C4600226146944506DA0A4600210A
:10194000404291418C462D2102E0210504D52B21F6
:101950006A461173012103E0E10701D02021F7E776
:10196000029155E00A200AE0102008E010200090C3
:101970000021042004430191082703E008200021EE
:10198000019100906002410F022907D0189A01CA04
:10199000189200229446032908D008E01898C01D28
:1019A000C108C90005C91891944603E080B2042912
:1019B00000D1C0B200210291210729D511997029C7
:1019C00006D0009A1021019B4A401A4305D00EE030
:1019D00040216A461173012108E06146014306D0A7
:1019E00030216A4611731199517302210291009AB4
:1019F0000821019B4A401A430AD16146014301D1A3
:101A0000610705D530216A46117301217F1E0291BD
:101A10001199582904D035A10E910DA90D910DE011
:101A200037A1F9E76146019B009AFEF79DFB0E9BEB
:101A30008C469B5C0D9A521E0D92137061460143B9
:101A4000F0D10D9805A9081A20300190600703D540
:101A500001200004844300E001270198874201DD52
:101A6000381A00E0002001990090411802980918E6
:101A70000498401A0490E00306D421461A9B199A50
:101A8000049800F0B3F94519002706E003A81A9A54
:101A9000C05D199990476D1C7F1C02988742F5DB49
:101AA000E0030CD521461A9B199A049800F09EF980
:101AB000451904E01A9A3020199990476D1C009935
:101AC000481E00900029F5DC08E00D980D9900787B
:101AD000491C0D911A9A199990476D1C0199481E3D
:101AE00001900029F1DC63E1092801003031323333
:101AF000343536373839616263646566000000004A
:101B00003031323334353637383941424344454633
:101B10000000000000F05AF94519761C30780028C2
:101B200000D0E2E528461BB0F0BD600700D40627D0
:101B30001898C01DC108C90048680A680831C30F59
:101B4000DB071891190001D09CA108E0210501D5FF
:101B50009BA104E0E10701D09AA100E09AA1430013
:101B600011985B08109165280CD006DC452809D037
:101B700046281DD0472841D141E0662818D0672863
:101B80003CD13CE00021112F01DB112000E0781C4A
:101B90000191009008A911A8FFF7E8FC139905919D
:101BA0000021119A15927F1C12980197009150E024
:101BB0000120C00703900120019008A9009711A8F7
:101BC000FFF7D4FC139A149905920022119B0092FE
:101BD00012981593059A0192002901D0104602E04F
:101BE000791C40180190381A01D5019804E0404250
:101BF000401E0090781C0190C01B029043E0012F12
:101C000000DA01270021112F01DD112000E0384604
:101C10000191009008A911A8FFF7A8FC139905915C
:101C2000119A0021129815920091019721070CD466
:101C30000599B94201DB019900E00191012904DD18
:101C4000159A491E515C302906D0B84201DA011DAF
:101C500005DA0121029115E00199491EEDE70028FE
:101C600005DC0099411800910199091A03E0019AD5
:101C7000411C914200DD01910099401A401C0290E4
:101C80000120C0070390200706D4029901988142E1
:101C900002DB0020C043029000206946C87707AFEE
:101CA000012103980337C907884224D002201190EC
:101CB0002B201290039800280CDA404203902D202C
:101CC000129007E00A210398FEF72AFA30317F1EAE
:101CD000039039701199481E11900029F2DC039885
:101CE0000028EFD1791E1298087030782021084022
:101CF0004530BF1E387006A8C01BC01D0390109849
:101D00000078002800D00120019941180298C017DE
:101D10000918039809180498401A401E0490E0031B
:101D200006D421461A9B199A049800F05FF84519C9
:101D300010980078002803D01A9A199990476D1CC2
:101D4000E00324D521461A9B199A049800F04EF816
:101D500045191CE00098002807DB00990598884287
:101D600003DD1598405C199901E0199930201A9A01
:101D7000904700986D1C401C00900298401E0290F5
:101D8000002804D11A9A2E20199990476D1C0199A8
:101D9000481E01900029DDDC05E038781A9A7F1C86
:101DA000199990476D1C0399481E03900029F4DC93
:101DB00021461A9B199A0498ACE600002D000000F9
:101DC0002B0000002000000000000000F8B50446D1
:101DD00000251E461746880404D405E03946202015
:101DE000B0476D1C641EF9D52846F8BDFFB5044602
:101DF000002581B01E46C80301D5302700E020270A
:101E0000880404D505E038460399B0476D1C641E6C
:101E1000F9D5284605B0F0BD10B504467D21C900AE
:101E20006143084600F002F810BD000070B503469B
:101E300000BF0E4E756930265E43344600220B4EBD
:101E4000B1690FE0094EB06988420BD0884202D2D6
:101E50000E1AB21802E02E1A7618B2180146A242E3
:101E600000D300E0EEE700BF70BD000000E000E03E
:101E700070B504460D46E1B20548FFF73CFB00BFD4
:101E800080210348FFF76BFA0028F9D0204670BD87
:101E9000003801402548FFF74BF8244948687D2168
:101EA000C900FEF73DF90446601E2149884200D969
:101EB0000CE0601E1F4948610321081FFEF7DAFF8E
:101EC00000201C4988610720086100BF4B20C00129
:101ED00000F034F800F0B4F86420FFF79DFFFEF73F
:101EE00051FF1548FFF70CFBFFF760F905461BE0B3
:101EF000FFF75CF9441B002C01DB204600E0604248
:101F0000FF215F3188420ADDFFF750F905460920BD
:101F1000C006808A102148400921C9068882FEF740
:101F200055FC0A20FEF7BCFBE2E700004800002059
:101F3000FFFFFF0000E000E0DC20000810B58AB0E1
:101F4000044601214804FEF7D3FF01218803FEF770
:101F5000DFFF01220921C806FEF740FE01220A2107
:101F60000920C006FEF73AFE032040020790022136
:101F700008A80170002181700121C1700321417006
:101F800007A90920C006FEF7E1FD1B2108A8017181
:101F9000022141710121817109A8FEF733FF0194EB
:101FA000002002900390049006900C20059001A957
:101FB0001B48FFF727FA1B491948FFF7B9F9002218
:101FC000FF2109311648FFF7FBF900221649144892
:101FD000FFF7F6F9002215491148FFF7F1F9012240
:101FE00013490F48FFF7ECF9002212490C48FFF79C
:101FF000E7F9002210490A48FFF7E2F900220F49E9
:102000000748FFF7DDF90022032109020448FFF722
:10201000D7F901210248FFF796F90AB010BD000078
:1020200000380140FF030000070107000601060019
:102030000501050004010400060208000A03090066
:1020400010B508A0FFF75CFA09A0FFF759FA0FA036
:10205000FFF756FA11A314A2164917A0FFF750FA7A
:1020600010BD00000D0A205C207C202F200D0A00EE
:102070002D20494E43202D20202020204155544F13
:102080004D4154494F4E0D0A00000000202F207C86
:10209000205C20202020200D0A00000041707220CA
:1020A000313820323032300031313A33393A323837
:1020B00000000000000000200D0A6669726D776163
:1020C0007265202573206275696C64206174202517
:1020D000732025730D0A0D0A000000005468652066
:1020E000696E74657276616C206265747765656E81
:1020F0002073656E64696E672074776F20636F6DFF
:102100006D616E64732069732062657474657220FA
:102110007468616E2035306D730D0A3E3E0000001C
:102120006175746F20746F67676C6520656E61629E
:102130006C652020202020202D2D2D4765742064E3
:10214000617461206F6E6365207768656E207468C6
:10215000652073656E736F7220737461747573207C
:102160006368616E6765730D0A000000706C6561DD
:1021700073652073656E6420636F6D6D616E64734B
:1021800020656E6420776974685C725C6E20616E95
:102190006420796F752077696C6C2072656365695E
:1021A0007665206461746120656E64207769746867
:1021B000205C725C6E3E3E0D0A65783A00000000BD
:1021C000E021000800000020480000004E15000833
:1021D0002822000848000020880400005E1500083E
:1021E000766572312E3031000000000000000000E2
:1021F00000000000010203040102030406070809AD
:1022000000000000000000000000000000000000CE
:1022100000000000000000000000000000000000BE
:082220000000000000000000B6
:04000005080000B53A
:00000001FF
