:020000040800F2
:10000000E8040020C9000008C50F0008950F00088B
:1000100000000000000000000000000000000000E0
:10002000000000000000000000000000E5120008D1
:100030000000000000000000B11000087D1300085F
:10004000F900000800000000F9000008F9000008AD
:10005000F9000008F9000008F9000008F90000089C
:1000600000000000F9000008F9000008F90000088D
:10007000F9000008F9000008F9000008000000007D
:10008000F90000080000000000000000F90000086E
:10009000F9000008F9000008F9000008F90000085C
:1000A000F9000008F9000008F90000080914000828
:1000B000F90000080348854600F0ECFA00480047C4
:1000C00065200008E80400200C4880F308880C48EC
:1000D0000168090E0B4A914205D10B480B4901609A
:1000E0000B480C4901600C4880470C480047FEE76C
:1000F000FEE7FEE7FEE7FEE7FEE70000E80400207B
:10010000040000001F000000181002400100000061
:1001100000000140000000008D130008B500000839
:1001200030B50B46014600202022012409E00D468F
:10013000D5409D4205D31D469540491B2546954017
:1001400040191546521E002DF1DC30BD10B50022BD
:1001500000E0521C835C8C5CA34201D1002BF8D1DF
:10016000D8B2E1B2401A10BD30B5054600200346B2
:1001700000E05B1C934205D2EC5CC85C201A01D104
:10018000002CF6D130BD0000F7B5009C0F460026CC
:100190002578641C002D05D000F05EF80068405DF5
:1001A000C007F5D12B2D02D02D2D18D0641E394655
:1001B0002046029A00F054F8002F04D03968A1427A
:1001C00001D1009939607105022400290BDA4042FF
:1001D000002803DD01F09EFA0460A007FEBD0120A7
:1001E00080020643E3E70028F8DA01F093FA04609E
:1001F0000048FEBDFFFFFF7FF0B51FB4064600209C
:1002000082B005464024019100901BE001992246EE
:100210000F46304600F060FA049A059B801A994117
:1002200010D310461946224600F046FA361A8F417E
:100230000197224601200021009F00F03DFA381866
:100240004D4100902046641E0028DFDC019B009891
:100250002946324607B0F0BD0048704768260008BE
:10026000F7B582B0029C00272078641C15460197E0
:10027000302802D0002D15D015E020780127641C0D
:10028000782804D0582802D0002D09D00BE0002D8A
:1002900001D0102D07D1002710252078641C02E022
:1002A000082500E00A250026009610E000990127A5
:1002B00069430818020C294680B2714300908E18D9
:1002C0003804864201D3012001902078641C29461D
:1002D00000F026FA0028E9DA0398002805D0002F5C
:1002E00001D0641E00E0029C04600198002806D042
:1002F00001F010FA02210160C81E05B0F0BD00999E
:1003000030040843F9E70000F0B5074608465840B6
:1003100087B0C00F049048000E46590040084908B5
:10032000BC1A884105D2384631461E4617460B4650
:1003300002465800400810434CD0300D0390400551
:100340005900400D490D0590401A0290402872DA7C
:1003500018030121000B090508430190049800923D
:10036000002805D001995242002088410092019056
:10037000029840210A1A0199009800F09DF905465B
:100380000C466B4607CB00F0B8F9C0197141039ACF
:100390000E0D0023D71756401A467A40164344D014
:1003A000049A002A2DD0029A012A039A15DC12051C
:1003B000C01A914101263605001C7141D20F059EDD
:1003C000D2070093019202962A46234600F0C4F910
:1003D00007B0F0BD38463146FAE71605224A0F4607
:1003E000B218C01AB74101210905001C4F4100187D
:1003F0007F41114618187941E20F10436D1964418D
:1004000013E0E2076D0815436408C2071443039A1A
:1004100001261205C01A91413605001C7141CE0714
:10042000400830434908C01851412A46234600F08D
:1004300086F9CDE7FFE7049801224000C117121AA0
:1004400000238B4104983146C417381AA141EEE7C6
:1004500030B40124E407634030BC55E730B40124D4
:10046000E407614030BC4FE70000E0FFF0B51FB487
:1004700088B00B990998002448400999C00F490099
:1004800049080991C0070B990090490049080B9150
:1004900009990898A64608431CD00B990A98084366
:1004A00018D0099801244000420D4800410D0998D8
:1004B00024050003000B204309900B980003000B58
:1004C00020430B9050181C494018002201901446FC
:1004D000104605E0002001460DB0F0BD032801DA0A
:1004E000034600E003239C46C11A0AAE0AE05F00FF
:1004F00008ADED5B4F00F75B7D430027AA187C41F8
:10050000491C5B1E6145F2DD410004AB5A522104D7
:10051000120C0A43240C401C0828DFDB01980290CF
:100520000099704601910090059B049A07990698DE
:1005300000F012F9D0E700000DFCFFFFF0B50C460B
:100540005C4085B0E40FE40703944C000026640887
:1005500059009446490802460296224321D0624639
:100560000A431ED06200570D4A000E032303550DA7
:10057000012402462C492405781B1B0B360B40181E
:1005800023432643614600901C46501AB44103D3CE
:100590000098401C009002E0921800985B410028EF
:1005A00003DA0020014605B0F0BD00200121090555
:1005B0000746864611E064461D46141BB54106D326
:1005C0006546521BB341744607430C43A646CD070C
:1005D00040084908284392185B4105460D43EAD17B
:1005E0001046184313D060461946504071400843E6
:1005F00006D06046101AB34106D20122002306E05D
:1006000000220123DB0702E00122D24353100098AD
:1006100074460105381C6141029C039D0019694123
:1006200000F08DF8BFE70000FD0300004A00090359
:100630000123090B1B0519430A4B10B5520D9A42B1
:1006400002DA0020014610BD064B34339A4203DC27
:100650009A1A00F041F810BD034BD21800F02CF8A4
:1006600010BD0000FF030000CDFBFFFF10B5002907
:1006700004DB0124E40740428C412146002B04DBCB
:100680001C460123DB075242A341994200D190420C
:1006900010BD0000064C0125064E05E0E36807CCBE
:1006A0002B430C3C98471034B442F7D3FFF706FDB8
:1006B000482700086827000810B5202A04DB0146F7
:1006C000203A9140002010BD914020239C1A0346FF
:1006D000E3401943904010BD10B5202A04DB0846C2
:1006E000203AD040002110BD0B46D340D0402024FA
:1006F000A21A91400843194610BD10B5202A06DB06
:10070000CB170846203A1041C1170B4306E00B46B1
:100710001341D0402024A21A91400843194610BD2D
:100720003A2800D23038202302469A43412A01D386
:1007300010463738884201D30020C043704710B5B7
:10074000002B08DA0024401C614192185B411A43D7
:1007500001D14008400010BDF0B51FB482B005467D
:100760000C0003D0084600F0BDFF02E000F0BAFF25
:1007700020300246009021462846FFF79DFF049B4B
:10078000059A04460F4618431143084314D01846EF
:1007900010431BD0009840210A1A18460599FFF70C
:1007A0009BFF05460E46009A05990498FFF784FFC3
:1007B000084305D0012004E02046394607B0F0BDCB
:1007C0000020C11705430E432C43374300990E9870
:1007D0006305401A7905E40A00220C43FD0A0A3039
:1007E00002D500200146E9E70105101969410C9C7A
:1007F0000D9D00196941FFF7A2FFDFE710B515480D
:1008000000880121C9030840002821D0114804783C
:10081000002011490855084600F054FF0FA000F0D1
:1008200051FF0D480078002803D10DA000F04AFFC9
:100830000BE0094800F032F8002803D108A000F0CE
:1008400041FF02E007A000F03DFF002001490880C1
:1008500010BD000008000020840000200D0A0000E8
:100860003E3E0000636F6D6D616E6473206E6F209D
:10087000666F756E64202C20747970652068656CD5
:100880007020746F2073656520636F6D6D616E6499
:1008900073206C6973740D0A3E3E000070B5044607
:1008A0000025204600F014F9204600F079F80028D1
:1008B0002AD0214615A0FFF749FC00280CD115A02D
:1008C00000F000FF16A000F0FDFE18A000F0FAFEF8
:1008D0001AA000F0F7FE17E021461CA0FFF736FC37
:1008E000002806D11BA31EA2204921A000F0EAFE89
:1008F0000AE0214626A0FFF729FC002803D126485C
:100900002649C86000E00125284670BD68656C7006
:100910000000000076657273696F6E3A0D0A000080
:100920007265626F6F743A0D0A00000070636D317A
:100930002068656C703A0D0A000000006C636F6DF2
:10094000702068656C703A0D0A000000766572735D
:10095000696F6E004E6F76203236203230313900AA
:1009600031303A35393A31320000000000000020C1
:100970006669726D77617265202573206275696C96
:10098000642061742025732025730D0A0000000087
:100990007265626F6F7400000400FA0500ED00E0FC
:1009A00070B504460025214615A0FFF7CFFB0028AF
:1009B00016D116480078002804D100F0EDFA012085
:1009C000124908700221124800F0D6FA002803D11B
:1009D00010A000F077FE11E01CA000F073FE0DE007
:1009E000214626A0FFF7B2FB002806D126A000F082
:1009F00069FE2BA000F066FE00E00225284670BDCF
:100A00006361626C65206465627567002000002088
:100A1000000400486661696C2D2D2D2D2D2D2D2D86
:100A20002D2D2D2D2D2D2D2D2D2D2D2D2D2D2D2DF6
:100A30002D2D2DB5E7D4B4CFDFC2B7BDD3CFDFD3D3
:100A4000D0CECACCE20D0A3E3E0000007061737346
:100A50002D2D2D2D2D2D2D2D2D2D2D2D2D2D2D2DC6
:100A60002D2D2D2D2D2D2D2D2D2D2DCFDFB2C4B2C1
:100A7000E2CAD46F6B0D0A3E3E0000006C636F6DDE
:100A8000702068656C7000000D0A6C636F6D7020DB
:100A9000636F6D6D616E64206C6973743A0D0A004A
:100AA0006361626C652064656275672D2D2D2D2D47
:100AB0002D2D2D2D2D2D2D2D6C636F6D70206537F7
:100AC00035206361626C6520746573740D0A0000E3
:100AD000F8B5044600260A222146B9A0FFF744FBD8
:100AE000002824D1A07C292821D101F00BFB00256E
:100AF00017E028460A30205C302808D16A00B34B42
:100B0000995AAA00B24B985800F040FA07E06A00E0
:100B1000AE4B995AAA00AE4B985800F039FA681CAF
:100B2000C5B2082DE5DBABA000F0CCFD46E10B2201
:100B30002146AAA0FFF718FB002816D100902546F1
:100B40000B350A2269462846FFF71EFBC7B201F0A3
:100B5000D9FA00980078292806D100984078002812
:100B600002D1384601F00CFC28E10C2221469EA05F
:100B7000FFF7FAFA002816D1009025460C350A2214
:100B800069462846FFF700FBC7B201F0BBFA0098A0
:100B90000078292806D100984078002802D13846EC
:100BA00001F0B6FB0AE10D22214693A0FFF7DCFA23
:100BB000002816D1009025460D350A2269462846A0
:100BC000FFF7E2FAC7B201F09DFA009800782928F1
:100BD00006D100984078002802D1384601F008FC80
:100BE000ECE0214688A0FFF7B1FA00280ED101F011
:100BF00089FA88490920C00600F0C8F90221864810
:100C000000F0C4F973A000F05DFDD7E0214683A099
:100C1000FFF79CFA00281FD101F074FA7D490920E2
:100C2000C00600F0B3F902217B4800F0AFF91420B0
:100C300001F0DAF9D0210920C00600F0A9F97D20E1
:100C4000C00001F0D1F980210920C00600F09EF912
:100C500060A000F037FDB1E0214676A0FFF776FAFC
:100C6000002817D101F04EFA6A490920C00600F0A9
:100C70008DF90221684800F089F9142001F0B4F9D7
:100C8000452109010920C00600F082F951A000F0B9
:100C900019FD93E021466CA0FFF758FA002820D1F7
:100CA00001F030FA5B490920C00600F06FF902211B
:100CB000594800F06BF9142001F096F963210901FD
:100CC0000920C00600F064F9FF20F53001F08CF92E
:100CD00010210920C00600F059F93EA000F0F2FCF6
:100CE0006CE021465DA0FFF731FA00281ED101F02B
:100CF00009FA48490920C00600F048F9022146488F
:100D000000F044F9142001F06FF902210920C00617
:100D100000F03EF9554801F067F902210920C006AC
:100D200000F036F92BA000F0CDFC47E0214650A0A2
:100D3000FFF70CFA00281AD101F0E4F9354909202F
:100D4000C00600F023F90221334800F01FF91420F7
:100D500001F04AF950210920C00600F019F90221DA
:100D60002D4800F015F91BA000F0ACFC26E0214650
:100D700044A0FFF7EBF9002816D101F0C3F925498B
:100D80000920C00600F002F90221234800F0FEF815
:100D9000142001F029F910210920C00600F0F8F80C
:100DA0000CA000F08FFC09E021463BA0FFF7CEF934
:100DB000002802D101F0DCF900E002263046F8BD3F
:100DC00072656C61795F73657428000044000020CF
:100DD000240000203C6F6B3E0D0A000072656C61C0
:100DE000795F6F70656E280072656C61795F636C06
:100DF0006F7365280000000072656C61795F737421
:100E00006174757328000000616C6C206F70656EF2
:100E100000000000F20600000004004873776974C7
:100E2000636820746F20656E61626C652070636D0D
:100E30000000000073776974636820746F20726526
:100E4000636F72642056000073776974636820745E
:100E50006F207265636F726420490000766261746E
:100E6000206469736368617267650000881300001D
:100E7000656E61626C65206275646479206C696E70
:100E80006B00000064697361626C65206275646464
:100E900079206C696E6B000070636D312068656C41
:100EA00070000000F0B50A4600210023002400BFB6
:100EB0003DE001258D402B4615681D402C469C4287
:100EC00034D11579012D02D01579022D16D18568FE
:100ED0004F000326BE40B543856055794E00B540AE
:100EE000866835438560858801268E40B5438580B8
:100EF000858896798E40B6B23543858005684F0067
:100F00000326BE40B543056015794E00B54006681E
:100F100035430560C5684F000326BE40B543C56034
:100F2000D5794E00B540C6683543C560491C1029C7
:100F3000BFD3F0BDF0B5002300244D07EE0E1546DB
:100F4000B5402B46CD10AE0005462035AD594E07B5
:100F5000F70E0F26BE40B543CE10B6000746203729
:100F6000BD51CD10AE003D46AD591D432C46CD10B0
:100F7000AD003E467451F0BD02460020138A0B407E
:100F8000002B01D0012000E0002070470185704750
:100F90008161704700BFFEE71CB50121880400F0A5
:100FA00089F8022000900021684601710221C17178
:100FB0000321417169460248FFF774FF1CBD000020
:100FC000000400487047000000218278002A27D0E2
:100FD000184A03231B02D21803789B109B00D15898
:100FE00002789207D30EFF229A400B46934319468C
:100FF00042789207120E03789B07DB0E9A4011434A
:101000000C4A03231B02D21803789B109B00D1507B
:101010000278D306DB0E01229A40064B1A6007E0E5
:101020000278D306DB0E01229A40024B80331A600D
:101030007047000000E100E010B5002819DA1A4AF4
:1010400003071B0F083B9B089B00D2588307DC0E4D
:10105000FF23A3409A438B071B0E8407E40EA34093
:101060001A43114B0407240F083CA408A4001A518A
:1010700018E00E4A03231B02D21883089B00D258A3
:101080008307DC0EFF23A3409A438B071B0E8407C4
:10109000E40EA3401A43054B032424021B198408C1
:1010A000A4001A5110BD00001CED00E000E100E0BA
:1010B00070470000002905D0054A52690243044BDD
:1010C0005A6104E0024A52698243014B5A617047F7
:1010D00000100240002905D0054A92690243044BE2
:1010E0009A6104E0024A92698243014B9A61704717
:1010F00000100240FEB504460025002600200290A4
:10110000019000900027704840680C210840054677
:10111000002D06D0042D07D0082D08D00C2D2CD181
:1011200028E06A4820602BE06848206028E0664894
:1011300040680F218904084006466348406803213F
:10114000C90308400290B00C861C0298002803D105
:101150005F48374647430BE05B48C06A0007000F13
:10116000401C019059480199FEF7DAFF7043074689
:10117000276005E05748206002E05448206000BF27
:1011800000BF51484068F021084005462D095248EB
:10119000405D009021680098C14061604A48406805
:1011A00007210902084005462D0A4B48405D009082
:1011B00061680098C140A1604348006BFF21013184
:1011C0000840884202D04548E0600DE03E48406853
:1011D000012189030840884203D0A0684008E060EC
:1011E00002E0A0688008E0603748006B40210840BA
:1011F000402802D03A48206102E00120C00320616B
:101200003148006B10210840102802D02F4860613F
:1012100001E0206860612C48006B8007800F002887
:1012200002D1A068A06119E02748006B8007800FF9
:10123000012802D12068A06110E02348006B8007DC
:10124000800F022802D18003A06107E01E48006BD6
:101250008007800F032801D11C48A0611A48006B49
:10126000032109040840002802D1A068E06120E0C1
:101270001548006B03210904084001210904884234
:1012800002D12068E06114E00F48006B03210904DB
:10129000084001214904884202D18010E06108E041
:1012A0000948006B032109040840884201D107481E
:1012B000E0610548006B80210840802802D0054885
:1012C000206200E02762FEBD0010024000127A009A
:1012D00000093D00006CDC0210000020809FD5005A
:1012E00012800000704700000CB5002001900090B3
:1012F00011201D4908601D4840681C494860084687
:1013000040684860084640687B21C9038843174904
:101310004860084640680521C904084313494860ED
:10132000084600680121090608431049086000BF0B
:101330000E4800680121490608400028F8D00B48F3
:1013400040688008800009494860084640680221DA
:1013500008430649486000BF044840680C21084023
:101360000828F9D10CBD0000002002400010024006
:1013700001480068704700000C0000200248006827
:10138000401C0149086070470C00002010B51B4844
:101390000068012108431949086008464068184957
:1013A0000840164948600846006816490840134935
:1013B0000860084600680121890488430F490860D5
:1013C000084640683F21090488430C4948600846A4
:1013D000C06A00090001C8620846006BFF21543151
:1013E0008843064908630846406B4008400048634C
:1013F00000208860FFF778FF10BD00000010024059
:101400000CB8FF08FFFFF6FE10B50821354800F0C4
:1014100088F8012806D10821324800F06BF83148DD
:1014200000F046F901212F4800F07BF8012806D191
:1014300001212C4800F05EF82A4800F039F9022119
:10144000284800F06EF8012806D10221254800F056
:1014500051F8244800F02CF92349224800F06BF899
:1014600000283DD020491F4800F046F81D4800F0F4
:101470001FF9C4B21D4800880121C9030840002893
:101480002ED11A4800884910084000280DD00A2C97
:1014900003D000201549088022E01448008801216B
:1014A000C9030843114908801AE00D2C07D10F48E1
:1014B00000880121890308430C49088010E00B488B
:1014C00000888004800C0A490C5408480088401C9D
:1014D0000649088008460088632801DD002008804E
:1014E00010BD000000380140050105000800002083
:1014F000840000200162704710B5002300220B0C0D
:1015000001249C402246026210BD002904D00268DA
:1015100001231A43026003E002685208520002608D
:10152000704702460020D3690B40002B01D00120F8
:1015300000E00020704770B502460B4600240021F1
:10154000002500201E04350ED9B201268E403146FA
:10155000012D02D11668314006E0022D02D15668F5
:10156000314001E0966831401C0C0126A64034460B
:10157000D6693440002903D0002C01D0012000E0BE
:10158000002070BDF8B50346002400260096002513
:10159000002018460E04340ECEB200960127009E9D
:1015A000B7403D46022C01D1001D02E0032C00D1C2
:1015B0000830002A03D006682E43066002E0066861
:1015C000AE430660F8BD0000F0B58BB004460D4692
:1015D000002700200A900026206840084000206074
:1015E000666803210903304688430646A868064317
:1015F000666026682A480640E968686808432969E1
:10160000084306432660A668032109023046884342
:10161000064668690643A66001A8FFF76BFD2148EE
:10162000844202D107980A9007E01F48844202D101
:1016300008980A9001E003980A9020680121C903E4
:10164000084000280CD029680A9A5000FEF768FD6F
:10165000074629680A9A5000FEF762FD0E4609E027
:1016600029680A98FEF75CFD074629680A98FEF784
:1016700057FD0E4628684008B04200D87F1C2068FD
:101680000121C9030840002806D03807460F384614
:101690000649084030430746A7810BB0F0BD000063
:1016A000F3E9FFFF0038014000440040F0FF000074
:1016B0000146888CC005C00D7047CA05D20D028551
:1016C000704700000FB410B503A9044B044A0298F8
:1016D00000F0EEF810BC08BC04B018474120000828
:1016E000580000202021020C01D010211046020ACF
:1016F00001D010460839020901D01046091F82089E
:1017000001D01046891E420801D0881E7047081A71
:1017100070470000004870475C00002002E008C8E5
:10172000121F08C1002AFAD170477047002001E05B
:1017300001C1121F002AFBD170470000F0B51FB491
:1017400086B00998089A030D0021024314D051482D
:10175000514A1818504305141198012810981AD0AE
:10176000281A401C00264D4F4D49009601910490C7
:10177000002812DA444211E01198012449A30128FB
:1017800001D11098C1430698119A84600360C26029
:1017900041600BB0F0BD4042E4E704462105002063
:1017A0003F4A001C51410391029012E0E00707D02C
:1017B00032463B4601990098FEF758FE0191009091
:1017C00032463B4610461946FEF750FE06460F4687
:1017D0006410002CEAD10498039B0028029A09990E
:1017E000089806DAFEF742FE019B009AFEF73EFEDD
:1017F00005E0FEF7A3FE019B009AFEF79FFE04465C
:101800000E460022284BFEF731FF03D80020C043CC
:10181000014607E00022254B20463146FEF774FDC5
:10182000FEF704FF102409E0002C0ADB0A22002343
:10183000FEF7E2FC079B30321A55641E02460A434B
:10184000F2D11122641C079B121B1C19119B012B46
:1018500003D0012308430ED10AE0084304D011202D
:1018600010900020119077E71098151A6D1E0BE06C
:101870001098824202DD00236D1C03E0824201DAEF
:1018800000236D1E002BEED0069811998260C16076
:1018900030C07EE701FCFFFF104D00000000144047
:1018A0000000F03F300000000000F0430000E03F87
:1018B000FFB597B00646002518E2252877D1002409
:1018C0002746FD49049400E00443761C3278012049
:1018D000203A90400842F7D130782A280ED00222D0
:1018E000307801463039092916D804990A2359431A
:1018F000303940181443761C0490F1E7189802C858
:1019000004911890002904DA01204003044348425E
:10191000049002200443761C30782E2814D1042031
:1019200004437078761C2A2809D11898761C80C840
:10193000189009E00A214F43303FC719761C3078D0
:10194000014630390929F5D930786C2810D006DCE9
:101950004C281AD068280ED06A2817D104E07428C1
:1019600013D07A2812D110E00120400504430CE086
:101970000121090501E0032109050C437178814229
:1019800003D1012000052418761C761C30781190B4
:1019900066280BD013DC58287DD009DC00287BD0CA
:1019A0004528F6D04628F4D047281AD1A5E118E0FA
:1019B000632835D0642870D0652812D19DE1702845
:1019C0006CD008DC6728F1D069287BD06E280DD058
:1019D0006F2806D1BAE073282ED0752871D07828E8
:1019E00059D01A9A199990476D1C7EE16002400FF8
:1019F000022809D003280DD00428189801680DD0BA
:101A00000D60001D189070E11898EA1701680D60CC
:101A10004A60F6E7189801680D80F2E70D70F0E76C
:101A200018986A4601781172001D189000205072B3
:101A300002A80090012005E0189802C81890002024
:101A40000091C04361070DD5002101E00199491CB7
:101A50000191B94212DA8142F8DB009A515C002907
:101A6000F4D10BE0002101E00199491C0191814270
:101A7000FADB019A0099895C0029F5D10199049853
:101A80001A9B471A21463846199A00F097FA01998D
:101A9000401945180BE04FE02CE113E04EE00098B0
:101AA00000990078491C00911A9A19999047019859
:101AB000401E0190401CF2D1214638461A9B199ACB
:101AC00010E137E00A200021009001916002410FEF
:101AD000022907D0189A01CA1892C21794460329FE
:101AE00008D00AE01898C01DC108C90005C918919E
:101AF000944607E000B2C2179446042902D140B2CE
:101B0000C1178C4600226146944506DA0A46002138
:101B1000404291418C462D2102E0210504D52B2124
:101B20006A461173012103E0E10701D02021F7E7A4
:101B3000029155E00A200AE0102008E010200090F1
:101B40000021042004430191082703E0082000211C
:101B5000019100906002410F022907D0189A01CA32
:101B6000189200229446032908D008E01898C01D56
:101B7000C108C90005C91891944603E080B2042940
:101B800000D1C0B200210291210729D511997029F5
:101B900006D0009A1021019B4A401A4305D00EE05E
:101BA00040216A461173012108E06146014306D0D5
:101BB00030216A4611731199517302210291009AE2
:101BC0000821019B4A401A430AD16146014301D1D1
:101BD000610705D530216A46117301217F1E0291EC
:101BE0001199582904D035A10E910DA90D910DE040
:101BF00037A1F9E76146019B009AFEF7FDFA0E9BBB
:101C00008C469B5C0D9A521E0D92137061460143E7
:101C1000F0D10D9805A9081A20300190600703D56E
:101C200001200004844300E001270198874201DD80
:101C3000381A00E000200199009041180298091814
:101C40000498401A0490E00306D421461A9B199A7E
:101C5000049800F0B3F94519002706E003A81A9A82
:101C6000C05D199990476D1C7F1C02988742F5DB77
:101C7000E0030CD521461A9B199A049800F09EF9AE
:101C8000451904E01A9A3020199990476D1C009963
:101C9000481E00900029F5DC08E00D980D990078A9
:101CA000491C0D911A9A199990476D1C0199481E6B
:101CB00001900029F1DC63E1092801003031323361
:101CC0003435363738396162636465660000000078
:101CD0003031323334353637383941424344454662
:101CE0000000000000F05AF94519761C30780028F1
:101CF00000D0E2E528461BB0F0BD600700D40627FF
:101D00001898C01DC108C90048680A680831C30F87
:101D1000DB071891190001D09CA108E0210501D52D
:101D20009BA104E0E10701D09AA100E09AA1430041
:101D300011985B08109165280CD006DC452809D065
:101D400046281DD0472841D141E0662818D0672891
:101D50003CD13CE00021112F01DB112000E0781C78
:101D60000191009008A911A8FFF7E8FC13990591CB
:101D70000021119A15927F1C12980197009150E052
:101D80000120C00703900120019008A9009711A825
:101D9000FFF7D4FC139A149905920022119B00922C
:101DA00012981593059A0192002901D0104602E07D
:101DB000791C40180190381A01D5019804E040427E
:101DC000401E0090781C0190C01B029043E0012F40
:101DD00000DA01270021112F01DD112000E0384633
:101DE0000191009008A911A8FFF7A8FC139905918B
:101DF000119A0021129815920091019721070CD495
:101E00000599B94201DB019900E00191012904DD46
:101E1000159A491E515C302906D0B84201DA011DDD
:101E200005DA0121029115E00199491EEDE700282C
:101E300005DC0099411800910199091A03E0019A03
:101E4000411C914200DD01910099401A401C029012
:101E50000120C0070390200706D40299019881420F
:101E600002DB0020C043029000206946C87707AF1C
:101E7000012103980337C907884224D0022011901A
:101E80002B201290039800280CDA404203902D205A
:101E9000129007E00A210398FEF742F930317F1EC5
:101EA000039039701199481E11900029F2DC0398B3
:101EB0000028EFD1791E1298087030782021084050
:101EC0004530BF1E387006A8C01BC01D0390109877
:101ED0000078002800D00120019941180298C0170D
:101EE0000918039809180498401A401E0490E0034A
:101EF00006D421461A9B199A049800F05FF84519F8
:101F000010980078002803D01A9A199990476D1CF0
:101F1000E00324D521461A9B199A049800F04EF844
:101F200045191CE00098002807DB009905988842B5
:101F300003DD1598405C199901E0199930201A9A2F
:101F4000904700986D1C401C00900298401E029023
:101F5000002804D11A9A2E20199990476D1C0199D6
:101F6000481E01900029DDDC05E038781A9A7F1CB4
:101F7000199990476D1C0399481E03900029F4DCC1
:101F800021461A9B199A0498ACE600002D00000027
:101F90002B0000002000000000000000F8B50446FF
:101FA00000251E461746880404D405E03946202043
:101FB000B0476D1C641EF9D52846F8BDFFB5044630
:101FC000002581B01E46C80301D5302700E0202738
:101FD000880404D505E038460399B0476D1C641E9B
:101FE000F9D5284605B0F0BD10B504467D21C900DD
:101FF0006143084600F002F810BD000070B50346CA
:1020000000BF0E4E756930265E43344600220B4EEB
:10201000B1690FE0094EB06988420BD0884202D204
:102020000E1AB21802E02E1A7618B2180146A24211
:1020300000D300E0EEE700BF70BD000000E000E06C
:1020400070B504460D46E1B20548FFF736FB00BF08
:1020500080210348FFF765FA0028F9D0204670BDBB
:10206000003801401E48FFF745F81D4948687D21AA
:10207000C900FEF755F80446601E1A49884200D987
:102080000CE0601E184948610321081FFEF7D4FFC9
:102090000020154988610720086100BFE120400247
:1020A00000F0D0F900F050FA6420FFF79DFF0FA078
:1020B000FFF708FBFFF75CF9054610E0FFF758F95A
:1020C000441B002C01DB204600E06042FF215F3111
:1020D000884202DDFFF74CF90546FEF78FFBEDE77E
:1020E00060000020FFFFFF0000E000E0636F6E74FF
:1020F000726F6C6C657220696E6974206F6B0D0A6B
:102100003E3E00001CB517480078002828D1012168
:102110004804FEF7CFFF1448009001216846017182
:10212000002181710321417169460920C006FEF733
:10213000B9FE0D490920C006FEF728FF01218804D9
:10214000FEF7B8FF0220009069460848FEF7AAFE95
:1021500002210648FEF71AFF01200249087000BF5D
:102160001CBD000054000020F306000000040048DD
:1021700010B512A0FFF7A6FA16A0FFF7A3FA25489C
:10218000FFF7A0FA2448FFF79DFA2448FFF79AFAD0
:1021900023A0FFF797FA2AA0FFF794FA30A0FFF7E1
:1021A00091FA37A0FFF78EFA3DA0FFF78BFA44A013
:1021B000FFF788FA4AA0FFF785FA10BD0D0A706391
:1021C0006D3120636F6D6D616E64206C6973743A5C
:1021D0000D0A000072656C61795F73657428787808
:1021E000787878787878292D2D2D2D2D2D2D2D2D61
:1021F0007365742072656C61797320737461747592
:102200007320312D636C6F736520302D6F70656E98
:102210000D0A000000270008B82600086C260008F8
:1022200073776974636820746F20656E61626C6592
:102230002070636D2D2D2D2D2D2D2D2D0D0A0000BF
:1022400073776974636820746F207265636F72645A
:1022500020562D2D2D2D2D2D2D2D2D2D0D0A00002F
:1022600073776974636820746F207265636F72643A
:1022700020492D2D2D2D2D2D2D2D2D2D0D0A00001C
:1022800076626174206469736368617267652D2D7D
:102290002D2D2D2D2D2D2D2D2D2D2D2D0D0A00000B
:1022A000656E61626C65206275646479206C696E2C
:1022B0006B2D2D2D2D2D2D2D2D2D2D2D0D0A0000AD
:1022C00064697361626C65206275646479206C690D
:1022D0006E6B2D2D2D2D2D2D2D2D2D2D0D0A00004C
:1022E000616C6C206F70656E2D2D2D2D2D2D2D2D7B
:1022F0002D2D2D2D2D2D2D2D2D2D2D2D6F70656E10
:1023000020616C6C2072656C6179730D0A000000AD
:1023100010B50446002C2ADD0B2C28DA032C0ADA2F
:10232000621E5200124B995A621E9200114B98582D
:10233000FEF72EFE18E0082C0ADAA21E52000C4B03
:10234000995AA21E92000B4B9858FEF721FE0BE003
:102350000B2C09DAE21E5200054B995AE21E92003C
:10236000044B9858FEF714FE03A0FFF7ABF910BD1D
:1023700044000020240000203C6F6B3E0D0A00004A
:1023800010B50446002C2ADD0B2C28DA032C0ADABF
:10239000621E5200124B995A621E9200114B9858BD
:1023A000FEF7F4FD18E0082C0ADAA21E52000C4BCE
:1023B000995AA21E92000B4B9858FEF7E7FD0BE0CE
:1023C0000B2C09DAE21E5200054B995AE21E9200CC
:1023D000044B9858FEF7DAFD03A0FFF773F910BD20
:1023E00044000020240000203C6F6B3E0D0A0000DA
:1023F00010B50446002C14DD0B2C12DA601E800090
:1024000008490858808A611E4900074A515A084005
:10241000002803D105A0FFF755F902E006A0FFF759
:1024200051F910BD24000020440000203C6F70656D
:102430006E3E0D0A000000003C636C6F73653E0D3C
:102440000A00000010B58AB0044601214804FEF7D6
:1024500031FE01218803FEF73DFE01220921C80655
:10246000FEF768FD01220A210920C006FEF762FD81
:10247000032040020790022108A80170002181700A
:102480000121C1700321417007A90920C006FEF790
:1024900009FD1B2108A801710221417101218171EF
:1024A00009A8FEF791FD019400200290039004908A
:1024B00006900C20059001A91B48FFF785F81B49E1
:1024C0001948FFF717F80022FF2109311648FFF7D6
:1024D00059F8002216491448FFF754F8002215490C
:1024E0001148FFF74FF8012213490F48FFF74AF848
:1024F000002212490C48FFF745F8002210490A480B
:10250000FFF740F800220F490748FFF73BF8002289
:10251000032109020448FFF735F801210248FEF7BC
:10252000F4FF0AB010BD000000380140FF030000B6
:10253000070107000601060005010500040104006B
:10254000060208000A03090010B508A0FFF7BAF850
:1025500009A0FFF7B7F80FA0FFF7B4F811A314A272
:10256000164917A0FFF7AEF810BD00000D0A205C59
:10257000207C202F200D0A002D20494E43202D20A5
:10258000202020204155544F4D4154494F4E0D0AB3
:1025900000000000202F207C205C20202020200D27
:1025A0000A0000004E6F762032362032303139007A
:1025B00031303A35393A3132000000000000002055
:1025C0000D0A6669726D77617265202573206275E8
:1025D000696C642061742025732025730D0A0D0A2F
:1025E0000000000000404040404040404040414129
:1025F00041414140404040404040404040404040D8
:102600004040404040050202020202020202020271
:10261000020202020220202020202020202020026E
:1026200002020202020290909090909010101010FE
:10263000101010101010101010101010101010109A
:10264000020202020202888888888888080808082E
:1026500008080808080808080808080808080808FA
:102660000202020240000000E525000872656C616C
:10267000795F737461747573286368616E6E656CDD
:10268000292D2D2D2D2D2D2D676574207468652025
:1026900072656C6179207374617475732C63686101
:1026A0006E6E656C3D312C322C342C352C362C372B
:1026B0002C392C31300D0A0072656C61795F636CC6
:1026C0006F7365286368616E6E656C292D2D2D2DE5
:1026D0002D2D2D2D636C6F736520746865207265D8
:1026E0006C61792C6368616E6E656C3D312C322CA7
:1026F000342C352C362C372C392C31300D0A000077
:1027000072656C61795F6F70656E286368616E6E6B
:10271000656C292D2D2D2D2D2D2D2D2D6F70656E78
:10272000207468652072656C61792C6368616E6ED7
:10273000656C3D312C322C342C352C362C372C3911
:102740002C31300D0A00000068270008000000202E
:10275000600000001C170008C82700086000002067
:10276000880400002C170008766572312E30300086
:10277000000000000000000000000000010203044F
:1027800001020304060708090000000000000048D9
:102790000000004800000048000400480000004815
:1027A0000000004800000048000000481000200021
:1027B000800002000004000240000200000000004F
:0827C000000000000000000011
:04000005080000B53A
:00000001FF
