:020000040800F2
:10000000B0040020C9000008C30D0008C50C00089A
:1000100000000000000000000000000000000000E0
:10002000000000000000000000000000E1100008D7
:100030000000000000000000AD0E0008791100086B
:10004000F900000800000000F9000008F9000008AD
:10005000F9000008F9000008F9000008F90000089C
:1000600000000000F9000008F9000008F90000088D
:10007000F9000008F9000008F9000008000000007D
:10008000F90000080000000000000000F90000086E
:10009000F9000008F9000008F9000008F90000085C
:1000A000F9000008F9000008F9000008051200082E
:1000B000F90000080348854600F0CAFB00480047E5
:1000C000611E0008B00400200C4880F308880C482A
:1000D0000168090E0B4A914205D10B480B4901609A
:1000E0000B480C4901600C4880470C480047FEE76C
:1000F000FEE7FEE7FEE7FEE7FEE70000B0040020B3
:10010000040000001F000000181002400100000061
:10011000000001400000000089110008B50000083F
:1001200030B50B46014600202022012409E00D468F
:10013000D5409D4205D31D469540491B2546954017
:1001400040191546521E002DF1DC30BD10B50022BD
:1001500000E0521C835C8C5CA34201D1002BF8D1DF
:10016000D8B2E1B2401A10BD30B5054600200346B2
:1001700000E05B1C934205D2EC5CC85C201A01D104
:10018000002CF6D130BD0000F7B5009C0F460026CC
:100190002578641C002D05D000F004F90068405D4E
:1001A000C007F5D12B2D02D02D2D18D0641E394655
:1001B0002046029A00F0FAF8002F04D03968A142D4
:1001C00001D1009939607105022400290BDA4042FF
:1001D000002803DD01F09CF90460A007FEBD0120AA
:1001E00080020643E3E70028F8DA01F091F90460A1
:1001F0000048FEBDFFFFFF7FF0B51FB488B00B992C
:100200000998002448400999C00F490049080991FC
:10021000C0070B990090490049080B91099908986B
:10022000A64608431CD00B990A98084318D0099891
:1002300001244000420D4800410D099824050003A7
:10024000000B204309900B980003000B20430B90F8
:1002500050181C494018002201901446104605E031
:10026000002001460DB0F0BD032801DA034600E08E
:1002700003239C46C11A0AAE0AE05F0008ADED5B9D
:100280004F00F75B7D430027AA187C41491C5B1E89
:100290006145F2DD410004AB5A522104120C0A43BD
:1002A000240C401C0828DFDB01980290009970465E
:1002B00001910090059B049A0799069800F017F9A0
:1002C000D0E700000DFCFFFF0EB5054902910021AB
:1002D00000910A460B46019100F009F903B000BDF8
:1002E00033040000410040020122400AD205090EF9
:1002F00080187F2901DA00207047962903DC9622B6
:10030000511AC8407047963988407047CB0FDB07B9
:10031000490010B5490802460A4307D00A0D0724D0
:100320000903E401090B121B002A01DC002010BDA7
:10033000C900440F0C43C100E018D205801800F03A
:1003400088F810BDF0B51FB40646002082B00546FF
:100350004024019100901BE0019922460F4630464F
:1003600000F098FA049A059B801A994110D3104620
:100370001946224600F07EFA361A8F41019722462E
:1003800001200021009F00F075FA38184D410090BF
:100390002046641E0028DFDC019B00982946324677
:1003A00007B0F0BD0048704784240008F7B582B05C
:1003B000029C00272078641C15460197302802D043
:1003C000002D15D015E020780127641C782804D072
:1003D000582802D0002D09D00BE0002D01D0102D9F
:1003E00007D1002710252078641C02E0082500E0D2
:1003F0000A250026009610E0009901276943081895
:10040000020C294680B2714300908E18380486424F
:1004100001D3012001902078641C294600F05EFA87
:100420000028E9DA0398002805D0002F01D0641EC7
:1004300000E0029C04600198002806D001F068F8F2
:1004400002210160C81E05B0F0BD009930040843C8
:10045000F9E7002904DA401C490001D140084000B6
:10046000704770B40024050C05D11024000402D19B
:10047000002921D01124050E01D100020834050FF6
:1004800001D10001241D850F01D18000A41C00288A
:1004900001DB4000641C002908D020252E1B0D46DE
:1004A000F540A14000D001212943084301061B1B50
:1004B000000ADB1D02D5002070BC7047DB05181850
:1004C00080180029F8DA401C4900F5D170BC4008BA
:1004D0004000704710B5002B08DA0024401C614131
:1004E00092185B411A4301D14008400010BDF0B59D
:1004F0001FB482B005460C0003D0084600F0F0FFA0
:1005000002E000F0EDFF2030024600902146284630
:1005100000F0B0F9049B059A04460F4618431143B6
:10052000084314D0184610431BD0009840210A1AE3
:100530001846059900F0AEF905460E46009A059951
:10054000049800F097F9084305D0012004E0204604
:10055000394607B0F0BD0020C11705430E432C43B8
:10056000374300990E986305401A7905E40A002282
:100570000C43FD0A0A3002D500200146E9E70105D7
:10058000101969410C9C0D9D00196941FFF7A2FFEC
:10059000DFE70000F0B507460846584087B0C00FB7
:1005A000049048000E46590040084908BC1A88418A
:1005B00005D2384631461E4617460B4602465800BD
:1005C000400810434CD0300D039040055900400DB9
:1005D000490D0590401A0290402872DA1803012153
:1005E000000B09050843019004980092002805D0EB
:1005F00001995242002088410092019002984021C6
:100600000A1A0199009800F035F905460C466B4628
:1006100007CB00F050F9C0197141039A0E0D002369
:10062000D71756401A467A40164344D0049A002AF7
:100630002DD0029A012A039A15DC1205C01A9141A5
:1006400001263605001C7141D20F059ED20700938A
:10065000019202962A462346FFF749FF07B0F0BDF4
:1006600038463146FAE71605224A0F46B218C01A34
:10067000B74101210905001C4F4100187F41114677
:1006800018187941E20F10436D19644113E0E20735
:100690006D0815436408C2071443039A0126120526
:1006A000C01A91413605001C7141CE074008304305
:1006B0004908C01851412A462346FFF70BFFCDE7F2
:1006C000FFE7049801224000C117121A00238B4152
:1006D00004983146C417381AA141EEE730B401241A
:1006E000E407634030BC55E730B40124E4076140BF
:1006F00030BC4FE70000E0FFF0B50C465C4085B031
:10070000E40FE40703944C00002664085900944663
:10071000490802460296224321D062460A431ED06F
:100720006200570D4A000E032303550D01240246B3
:100730002C492405781B1B0B360B401823432643FA
:10074000614600901C46501AB44103D30098401CE7
:10075000009002E0921800985B41002803DA002024
:10076000014605B0F0BD0020012109050746864677
:1007700011E064461D46141BB54106D36546521B65
:10078000B341744607430C43A646CD0740084908C9
:10079000284392185B4105460D43EAD110461843A1
:1007A00013D06046194650407140084306D0604659
:1007B000101AB34106D20122002306E000220123D1
:1007C000DB0702E00122D243531000987446010572
:1007D000381C6141029C039D00196941FFF77AFEB4
:1007E000BFE70000FD0300004A0009030123090BD5
:1007F0001B0519430A4B10B5520D9A4202DA00202C
:10080000014610BD064B34339A4203DC9A1A00F0BD
:1008100041F810BD034BD21800F02CF810BD0000B9
:10082000FF030000CDFBFFFF10B5002904DB01240E
:10083000E40740428C412146002B04DB1C46012387
:10084000DB075242A341994200D1904210BD000003
:10085000064C0125064E05E0E36807CC2B430C3C13
:1008600098471034B442F7D3FFF728FC88240008D7
:10087000A824000810B5202A04DB0146203A914044
:10088000002010BD914020239C1A0346E3401943E9
:10089000904010BD10B5202A04DB0846203AD04015
:1008A000002110BD0B46D340D0402024A21A914015
:1008B0000843194610BD10B5202A06DBCB170846A1
:1008C000203A1041C1170B4306E00B461341D040BC
:1008D0002024A21A91400843194610BD3A2800D29C
:1008E0003038202302469A43412A01D31046373834
:1008F000884201D30020C04370471CB5012103206A
:10090000400400F0D5FAA020009001216846017152
:10091000002181710321417169460920C00600F060
:1009200063F9A0210920C00600F0C8F91CBD000031
:10093000F1B584B020210920C00600F0C1F9802162
:100940000920C00600F0BAF90221144800F0B8F9F5
:100950000498FFF7B9FC0546114A124BFFF74CFC0F
:1009600001910090FFF7D2FC03900398FFF7BAFCC7
:100970000446A004800C02902001870C0A4801F074
:10098000C9FA012292030299881801F0C3FA0121E1
:100990008903781801F0BEFA05B0F0BD00040048E4
:1009A00091F2936A9F5E16402820000010B515480A
:1009B00000880121C9030840002821D0114804788B
:1009C000002011490855084600F07AFD0FA000F0FC
:1009D00077FD0D480078002803D10DA000F070FDD0
:1009E0000BE0094800F032F8002803D108A000F01D
:1009F00067FD02E007A000F063FD002001490880C8
:100A000010BD0000080000204C0000200D0A00006E
:100A10003E3E0000636F6D6D616E6473206E6F20EB
:100A2000666F756E64202C20747970652068656C23
:100A30007020746F2073656520636F6D6D616E64E7
:100A400073206C6973740D0A3E3E000070B5044655
:100A50000025204600F05AF8002821D0214611A098
:100A6000FFF774FB002803D110A000F029FD17E068
:100A7000214611A0FFF76AFB002806D110A313A29C
:100A8000154916A000F01CFD0AE021461BA0FFF747
:100A90005DFB002803D11B481B49C86000E001250D
:100AA000284670BD68656C70000000007665727342
:100AB000696F6E3A0D0A000076657273696F6E0099
:100AC0004D617220203920323032300031303A33DB
:100AD000353A323300000000000000206669726D74
:100AE00077617265202573206275696C642061747A
:100AF0002025732025730D0A000000007265626FC7
:100B00006F7400000400FA0500ED00E0FEB5044635
:100B1000002505222DA12046FFF726FB002824D121
:100B20000190601D0090002700260A2201A900986C
:100B3000FFF72AFB074601980078202814D10020EF
:100B400000900A2269460198401CFFF71DFB0646EB
:100B500000980078002807D13046FFF7E9FE1DA075
:100B600000F0AEFC0020FEBD00BF08221BA1204605
:100B7000FFF7FAFA002826D10190204608300090AD
:100B8000002600270A2201A90098FFF7FDFAC6B245
:100B900001980078202815D1002000900A2269468B
:100BA0000198401CFFF7F0FAC7B2009800780028BF
:100BB00008D13946304600F0C7F806A000F080FCA6
:100BC0000020D0E700E002252846CCE773696E6577
:100BD000200000003C4F4B3E0D0A0000736574205E
:100BE000706C6F7400000000F0B50A46002100230D
:100BF000002400BF3DE001258D402B4615681D40B7
:100C00002C469C4234D11579012D02D01579022D44
:100C100016D185684F000326BE40B54385605579DF
:100C20004E00B540866835438560858801268E4034
:100C3000B5438580858896798E40B6B235438580E8
:100C400005684F000326BE40B543056015794E0088
:100C5000B540066835430560C5684F000326BE40B1
:100C6000B543C560D5794E00B540C6683543C5600B
:100C7000491C1029BFD3F0BDF0B5002300244D0757
:100C8000EE0E1546B5402B46CD10AE00054620357C
:100C9000AD594E07F70E0F26BE40B543CE10B60035
:100CA00007462037BD51CD10AE003D46AD591D431E
:100CB0002C46CD10AD003E467451F0BD0185704705
:100CC0008161704700BFFEE71CB50121880500F077
:100CD000EFF8012000900121684601710021817127
:100CE0000321417169461648FFF77EFF0121144830
:100CF000FFF7E4FF01210320400400F0D9F842206F
:100D00000090012168460171002181710321417128
:100D100069460920C006FFF767FF42210920C00687
:100D2000FFF7CEFF0220009069460648FFF75CFF00
:100D300002210448FFF7C4FFFFF7DFFD1CBD0000E0
:100D4000001400480004004870B504460D464021D8
:100D50000920C006FFF7B2FFA107890F084610302F
:100D600000F009F8284600F006F840210920C006E6
:100D7000FFF7A6FF70BD70B5054601241EE00820F0
:100D8000011B28460841C007C00F002805D080215C
:100D90000920C006FFF794FF04E080210920C00667
:100DA000FFF78CFF20210920C006FFF789FF2021D3
:100DB0000920C006FFF782FF601CC4B2082CDEDDEC
:100DC00070BD704700218278002A27D0184A03237B
:100DD0001B02D21803789B109B00D158027892070F
:100DE000D30EFF229A400B4693431946427892074E
:100DF000120E03789B07DB0E9A4011430C4A032323
:100E00001B02D21803789B109B00D1500278D306A6
:100E1000DB0E01229A40064B1A6007E00278D306E7
:100E2000DB0E01229A40024B80331A6070470000AB
:100E300000E100E010B5002819DA1A4A03071B0F79
:100E4000083B9B089B00D2588307DC0EFF23A3407E
:100E50009A438B071B0E8407E40EA3401A43114BE1
:100E60000407240F083CA408A4001A5118E00E4AF5
:100E700003231B02D21883089B00D2588307DC0E81
:100E8000FF23A3409A438B071B0E8407E40EA34065
:100E90001A43054B032424021B198408A4001A5189
:100EA00010BD00001CED00E000E100E07047000014
:100EB000002905D0054A52690243044B5A6104E0F7
:100EC000024A52698243014B5A6170470010024046
:100ED000002905D0054A92690243044B9A6104E057
:100EE000024A92698243014B9A61704700100240A6
:100EF000FEB50446002500260020029001900090D7
:100F00000027704840680C2108400546002D06D097
:100F1000042D07D0082D08D00C2D2CD128E06A48CC
:100F200020602BE06848206028E0664840680F2178
:100F3000890408400646634840680321C903084005
:100F40000290B00C861C0298002803D15F483746F7
:100F500047430BE05B48C06A0007000F401C01904C
:100F600059480199FFF7DCF870430746276005E010
:100F70005748206002E05448206000BF00BF51483D
:100F80004068F021084005462D095248405D009018
:100F900021680098C14061604A4840680721090201
:100FA000084005462D0A4B48405D00906168009856
:100FB000C140A1604348006BFF21013108408842D5
:100FC00002D04548E0600DE03E48406801218903B9
:100FD0000840884203D0A0684008E06002E0A068B2
:100FE0008008E0603748006B40210840402802D06C
:100FF0003A48206102E00120C00320613148006BC3
:1010000010210840102802D02F48606101E02068BC
:1010100060612C48006B8007800F002802D1A06817
:10102000A06119E02748006B8007800F012802D1DA
:101030002068A06110E02348006B8007800F022821
:1010400002D18003A06107E01E48006B8007800F7B
:10105000032801D11C48A0611A48006B0321090430
:101060000840002802D1A068E06120E01548006B2C
:1010700003210904084001210904884202D12068A3
:10108000E06114E00F48006B0321090408400121CE
:101090004904884202D18010E06108E00948006BF1
:1010A000032109040840884201D10748E06105484E
:1010B000006B80210840802802D00548206200E0B3
:1010C0002762FEBD0010024000127A0000093D00B8
:1010D000006CDC0210000020809FD5001280000010
:1010E000704700000CB500200190009011201D49B0
:1010F00008601D4840681C494860084640684860D0
:10110000084640687B21C903884317494860084660
:1011100040680521C904084313494860084600682F
:101120000121090608431049086000BF0E48006805
:101130000121490608400028F8D00B484068800883
:101140008000094948600846406802210843064972
:10115000486000BF044840680C2108400828F9D1C5
:101160000CBD000000200240001002400148006851
:10117000704700000C00002002480068401C014934
:10118000086070470C00002010B51B480068012162
:10119000084319490860084640681849084016493C
:1011A0004860084600681649084013490860084628
:1011B00000680121890488430F4908600846406897
:1011C0003F21090488430C4948600846C06A000969
:1011D0000001C8620846006BFF215431884306496C
:1011E00008630846406B4008400048630020886060
:1011F000FFF778FF10BD0000001002400CB8FF0898
:10120000FFFFF6FE10B50821354800F088F80128E8
:1012100006D10821324800F06BF8314800F046F959
:1012200001212F4800F07BF8012806D101212C482C
:1012300000F05EF82A4800F039F90221284800F051
:101240006EF8012806D10221254800F051F8244803
:1012500000F02CF92349224800F06BF800283DD01B
:1012600020491F4800F046F81D4800F01FF9C4B29D
:101270001D4800880121C903084000282ED11A48C2
:1012800000884910084000280DD00A2C03D0002007
:101290001549088022E0144800880121C903084349
:1012A000114908801AE00D2C07D10F480088012150
:1012B000890308430C49088010E00B48008880042B
:1012C000800C0A490C5408480088401C06490880D4
:1012D00008460088632801DD0020088010BD00005A
:1012E0000038014005010500080000204C000020E6
:1012F0000162704710B5002300220B0C01249C40B2
:101300002246026210BD002904D0026801231A435C
:10131000026003E002685208520002607047024611
:101320000020D3690B40002B01D0012000E00020F9
:10133000704770B502460B460024002100250020AE
:101340001E04350ED9B201268E403146012D02D140
:101350001668314006E0022D02D15668314001E0A6
:10136000966831401C0C0126A6403446D6693440AC
:10137000002903D0002C01D0012000E0002070BD26
:10138000F8B50346002400260096002500201846E4
:101390000E04340ECEB200960127009EB7403D46A3
:1013A000022C01D1001D02E0032C00D10830002ADC
:1013B00003D006682E43066002E00668AE4306606E
:1013C000F8BD0000F0B58BB004460D4600270020A4
:1013D0000A900026206840084000206066680321CB
:1013E0000903304688430646A868064366602668B7
:1013F0002A480640E96868680843296908430643A3
:101400002660A668032109023046884306466869BB
:101410000643A66001A8FFF76BFD2148844202D174
:1014200007980A9007E01F48844202D108980A9062
:1014300001E003980A9020680121C90308400028B0
:101440000CD029680A9A5000FEF76AFE0746296800
:101450000A9A5000FEF764FE0E4609E029680A98D1
:10146000FEF75EFE074629680A98FEF759FE0E460B
:1014700028684008B04200D87F1C20680121C903B9
:101480000840002806D03807460F3846064908406D
:1014900030430746A7810BB0F0BD0000F3E9FFFF22
:1014A0000038014000440040F0FF00000146888CF5
:1014B000C005C00D7047CA05D20D028570470000F7
:1014C0000FB410B503A9044B044A029800F0EEF8DB
:1014D00010BC08BC04B018473D1E000820000020C6
:1014E0002021020C01D010211046020A01D0104622
:1014F0000839020901D01046091F820801D01046A0
:10150000891E420801D0881E7047081A70470000E3
:10151000004870472400002002E008C8121F08C1DC
:10152000002AFAD170477047002001E001C1121F64
:10153000002AFBD170470000F0B51FB486B00998AF
:10154000089A030D0021024314D05148514A18183B
:10155000504305141198012810981AD0281A401CDD
:1015600000264D4F4D49009601910490002812DA53
:10157000444211E01198012449A3012801D1109897
:10158000C1430698119A84600360C26041600BB049
:10159000F0BD4042E4E70446210500203F4A001C1C
:1015A00051410391029012E0E00707D032463B46DA
:1015B00001990098FEF720FE0191009032463B46CB
:1015C00010461946FEF718FE06460F466410002C1A
:1015D000EAD10498039B0028029A0999089806DA30
:1015E000FEF70AFE019B009AFEF706FE05E0FFF7F4
:1015F00083F8019B009AFFF77FF804460E4600220D
:10160000284BFFF711F903D80020C043014607E03B
:101610000022254B20463146FEF7BCFFFFF7E4F8D9
:10162000102409E0002C0ADB0A220023FEF78AFEC0
:10163000079B30321A55641E02460A43F2D111222A
:10164000641C079B121B1C19119B012B03D0012347
:1016500008430ED10AE0084304D011201090002066
:10166000119077E71098151A6D1E0BE010988242C2
:1016700002DD00236D1C03E0824201DA00236D1EAF
:10168000002BEED0069811998260C16030C07EE7D1
:1016900001FCFFFF104D0000000014400000F03F6F
:1016A000300000000000F0430000E03FFFB597B0BD
:1016B0000646002518E2252877D100242746FD4953
:1016C000049400E00443761C32780120203A9040D4
:1016D0000842F7D130782A280ED00222307801460D
:1016E0003039092916D804990A235943303940184A
:1016F0001443761C0490F1E7189802C804911890DE
:10170000002904DA012040030443484204900220E7
:101710000443761C30782E2814D1042004437078BA
:10172000761C2A2809D11898761C80C8189009E0E0
:101730000A214F43303FC719761C307801463039B3
:101740000929F5D930786C2810D006DC4C281AD03D
:1017500068280ED06A2817D104E0742813D07A289C
:1017600012D110E00120400504430CE001210905DD
:1017700001E0032109050C437178814203D1012066
:1017800000052418761C761C3078119066280BD042
:1017900013DC58287DD009DC00287BD04528F6D002
:1017A0004628F4D047281AD1A5E118E0632835D09F
:1017B000642870D0652812D19DE170286CD008DCB7
:1017C0006728F1D069287BD06E280DD06F2806D10C
:1017D000BAE073282ED0752871D0782859D01A9A7B
:1017E000199990476D1C7EE16002400F022809D0D4
:1017F00003280DD00428189801680DD00D60001D35
:10180000189070E11898EA1701680D604A60F6E7D1
:10181000189801680D80F2E70D70F0E718986A4695
:1018200001781172001D18900020507202A80090DB
:10183000012005E0189802C8189000200091C043CC
:1018400061070DD5002101E00199491C0191B942C0
:1018500012DA8142F8DB009A515C0029F4D10BE0E6
:10186000002101E00199491C01918142FADB019AB2
:101870000099895C0029F5D1019904981A9B471AAF
:1018800021463846199A00F097FA019940194518EF
:101890000BE04FE02CE113E04EE000980099007857
:1018A000491C00911A9A199990470198401E01907D
:1018B000401CF2D1214638461A9B199A10E137E0B4
:1018C0000A200021009001916002410F022907D0F7
:1018D000189A01CA1892C2179446032908D00AE040
:1018E0001898C01DC108C90005C91891944607E0A1
:1018F00000B2C2179446042902D140B2C1178C46E7
:1019000000226146944506DA0A4600214042914190
:101910008C462D2102E0210504D52B216A46117346
:10192000012103E0E10701D02021F7E7029155E012
:101930000A200AE0102008E0102000900021042076
:1019400004430191082703E0082000210191009041
:101950006002410F022907D0189A01CA189200228A
:101960009446032908D008E01898C01DC108C90092
:1019700005C91891944603E080B2042900D1C0B291
:1019800000210291210729D51199702906D0009ACA
:101990001021019B4A401A4305D00EE040216A46BF
:1019A0001173012108E06146014306D030216A46E7
:1019B00011731199517302210291009A0821019B20
:1019C0004A401A430AD16146014301D1610705D556
:1019D00030216A46117301217F1E02911199582905
:1019E00004D035A10E910DA90D910DE037A1F9E7B5
:1019F0006146019B009AFEF7A5FC0E9B8C469B5C02
:101A00000D9A521E0D92137061460143F0D10D984C
:101A100005A9081A20300190600703D501200004B1
:101A2000844300E001270198874201DD381A00E075
:101A30000020019900904118029809180498401A52
:101A40000490E00306D421461A9B199A049800F0EA
:101A5000B3F94519002706E003A81A9AC05D199941
:101A600090476D1C7F1C02988742F5DBE0030CD584
:101A700021461A9B199A049800F09EF9451904E032
:101A80001A9A3020199990476D1C0099481E0090B1
:101A90000029F5DC08E00D980D990078491C0D919E
:101AA0001A9A199990476D1C0199481E01900029B6
:101AB000F1DC63E109280100303132333435363747
:101AC000383961626364656600000000303132338A
:101AD000343536373839414243444546000000002A
:101AE00000F05AF94519761C3078002800D0E2E55C
:101AF00028461BB0F0BD600700D406271898C01D0B
:101B0000C108C90048680A680831C30FDB0718918B
:101B1000190001D09CA108E0210501D59BA104E09A
:101B2000E10701D09AA100E09AA1430011985B0857
:101B3000109165280CD006DC452809D046281DD018
:101B4000472841D141E0662818D067283CD13CE0C5
:101B50000021112F01DB112000E0781C0191009081
:101B600008A911A8FFF7E8FC139905910021119A23
:101B700015927F1C12980197009150E00120C00738
:101B800003900120019008A9009711A8FFF7D4FC49
:101B9000139A149905920022119B009212981593A2
:101BA000059A0192002901D0104602E0791C4018E4
:101BB0000190381A01D5019804E04042401E00907F
:101BC000781C0190C01B029043E0012F00DA01272E
:101BD0000021112F01DD112000E038460191009015
:101BE00008A911A8FFF7A8FC13990591119A0021E3
:101BF000129815920091019721070CD40599B942CA
:101C000001DB019900E00191012904DD159A491ECB
:101C1000515C302906D0B84201DA011D05DA0121F4
:101C2000029115E00199491EEDE7002805DC0099B5
:101C3000411800910199091A03E0019A411C91424F
:101C400000DD01910099401A401C02900120C0075C
:101C50000390200706D402990198814202DB0020FC
:101C6000C043029000206946C87707AF012103985E
:101C70000337C907884224D0022011902B201290EC
:101C8000039800280CDA404203902D20129007E0C0
:101C90000A210398FEF744FA30317F1E0390397011
:101CA0001199481E11900029F2DC03980028EFD109
:101CB000791E129808703078202108404530BF1EE8
:101CC000387006A8C01BC01D03901098007800282B
:101CD00000D00120019941180298C01709180398F3
:101CE00009180498401A401E0490E00306D42146C7
:101CF0001A9B199A049800F05FF84519109800781B
:101D0000002803D01A9A199990476D1CE00324D536
:101D100021461A9B199A049800F04EF845191CE0C8
:101D20000098002807DB00990598884203DD159884
:101D3000405C199901E0199930201A9A904700984F
:101D40006D1C401C00900298401E0290002804D197
:101D50001A9A2E20199990476D1C0199481E0190DE
:101D60000029DDDC05E038781A9A7F1C1999904724
:101D70006D1C0399481E03900029F4DC21461A9B30
:101D8000199A0498ACE600002D0000002B0000001A
:101D90002000000000000000F8B5044600251E46A3
:101DA0001746880404D405E039462020B0476D1C4E
:101DB000641EF9D52846F8BDFFB50446002581B05C
:101DC0001E46C80301D5302700E02027880404D52B
:101DD00005E038460399B0476D1C641EF9D52846C6
:101DE00005B0F0BD10B504467D21C9006143084629
:101DF00000F002F810BD000070B5034600BF0E4EA3
:101E0000756930265E43344600220B4EB1690FE0FF
:101E1000094EB06988420BD0884202D20E1AB2181D
:101E200002E02E1A7618B2180146A24200D300E052
:101E3000EEE700BF70BD000000E000E070B50446B2
:101E40000D46E1B20548FFF736FB00BF802103488D
:101E5000FFF765FA0028F9D0204670BD0038014030
:101E60002248FFF745F8214948687D21C900FEF75F
:101E700057F90446601E1E49884200D90CE0601ED6
:101E80001C4948610321081FFEF7D4FF00201949AF
:101E900088610720086100BF4B20C00100F0E0F915
:101EA00000F060FA6420FFF79DFFFEF70DFF12A01F
:101EB000FFF706FBFFF75AF9054616E0FFF756F95C
:101EC000441B002C01DB204600E06042FF215F3113
:101ED000884208DDFFF74AF905460D48808A01214E
:101EE00048400B498882FEF761FDE7E728000020A3
:101EF000FFFFFF0000E000E0636F6E74726F6C6CB8
:101F0000657220696E6974206F6B0D0A3E3E000099
:101F10000014004810B504460221D048FEF7CEFE5A
:101F20000120C0032040002805D080210920C006E0
:101F3000FEF7C6FE04E080210920C006FEF7BEFEC3
:101F400020210920C006FEF7B9FE20210920C00685
:101F5000FEF7B6FE012080032040002805D0802136
:101F60000920C006FEF7ACFE04E080210920C0066F
:101F7000FEF7A4FE20210920C006FEF79FFE2021C7
:101F80000920C006FEF79CFE0120400320400028E7
:101F900005D080210920C006FEF792FE04E08021D2
:101FA0000920C006FEF78AFE20210920C006FEF7A0
:101FB00085FE20210920C006FEF782FE01200003D5
:101FC0002040002805D080210920C006FEF778FEB9
:101FD00004E080210920C006FEF770FE20210920C0
:101FE000C006FEF76BFE20210920C006FEF768FE42
:101FF0000120C0022040002805D080210920C00611
:10200000FEF75EFE04E080210920C006FEF756FEC2
:1020100020210920C006FEF751FE20210920C0061C
:10202000FEF74EFE012080022040002805D08021CE
:102030000920C006FEF744FE04E080210920C00606
:10204000FEF73CFE20210920C006FEF737FE2021C6
:102050000920C006FEF734FE01204002204000287F
:1020600005D080210920C006FEF72AFE04E0802169
:102070000920C006FEF722FE20210920C006FEF737
:102080001DFE20210920C006FEF71AFEFF200130A8
:102090002040002805D080210920C006FEF710FE50
:1020A00004E080210920C006FEF708FE2021092057
:1020B000C006FEF703FE20210920C006FEF700FE41
:1020C00080202040002805D080210920C006FEF78E
:1020D000F7FD04E080210920C006FEF7EFFD202176
:1020E0000920C006FEF7EAFD20210920C006FEF700
:1020F000E7FD40202040002805D080210920C006AF
:10210000FEF7DEFD04E080210920C006FEF7D6FDC3
:1021100020210920C006FEF7D1FD20210920C0069C
:10212000FEF7CEFD20202040002805D08021092088
:10213000C006FEF7C5FD04E080210920C006FEF7B9
:10214000BDFD20210920C006FEF7B8FD2021092091
:10215000C006FEF7B5FD10202040002805D08021E4
:102160000920C006FEF7ACFD04E080210920C0066E
:10217000FEF7A4FD20210920C006FEF79FFD2021C7
:102180000920C006FEF79CFD08202040002805D04D
:1021900080210920C006FEF793FD04E0802109207C
:1021A000C006FEF78BFD20210920C006FEF786FD44
:1021B00020210920C006FEF783FD042020400028CE
:1021C00005D080210920C006FEF77AFD04E08021B9
:1021D0000920C006FEF772FD20210920C006FEF787
:1021E0006DFD20210920C006FEF76AFD0220204077
:1021F000002805D080210920C006FEF761FD04E01B
:1022000080210920C006FEF759FD20210920C006C3
:10221000FEF754FD20210920C006FEF751FDE0071E
:10222000C00F002805D080210920C006FEF748FD18
:1022300004E080210920C006FEF740FD202109208E
:10224000C006FEF73BFD20210920C006FEF738FD41
:1022500002210248FEF734FD10BD000000040048D2
:1022600010B58AB0044601214804FEF721FE012181
:102270008803FEF72DFE01220921C806FEF7FCFCAB
:1022800001220A210920C006FEF7F6FC03204002C5
:102290000790022108A80170002181700121C170FE
:1022A0000321417007A90920C006FEF79DFC1B21F0
:1022B00008A80171022141710121817109A8FEF76D
:1022C00081FD0194002002900390049006900C2060
:1022D000059001A91B48FFF775F81B491948FFF73E
:1022E00007F80022FF2109311648FFF749F80022BC
:1022F00016491448FFF744F8002215491148FFF722
:102300003FF8012213490F48FFF73AF8002212491B
:102310000C48FFF735F8002210490A48FFF730F85B
:1023200000220F490748FFF72BF80022032109027A
:102330000448FFF725F801210248FEF7E4FF0AB040
:1023400010BD000000380140FF0300000701070036
:10235000060106000501050004010400060208004C
:102360000A03090010B508A0FFF7AAF809A0FFF7B3
:10237000A7F80FA0FFF7A4F811A314A2164917A0FD
:10238000FFF79EF810BD00000D0A205C207C202F76
:10239000200D0A002D20494E43202D2020202020F2
:1023A0004155544F4D4154494F4E0D0A0000000015
:1023B000202F207C205C20202020200D0A000000FF
:1023C0004D617220203920323032300031303A33C2
:1023D000353A323300000000000000200D0A666923
:1023E000726D77617265202573206275696C642057
:1023F00061742025732025730D0A0D0A000000006A
:102400000040404040404040404041414141414007
:1024100040404040404040404040404040404040BC
:10242000400502020202020202020202020202024B
:102430000220202020202020202020020202020250
:1024400002029090909090901010101010101010A8
:1024500010101010101010101010101002020202B4
:1024600002028888888888880808080808080808F8
:1024700008080808080808080808080802020202F4
:102480004000000001240008A824000800000020EB
:102490002800000018150008D0240008280000209B
:1024A0008804000028150008766572312E3030004F
:1024B0000000000000000000000000000102030412
:1024C00001020304060708090000000000000000E4
:04000005080000B53A
:00000001FF
