:020000040800F2
:10000000C8040020C9000008CF05000871050008D9
:1000100000000000000000000000000000000000E0
:10002000000000000000000000000000ED080008D3
:100030000000000000000000B90600088509000863
:10004000F900000800000000F9000008F9000008AD
:10005000F9000008F9000008F9000008F90000089C
:1000600000000000F9000008F9000008F90000088D
:10007000F9000008F9000008F9000008000000007D
:10008000F90000080000000000000000F90000086E
:10009000F9000008F9000008F9000008F90000085C
:1000A000F9000008F9000008F9000008110A00082A
:1000B000F90000080348854600F056F8004800475C
:1000C000590E0008C80400200C4880F308880C482A
:1000D0000168090E0B4A914205D10B480B4901609A
:1000E0000B480C4901600C4880470C480047FEE76C
:1000F000FEE7FEE7FEE7FEE7FEE70000C80400209B
:10010000040000001F000000181002400100000061
:10011000000001400000000095090008B50000083B
:1001200030B50B46014600202022012409E00D468F
:10013000D5409D4205D31D469540491B2546954017
:1001400040191546521E002DF1DC30BD10B50022BD
:1001500000E0521C835C8C5CA34201D1002BF8D1DF
:10016000D8B2E1B2401A10BD064C0125064E05E09A
:10017000E36807CC2B430C3C98471034B442F7D3C8
:10018000FFF79CFFE81000080811000800B50146C1
:1001900000F0F2FB074B1B68C21A002A01DB104675
:1001A00000E05042884203DD00F0E6FB014A1060A7
:1001B00000BD00001800002010B512480088012181
:1001C000C903084000281BD00E48047800200E49BF
:1001D000085508460078002803D10CA000F076FDF1
:1001E0000BE0094800F030F8002803D107A000F028
:1001F0006DFD02E006A000F069FD002001490880C5
:1002000010BD0000100000203C000020405F4000B6
:100210000D0A636F6D6D616E6473206E6F20666F83
:10022000756E64202C20747970652068656C702070
:10023000746F2073656520636F6D6D616E647320EC
:100240006C6973740D0A000070B5044600252046E1
:1002500000F066F8002826D0214614A0FFF776FFAC
:10026000002808D113A000F031FD15A000F02EFDEC
:1002700000F080F917E0214614A0FFF767FF00287F
:1002800006D114A316A2194919A000F01FFD0AE017
:1002900021461FA0FFF75AFF002803D11E481F491F
:1002A000C86000E00125284670BD000068656C70DC
:1002B0000000000076657273696F6E0D0A00000021
:1002C0007265626F6F743A0D0A0000007665727392
:1002D000696F6E004A756C20313420323032300044
:1002E00030393A34363A353400000000200000201E
:1002F0006669726D77617265202573206275696C1D
:10030000642061742025732025730D0A000000000D
:100310007265626F6F7400000400FA0500ED00E082
:1003200070B50446002541A12046FFF70FFF0028C5
:1003300009D101210920C00600F016F93EA000F005
:10034000C5FC002070BD3EA12046FFF7FFFE00283F
:1003500009D101210920C00600F008F936A000F0FB
:10036000B5FC0020EEE739A12046FFF7EFFE00289C
:1003700009D102210920C00600F0F6F82EA000F0F5
:10038000A5FC0020DEE734A12046FFF7DFFE0028B1
:1003900009D102210920C00600F0E8F826A000F0EB
:1003A00095FC0020CEE72FA12046FFF7CFFE0028C6
:1003B00009D104210920C00600F0D6F81EA000F0E3
:1003C00085FC0020BEE72AA12046FFF7BFFE0028DB
:1003D00009D104210920C00600F0C8F816A000F0D9
:1003E00075FC0020AEE725A12046FFF7AFFE0028F0
:1003F00009D108210920C00600F0B6F80EA000F0CF
:1004000065FC00209EE720A12046FFF79FFE002804
:1004100009D108210920C00600F0A8F806A000F0C4
:1004200055FC00208EE7022528468BE77772697419
:1004300065446F2031203000706173730D0A000035
:100440007772697465446F20312031007772697466
:1004500065446F20322030007772697465446F20E4
:10046000322031007772697465446F203320300088
:100470007772697465446F20332031007772697434
:1004800065446F20342030007772697465446F20B2
:1004900034203100F0B50A4600210023002400BFBB
:1004A0003DE001258D402B4615681D402C469C42A1
:1004B00034D11579012D02D01579022D16D1856818
:1004C0004F000326BE40B543856055794E00B540C8
:1004D000866835438560858801268E40B5438580D2
:1004E000858896798E40B6B23543858005684F0081
:1004F0000326BE40B543056015794E00B540066839
:1005000035430560C5684F000326BE40B543C5604E
:10051000D5794E00B540C6683543C560491C1029E1
:10052000BFD3F0BDF0B5002300244D07EE0E1546F5
:10053000B5402B46CD10AE0005462035AD594E07CF
:10054000F70E0F26BE40B543CE10B6000746203743
:10055000BD51CD10AE003D46AD591D432C46CD10CA
:10056000AD003E467451F0BD018570478161704712
:1005700000BFFEE710B502A000F0A8FB10BD000010
:100580007772697465446F203C696E6465783E20BB
:100590003C7374617475733E0D0A00001CB5012133
:1005A000480400F08BF82F2000900121684601716B
:1005B000002181710321417169460920C006FFF7BE
:1005C00069FF2F210920C006FFF7CEFF1CBD704731
:1005D00000218278002A27D0184A03231B02D21850
:1005E00003789B109B00D15802789207D30EFF220C
:1005F0009A400B469343194642789207120E0378AD
:100600009B07DB0E9A4011430C4A03231B02D218AE
:1006100003789B109B00D1500278D306DB0E012299
:100620009A40064B1A6007E00278D306DB0E0122DF
:100630009A40024B80331A607047000000E100E0EE
:1006400010B5002819DA1A4A03071B0F083B9B084C
:100650009B00D2588307DC0EFF23A3409A438B07ED
:100660001B0E8407E40EA3401A43114B0407240F0A
:10067000083CA408A4001A5118E00E4A03231B02E8
:10068000D21883089B00D2588307DC0EFF23A340B7
:100690009A438B071B0E8407E40EA3401A43054BB5
:1006A000032424021B198408A4001A5110BD000061
:1006B0001CED00E000E100E070470000002905D0DB
:1006C000054A52690243044B5A6104E0024A5269E6
:1006D0008243014B5A61704700100240002905D047
:1006E000054A92690243044B9A6104E0024A926906
:1006F0008243014B9A61704700100240FEB50446E8
:1007000000250026002002900190009000277048EC
:1007100040680C2108400546002D06D0042D07D066
:10072000082D08D00C2D2CD128E06A4820602BE041
:100730006848206028E0664840680F218904084026
:100740000646634840680321C90308400290B00C84
:10075000861C0298002803D15F48374647430BE0C8
:100760005B48C06A0007000F401C0190594801997E
:10077000FFF7D6FC70430746276005E05748206026
:1007800002E05448206000BF00BF51484068F0219B
:10079000084005462D095248405D009021680098A8
:1007A000C14061604A484068072109020840054687
:1007B0002D0A4B48405D009061680098C140A160DF
:1007C0004348006BFF2101310840884202D0454870
:1007D000E0600DE03E4840680121890308408842FE
:1007E00003D0A0684008E06002E0A0688008E060F4
:1007F0003748006B40210840402802D03A48206129
:1008000002E00120C00320613148006B1021084044
:10081000102802D02F48606101E0206860612C48F8
:10082000006B8007800F002802D1A068A06119E04A
:100830002748006B8007800F012802D12068A06143
:1008400010E02348006B8007800F022802D180034C
:10085000A06107E01E48006B8007800F032801D1CC
:100860001C48A0611A48006B0321090408400028B5
:1008700002D1A068E06120E01548006B0321090463
:10088000084001210904884202D12068E06114E097
:100890000F48006B032109040840012149048842E4
:1008A00002D18010E06108E00948006B03210904CF
:1008B0000840884201D10748E0610548006B80216B
:1008C0000840802802D00548206200E02762FEBD73
:1008D0000010024000127A0000093D00006CDC02AA
:1008E00000000020809FD5001280000070470000AB
:1008F0000CB500200190009011201D4908601D4892
:1009000040681C494860084640684860084640689E
:100910007B21C90388431749486008464068052180
:10092000C9040843134948600846006801210906C4
:1009300008431049086000BF0E48006801214906BD
:1009400008400028F8D00B4840688008800009491A
:10095000486008464068022108430649486000BFD5
:10096000044840680C2108400828F9D10CBD00005B
:10097000002002400010024001480068704700005B
:100980001400002002480068401C014908607047BC
:100990001400002010B51B480068012108431949C4
:1009A00008600846406818490840164948600846EB
:1009B000006816490840134908600846006801218C
:1009C000890488430F490860084640683F210904AC
:1009D00088430C4948600846C06A00090001C862A3
:1009E0000846006BFF2154318843064908630846D6
:1009F000406B40084000486300208860FFF778FFA4
:100A000010BD0000001002400CB8FF08FFFFF6FE0A
:100A100010B50821354800F088F8012806D10821D2
:100A2000324800F06BF8314800F046F901212F48B8
:100A300000F07BF8012806D101212C4800F05EF877
:100A40002A4800F039F90221284800F06EF8012800
:100A500006D10221254800F051F8244800F02CF975
:100A60002349224800F06BF800283DD020491F4858
:100A700000F046F81D4800F01FF9C4B21D48008878
:100A80000121C903084000282ED11A4800884910C6
:100A9000084000280DD00A2C03D0002015490880FA
:100AA00022E0144800880121C90308431149088045
:100AB0001AE00D2C07D10F48008801218903084353
:100AC0000C49088010E00B4800888004800C0A491B
:100AD0000C5408480088401C0649088008460088D5
:100AE000632801DD0020088010BD000000380140AF
:100AF00005010500100000203C0000200162704745
:100B000010B5002300220B0C01249C4022460262F7
:100B100010BD002904D0026801231A43026003E0DB
:100B20000268520852000260704702460020D369F2
:100B30000B40002B01D0012000E00020704770B571
:100B400002460B4600240021002500201E04350E1D
:100B5000D9B201268E403146012D02D116683140AE
:100B600006E0022D02D15668314001E0966831401E
:100B70001C0C0126A6403446D6693440002903D017
:100B8000002C01D0012000E0002070BDF8B5034624
:100B90000024002600960025002018460E04340E7E
:100BA000CEB200960127009EB7403D46022C01D1EF
:100BB000001D02E0032C00D10830002A03D0066893
:100BC0002E43066002E00668AE430660F8BD0000F2
:100BD000F0B58BB004460D46002700200A90002691
:100BE0002068400840002060666803210903304601
:100BF00088430646A8680643666026682A48064079
:100C0000E968686808432969084306432660A668BE
:100C10000321090230468843064668690643A660F8
:100C200001A8FFF76BFD2148844202D107980A9082
:100C300007E01F48844202D108980A9001E0039817
:100C40000A9020680121C903084000280CD02968B7
:100C50000A9A5000FFF764FA074629680A9A50007A
:100C6000FFF75EFA0E4609E029680A98FFF758FA7E
:100C7000074629680A98FFF753FA0E462868400885
:100C8000B04200D87F1C20680121C9030840002819
:100C900006D03807460F3846064908403043074615
:100CA000A7810BB0F0BD0000F3E9FFFF0038014061
:100CB00000440040F0FF00000146888CC005C00DD4
:100CC0007047CA05D20D0285704700000FB410B5F9
:100CD00003A9044B044A029800F017F810BC08BCA2
:100CE00004B01847350E00083800002002E008C89C
:100CF000121F08C1002AFAD170477047002001E096
:100D000001C1121F002AFBD17047FFB581B0054613
:100D1000002706E025280AD0049A039990476D1C05
:100D20007F1C28780028F5D1384605B0F0BD002298
:100D300069786D1C10462E2913D1697804226D1C28
:100D40002A2909D102996D1C01C9029109E00A23DF
:100D50005843303808186D1C29780B46303B092B56
:100D6000F5D92B78002BDFD0632B07D0732B10D055
:100D7000049A1846039990477F1C2DE002996C460F
:100D80000B782370091D0291002161706E460121CC
:100D900004E0029940C902910021C94352070AD5D3
:100DA000002400E0641C84420DDA8C42FADB325DE0
:100DB000002AF7D107E0002400E0641C8C42FCDB31
:100DC000305D0028F9D13F1904E03078049A761C90
:100DD00003999047641EF8D26D1CA2E710B5044633
:100DE0007D21C9006143084600F002F810BD0000F3
:100DF00070B5034600BF0E4E756930265E4334461B
:100E000000220B4EB1690FE0094EB06988420BD049
:100E1000884202D20E1AB21802E02E1A7618B218C0
:100E20000146A24200D300E0EEE700BF70BD000023
:100E300000E000E070B504460D46E1B20548FFF75A
:100E400040FF00BF80210348FFF76FFE0028F9D064
:100E5000204670BD003801402548FFF74FFC24496B
:100E600048687D21C900FFF75BF90446601E2149EF
:100E7000884200D90CE0601E1F4948610321081F09
:100E8000FFF7DEFB00201C4988610720086100BFD6
:100E90001420FFF7A3FFE120400200F02FF800F03C
:100EA000AFF8FFF77BFB1420FFF798FFFFF764FD17
:100EB00005461BE0FFF760FD441B002C01DB2046CC
:100EC00000E06042FF215F3188420ADDFFF754FDF8
:100ED00005460920C006808A202148400921C9060C
:100EE0008882FFF769F90A20FFF750F9E2E700006E
:100EF000A0000020FFFFFF0000E000E010B58AB076
:100F0000044601214804FFF7D9FB01218803FFF7BC
:100F1000E5FB01220921C806FFF704FB01220A2193
:100F20000920C006FFF7FEFA0320400207900221C5
:100F300008A80170002181700121C1700321417056
:100F400007A90920C006FFF7A5FA1B2108A801710F
:100F5000022141710121817109A8FFF739FB019438
:100F6000002002900390049006900C20059001A9A7
:100F70001B48FFF72DFE1B491948FFF7BFFD002254
:100F8000FF2109311648FFF701FE002216491448D7
:100F9000FFF7FCFD002215491148FFF7F7FD01227C
:100FA00013490F48FFF7F2FD002212490C48FFF7E2
:100FB000EDFD002210490A48FFF7E8FD00220F4925
:100FC0000748FFF7E3FD0022032109020448FFF769
:100FD000DDFD01210248FFF79CFD0AB010BD0000B5
:100FE00000380140FF03000007010700060106006A
:100FF0000501050004010400060208000A030900B7
:1010000010B50BA0FFF762FE0CA0FFF75FFE12A069
:10101000FFF75CFE14A0FFF759FE19A31BA21E499F
:101020001EA0FFF753FE26A0FFF750FE10BD0000E4
:101030000D0A205C207C202F200D0A002D20494E17
:1010400043202D20202020204155544F4D4154490C
:101050004F4E0D0A00000000202F207C205C202035
:101060002020200D0A0000000D0A636F6E74726F5D
:101070006C6C657220696E6974206F6B0D0A0000DC
:101080004A756C20313420323032300030393A34F5
:10109000363A353400000000200000200D0A666951
:1010A000726D77617265202573206275696C6420AA
:1010B00061742025732025730D0A0D0A00000000BD
:1010C0000D0A796F752063616E20747970652063F5
:1010D0006F6D6D616E647320656E642077697468EE
:1010E000205C720D0A0000000811000800000020BA
:1010F0003C000000EC0C0008441100083C000020FB
:101100008C040000FC0C0008000000000102030435
:1011100001020304060708090000000000000000A7
:101120000000000000000000494E432D4D42564291
:10113000555352454C41592D566572312E300000A1
:0411400000000000AB
:04000005080000B53A
:00000001FF
