:020000040800F2
:100000008806002045010008E52D0008F3260008B9
:10001000752B0008090D00085B5500080000000062
:100020000000000000000000000000000533000890
:1000300065230008000000006D2E00080D3F000839
:100040005F0100085F0100085F0100085F01000810
:100050005F0100085F0100085F0100085F01000800
:10006000692300085F0100085F0100085F010008C4
:100070005F0100085F0100085F0100085F010008E0
:100080005F0100085F0100085F0100085F010008D0
:100090005F0100085F0100085F0100085F010008C0
:1000A0005F0100085F0100085F0100085F010008B0
:1000B0005F0100085F0100085F0100085F010008A0
:1000C0005F0100085F0100085F0100085F01000890
:1000D0005F010008815100085F01000849520008D3
:1000E0005F0100085F0100085F0100085F01000870
:1000F0005F0100085F0100085F0100085F01000860
:100100005F0100085F0100085F0100085F0100084F
:100110005F0100085F0100085F0100085F0100083F
:100120005F0100085F0100085F0100085F0100082F
:10013000DFF80CD000F0E8FB004800473D64000801
:10014000880600200648804706480047FEE7FEE78D
:10015000FEE7FEE7FEE7FEE7FEE7FEE7FEE7FEE777
:10016000493F00083101000840EA01039B0703D022
:1001700009E008C9121F08C0042AFAD203E011F8E6
:10018000013B00F8013B521EF9D27047421C10F8A7
:10019000011B0029FBD1801A704710B5002200E036
:1001A000521C835C8C5CA34201D1002BF8D1D8B2E5
:1001B000E1B2401A10BD30B505460020034600E00C
:1001C0005B1C934205D2EC5CC85C201A01D1002C68
:1001D000F6D130BD2DE9F04791460F4680460446E2
:1001E000002614F8015B2DB100F0D0F90068405DE5
:1001F000C007F6D12B2D02D02D2D18D0641E4A46F3
:100200003946204600F0C6F927B13968A14201D12C
:10021000C7F8008071054FF002040BD5404200285A
:1002200003DD05F03DFA0460A007BDE8F08746F461
:100230008066E4E70028F8DA05F032FA04606FF02F
:100240000040F2E72DE9FE4F81EA030404F0004488
:1002500021F0004100944FF0000B23F0004350EADE
:1002600001045ED052EA03045BD0C3F30A54C1F325
:100270000A552C44A4F2F3340194A0FB0254C1F3B8
:10028000130141F48011C3F3130343F4801301FB02
:10029000024400FB034E840A970A44EA815447EA69
:1002A0008357A4FB076802958D0A05FB07854FEA73
:1002B000932C04FB0C542705029D4FEA065847EA8D
:1002C0001637B5EB08056EEB070C870E920E47EA62
:1002D000811742EA8312A7FB0201B6EB0B0164EB24
:1002E00000042B0D43EA0C335E1844EB1C50DA4635
:1002F0005146E7FB0201C5F313044FEA0B3343EA0F
:1003000014534FEA0432019C43EA0603A4F10C049F
:100310000294009CCDE900B400F0D1F903B0BDE82F
:10032000F08F00200146F9E72DE9F04D81EA030442
:1003300004F0004B21F0004514464FF0000A23F072
:10034000004150EA050220D054EA01021DD0C5F355
:100350000A570246C5F31303C1F31300C1F30A564B
:1003600040F4801543F48013A7EB0608101BD64613
:1003700008F2FD3873EB050002D308F1010801E033
:1003800092185B41B8F1000F03DA00200146BDE886
:10039000F08D00204FF48011064684460EE0171BB6
:1003A00073EB050705D3121B63EB050306434CEA09
:1003B000010C49084FEA300092185B4150EA0107EE
:1003C000EDD152EA030012D082EA040083EA05016B
:1003D000084305D0101BAB4106D20122002306E0E2
:1003E00000224FF0004302E06FF0010253101AEBBD
:1003F00006004CEB085110EB0A0041EB0B01BDE885
:10040000F04D00F04DB90EB5C10F80EAE070084420
:10041000CA07002140F233438DE80E000A460B461E
:1004200000F04DF903B000BD0EB540F2334102912A
:100430000021CDE900110A460B4600F040F903B057
:1004400000BD70B5C1F30A5201F000450024C1F3AC
:10045000130140F2FF3341F480119A4201DA002087
:1004600070BD40F233439A42A2F2334203DC52425F
:1004700000F07CF800E090402C43F1D0404270BD89
:1004800000F0004230F000400AD0C10D01F560716B
:10049000C0F3160042EA0151C208400711437047F9
:1004A00000200146704701F0004330B421F00041C4
:1004B00050EA010206D00A0DA2F56072C1F31301E1
:1004C000002A02DC30BC00207047440F44EAC1041B
:1004D000C100E01830BC00EBC25000F0AAB830B543
:1004E0000B46014600202022012409E021FA02F5F2
:1004F0009D4205D303FA02F5491B04FA02F528448C
:10050000151EA2F10102F1DC30BD2DE9F05F0546B8
:10051000002092469B4688460646814640241BE0C2
:10052000284641464746224600F020F853465A46A0
:10053000C01A914110D311461846224600F0F6F930
:100540002D1A67EB01084F4622460120002100F0DA
:10055000EDF917EB00094E41201EA4F10104DFDC88
:10056000484631462A464346BDE8F09F202A04DB30
:10057000203A21FA02F00021704721FA02F3D0401C
:10058000C2F1200291400843194670470048704765
:10059000607900082DE9F05F824600780027154653
:1005A0008B460AF10104B946302801D09DB113E011
:1005B00014F8010B0127782803D0582801D045B141
:1005C0000AE00DB1102D07D10027102514F8010BFA
:1005D00002E0082500E00A250026B0460EE005FBF3
:1005E000080005FB06F1012701EB10461FFA80F811
:1005F000B6F5803F00D3B94614F8010B294600F048
:10060000B6F90028EBDABBF1000F05D00FB1641E7C
:1006100000E05446CBF80040B9F1000F06D005F0D9
:100620003FF802210160C81EBDE8F09F48EA06407D
:10063000FAE70029A8BF7047401C490008BF20F016
:100640000100704710B4B0FA80FC00FA0CF050EAD8
:10065000010404BF10BC704749B1CCF1200421FA59
:1006600004F411FA0CF118BF012121430843A3EB54
:100670000C01CB1D4FEA00614FEA102042BF002061
:1006800010BC704700EBC35010440029A4BF10BC3D
:100690007047401C490008BF20F0010010BC7047A3
:1006A00010B5141E73F1000408DA401C41F100017A
:1006B00092185B411A4301D120F0010010BD2DE9D1
:1006C000F04D92469B4611B1B1FA81F202E0B0FAC8
:1006D00080F22032904600F029F904460F4640EAA5
:1006E0000A0041EA0B0153465A46084313D011460B
:1006F00053EA010019D0C8F140025046FFF736FF17
:1007000005460E4650465946424600F00FF908434A
:1007100005D0012004E020463946BDE8F08D0020D8
:10072000054346EAE0762C4337430A986305E40A1A
:10073000A0EB08000022FD0A44EA47540A3002D523
:1007400000200146E9E7010510196941DDE9084586
:1007500000196941BDE8F04DA2E72DE9FE4F804642
:1007600081EA0300C00F0C46009021F0004123F005
:100770000045B8EB0200A94105D24046214690460B
:100780001C460B46024623F00040104347D0270D7D
:10079000C7F30A00C3F30A510290401A019040289F
:1007A0006BDAC3F3130040F4801B0098924620B12B
:1007B0000023D2EB030A63EB0B0B01985946C0F1FF
:1007C0004002504600F0B2F806460D4650465946E3
:1007D000019A00F0BAF810EB08006141002487EAA2
:1007E000115284EAE7731A4340D0009A62B3019A27
:1007F000012A4FEA075215DC001B61EB02014FF0A2
:10080000004202EA0752CDE90042001C41F5801186
:1008100032462B46FFF753FF03B0BDE8F08F40464A
:100820002146F9E7001B61EB0201001C41F5801332
:1008300000185B412018A2F5001747EB030140EABE
:10084000D570B6196D4111E06D084FEA360645EADC
:10085000C0754FEA0752001B61EB0201001C41F515
:10086000801149084FEA30000019514132462B46A9
:1008700003B0BDE8F04FFFF713BF0098012240001E
:100880000023D0EB020263EBE073009821464FEAAD
:10089000E074B8EB000061EB0401E9E783F000438A
:1008A0005BE781F0004158E7C1F30A52C1F313013D
:1008B00040F2FF3341F480119A4202DA00200146EF
:1008C000704740F233439A42A2F2334202DC524272
:1008D000FFF74CBE00F02AB830B5041E71F10004D9
:1008E00004DB4FF00044404264EB0101141E73F13D
:1008F000000405DB1C464FF00043524263EB040347
:10090000994208BF904230BD064C074D06E0E068B2
:1009100040F0010394E8070098471034AC42F6D346
:10092000FFF70AFC4C7D00086C7D0008202A04DBE0
:10093000203A00FA02F1002070479140C2F12003F2
:1009400020FA03F3194390407047202A06DBCB17A7
:10095000203A41FA02F043EAE07306E041FA02F37A
:10096000D040C2F1200291400843194670473A280E
:1009700000D2303820F02002412A01D3A2F1370002
:10098000884201D34FF0FF30704770B58C1810F8D3
:10099000015B15F0070301D110F8013B2A1106D1C4
:1009A00010F8012B03E010F8016B01F8016B5B1EDE
:1009B000F9D12B0705D40023521E0DD401F8013BB9
:1009C000FAE710F8013BCB1A921C03E013F8015B25
:1009D00001F8015B521EF9D5A142D8D3002070BDA9
:1009E0000FB410B59DF8121007484268049890475C
:1009F00018B9012010BC5DF814FB0348C1680498C5
:100A000088470020F6E70000640000200FB410B50E
:100A1000034801680498884710BC5DF814FB000087
:100A2000640000200FB410B588B0129C04200AA9FD
:100A3000CDE9044106900EA80FC88DE80F000AA862
:100A40000FC800F049F80A9808B010BC5DF814FB14
:100A50000FB410B588B0129C02200AA9CDE9044158
:100A600006900EA80FC88DE80F000AA80FC800F066
:100A700033F8BDF8280008B010BC5DF814FB0FB4C3
:100A800010B588B0129C04200AA9CDE90441069053
:100A90000EA80FC88DE80F000AA80FC800F01CF8B8
:100AA0000A9808B010BC5DF814FB0FB410B588B0FC
:100AB000129C01200AA9CDE9044106900EA80FC896
:100AC0008DE80F000AA80FC800F006F89DF828006E
:100AD00008B010BC5DF814FB0FB42DE9FC41DDE952
:100AE0001065129C31190C98801C81422BDABDF8DC
:100AF0002C0004280ADACDE900549DF82A20144875
:100B000033460121876A0A98B8471CE0BDF82C00DB
:100B100002280EDDBDF82C0020280ADACDE90054A9
:100B20009DF82A200A4833460321876A0A98B84765
:100B300009E0CDE900549DF82A20054833460221FA
:100B4000876A0A98B847BDE8FC015DF814FB00000D
:100B5000640000200FB410B588B0129C042013A9C3
:100B6000CDE9044106900EA80FC88DE80F000AA831
:100B70000FC800F04FF8052005F02CFB08B010BCA2
:100B80005DF814FB0FB410B588B0129C022013A9B5
:100B9000CDE9044106900EA80FC88DE80F000AA801
:100BA0000FC800F037F8052005F014FB08B010BCA2
:100BB0005DF814FB0FB410B588B0129C042013A983
:100BC000CDE9044106900EA80FC88DE80F000AA8D1
:100BD0000FC800F01FF8052005F0FCFA08B010BCA3
:100BE0005DF814FB0FB410B588B0129C012013A956
:100BF000CDE9044106900EA80FC88DE80F000AA8A1
:100C00000FC800F007F8052005F0E4FA08B010BCA2
:100C10005DF814FB0FB42DE9FC47DDE91389129D43
:100C200005EB09010E98801C814266DA0FFA89F6FD
:100C30000027BA4600245DE00F9895FBF0F100FB19
:100C400011500FFA80FA0F98B04201DA0F9800E0C5
:100C500030460F99A1EB0A01884203DD0F98A0EB03
:100C60000A0005E00F98B04201DA0F9800E0304624
:100C700004B2BDF8340004280EDAA0B208EB070174
:100C8000CDE900109DF832201E482B460121D0F8F6
:100C900024C00C98E04724E0BDF83400022812DD9F
:100CA000BDF8340020280EDAA0B208EB0701CDE928
:100CB00000109DF8322013482B460321D0F824C0A1
:100CC0000C98E0470DE0A0B208EB0701CDE9001059
:100CD0009DF832200B482B460221D0F824C00C98F6
:100CE000E047052005F076FA301B06B2381907B246
:100CF000281985B2002E9FDC00BFBDE8FC075DF817
:100D000014FB00006400002000BFFEE710B513488C
:100D1000008800F4004000281FD01048047800200C
:100D20000F490855084604F0ABFC0EA004F0A8FCDF
:100D30000B48007818B90CA004F0A2FC0AE008489F
:100D400000F030F818B908A004F09AFC02E007A0FF
:100D500004F096FC00200149088010BD900000209E
:100D6000380100200D0A00003E3E0000636F6D6DEB
:100D7000616E6473206E6F20666F756E64202C2028
:100D8000747970652068656C7020746F2073656578
:100D900020636F6D6D616E6473206C6973740D0AEE
:100DA0003E3E000010B50446204600F05BF908B94D
:100DB000002010BD204600F0F3F808B90020F8E745
:100DC000204600F027FA08B90020F2E7204601F09B
:100DD00065FA08B90020ECE7204600F063FB08B98B
:100DE0000020E6E7204600F049FE08B90020E0E7D1
:100DF000204601F04BF808B90020DAE7214627A089
:100E0000FFF7CBF900281CD126A004F039FC29A05B
:100E100004F036FC2BA004F033FC2EA004F030FCD0
:100E200030A004F02DFC33A004F02AFC36A004F01E
:100E300027FC3AA004F024FC3BA004F021FC002095
:100E4000B7E721463BA0FFF7A8F938B93BA33EA27C
:100E5000404941A004F014FC0020AAE7214646A026
:100E6000FFF79BF920B94648464908600020A0E7F3
:100E7000214645A0FFF791F920B9012002F0A8F919
:100E8000002096E7214643A0FFF787F920B900200C
:100E900002F09EF900208CE701208AE768656C70FB
:100EA000000000006770696F2068656C703A0D0A79
:100EB00000000000627574746F6E2068656C703A93
:100EC0000D0A0000656570726F6D2068656C703A80
:100ED0000D0A000075617274332068656C703A0DFC
:100EE0000A0000006D6F746F722068656C703A0DB7
:100EF0000A0000006D6F746F72206765742068656A
:100F00006C703A0D0A0000006D6F746F722073658B
:100F1000742068656C703A0D0A0000007665727383
:100F2000696F6E3A0D0A00007265626F6F743A0D58
:100F30000A00000076657273696F6E004A756C2056
:100F4000323920323031390032313A30353A3239A3
:100F500000000000940000206669726D7761726580
:100F6000202573206275696C6420617420257320CC
:100F700025730D0A3E3E00007265626F6F740000BB
:100F80000400FA050CED00E0737973207265736557
:100F900074000000636F72652072657365740000F1
:100FA00070B50446002513A12046FFF7F6F828B9CE
:100FB0001548017815A004F063FB18E018A120463D
:100FC000FFF7EBF850B900200F490870002101200D
:100FD00006F05AF817A004F053FB08E01EA12046C3
:100FE000FFF7DBF810B905F06FFB00E0022528469B
:100FF00070BD0000627574746F6E5354415254207A
:101000007374617475730000B200002062757474AB
:101010006F6E53544152543D25640D0A0000000088
:10102000627574746F6E535441525420656E6162E0
:101030006C650000656E61626C6520627574746F2A
:101040006E20535441525420666F72206E6578743E
:1010500020746573740D0A00627574746F6E206875
:10106000656C70002DE9F8430446002642A1204635
:10107000FFF793F810B905F071FC7AE00A2241A15C
:101080002046FFF798F8002824D1009004F10A07C1
:1010900000250A2269463846FFF79CF80546009865
:1010A000007898B9002D11D90D2D0FD2691E384A3C
:1010B000505C05F0B3FA08B9012000E0002080463A
:1010C0004246294633A004F0DBFA02E034A004F0E3
:1010D000D7FA4EE00A223AA12046FFF76CF800BB8F
:1010E0000020009004F10A0700250A2269463846CC
:1010F000FFF770F805460098007870B9002D0CD9FC
:10110000092D0AD2691E314A505C012105F0D0FA3E
:1011100029462FA004F0B4FA02E030A004F0B0FA9F
:1011200027E00B2235A12046FFF745F800BB002041
:10113000009004F10B0700250A2269463846FFF7A4
:1011400049F805460098007870B9002D0CD9092D92
:101150000AD2691E1D4A505C002105F0A9FA2946F1
:1011600029A004F08DFA02E01CA004F089FA00E046
:1011700002263046BDE8F8836770696F2068656CA9
:101180007000000072656164696E70757420000003
:101190009E000020696E5B25645D3D25640D0A009C
:1011A000696E707574206368616E6E656C206D7514
:1011B000737420626520317E31320D0A0000000018
:1011C0006F7574707574206F6E200000AA00002087
:1011D0006F75745B25645D3D310D0A006F75747029
:1011E0007574206368616E6E656C206D7573742014
:1011F000626520317E380D0A000000006F75747042
:101200007574206F666620006F75745B25645D3DA4
:10121000300D0A00F0B591B0044600264CA12046DE
:10122000FEF7BBFF10B905F087FA8DE009224BA14C
:101230002046FEF7C0FF00281CD1109004F10907DA
:1012400000250A2210A93846FEF7C4FF054610986B
:10125000007820280AD1E8B21099491C04F0DCF982
:1012600020B9294640A004F00BFA02E043A004F0A4
:1012700007FA69E009224EA12046FEF79CFFE0B97B
:101280000020109004F1090700250A2210A9384611
:10129000FEF7A0FF05461098007850B9E8B26946FD
:1012A00001F00AFF28B96A46294644A004F0E8F98B
:1012B00002E048A004F0E4F946E04CA12046FEF725
:1012C0006CFF40B905205149087302F01DF85048E1
:1012D00004F0D6F938E04FA12046FEF75EFF40B992
:1012E00005204A49087302F00FF8494804F0C8F98C
:1012F0002AE051A12046FEF750FF40B9042043499F
:10130000087302F001F8424804F0BAF91CE053A156
:101310002046FEF742FF40B904203C49087301F023
:10132000F3FF3B4804F0ACF90EE055A12046FEF770
:1013300034FF40B900203549087301F0E5FF344817
:1013400004F09EF900E00226304611B0F0BD000026
:10135000656570726F6D2068656C7000736176658D
:10136000646174612000000073617665646174617A
:101370005B25645D206F6B0D0A000000706167657E
:101380004E756D206D75737420626520317E32302C
:10139000302C64617461206C656E677468206D75B3
:1013A000737420626520317E36340D0A000000001F
:1013B000726561646461746120000000726561643B
:1013C000646174615B25645D3D252E3634730D0ABE
:1013D00000000000706167654E756D206D75737457
:1013E00020626520317E3230300D0A00506172611A
:1013F0006D536176652050726F6A656374547970BD
:1014000065204F51432D466C657800003402002062
:10141000A8790008506172616D5361766520507241
:101420006F6A6563745479706520425554544F4E09
:101430002D415849532D3100506172616D536176D1
:10144000652050726F6A65637454797065206275A7
:1014500074746F6E5F726F6164000000506172613E
:101460006D536176652050726F6A6563745479704C
:101470006520425554544F4E2D415849532D32004A
:10148000506172616D536176652050726F6A656359
:10149000745479706520636F6D6D6F6E5F757365E1
:1014A000000000002DE9FC4104460026FBA1204677
:1014B000FEF773FE10B905F0A3FABDE2FAA12046CB
:1014C000FEF76BFE10B905F0A1FBB5E2FAA12046CC
:1014D000FEF763FE10B905F02FFDADE2FAA120463C
:1014E000FEF75BFE58B9FC480078022801D10120C4
:1014F00000E000200146F9A004F0C2F89CE2FBA144
:101500002046FEF74AFE10B901F036FB94E2FAA13C
:101510002046FEF742FEA8B90020FC490870FC49AD
:1015200008740021FA4841748174002003F0C2F964
:10153000012003F0BFF9022003F0BCF9F5A004F08C
:101540009FF879E20B22FEA12046FEF734FE002828
:101550002DD1EE48007818B9ED48807C012803D1E0
:10156000FAA004F08DF867E20020019004F10B0569
:101570000A2201A92846FEF72DFEF949487003F01A
:10158000DFFDF749487803F095F978B9F4494978CF
:10159000022242EA4111C8B201F041FD0746F0487B
:1015A000427841783B46EFA004F06AF844E20D220D
:1015B000F4A12046FEF7FFFD90BB002001900090B3
:1015C00004F10D050A2201A92846FEF703FEE449AD
:1015D000487001980078202821D101980078401C9B
:1015E0002D2809D10A2269460198801CFEF7F2FDD8
:1015F0004042DB49486007E00A2269460198401CE6
:10160000FEF7E8FDD64948600098007838B9D4481C
:10161000406820B1D24A5168507803F017F90BE2C4
:10162000FFE70B22DBA12046FEF7C5FD00283DD1D8
:101630000190009004F10B050A2201A92846FEF74B
:10164000C9FDC74948700198007820282DD101981C
:101650000078401C2D2809D10A2269460198801C77
:10166000FEF7B8FD4042BE49486007E00A226946DD
:101670000198401CFEF7AEFDB9494860009800781B
:1016800098B9B748406880B1A048007818B9A04818
:10169000807C012803D1ADA003F0F2FF05E0B04942
:1016A0004A684878012103F017F9C5E10D22BCA171
:1016B0002046FEF780FDB8BB00200190009004F1A9
:1016C0000D050A2201A92846FEF784FDA4494870A9
:1016D0000198007820282ED101980078401C2D28F0
:1016E00009D10A2269460198801CFEF773FD404229
:1016F0009B49486007E00A2269460198401CFEF7B2
:1017000069FD9749486000980078A0B994484068FE
:1017100088B17E48007818B97D48807C012804D1C2
:101720008AA003F0ADFF06E006E08D494A684878DC
:10173000002103F0D1F87FE10D229DA12046FEF7A4
:101740003AFD00285CD10190009004F10D070A22B7
:1017500001A93846FEF73EFD81494870019800789E
:1017600020284CD101980078401C2D2809D10A224C
:1017700069460198801CFEF72DFD4042784948607B
:1017800007E00A2269460198401CFEF723FD7449D0
:1017900048600098007870BB7148406858B30121D8
:1017A0006F4842785A481030815400216C48427882
:1017B000574813308154002069494978544A50549D
:1017C0006748416842785248001D40F8221064483A
:1017D0004568002D01DB2A4600E06A421146604A56
:1017E000507801F085FE5E4A5168507803F02EF87B
:1017F0005B48417800E002E071A003F041FF1BE18B
:101800000E227DA12046FEF7D6FC002845D101908E
:10181000009004F10E070A2201A93846FEF7DAFC0F
:101820004F49487001980078202835D101980078F8
:10183000401C2D2809D10A2269460198801CFEF718
:10184000C9FC40424649486007E00A2269460198BF
:10185000401CFEF7BFFC4249486000980078D8B9A8
:101860003F484068C0B100213D48427828481030C8
:10187000815401213A484278254813308154002090
:1018800037494978224A50543548416842782048BF
:10189000001D40F82210B7E0CCE0CCE06D6F746F13
:1018A000722068656C7000006D6F746F72206765E0
:1018B000742068656C7000006D6F746F72207365C2
:1018C000742068656C7000006D6F746F72207265B3
:1018D0007365743F000000001E0100206D6F746F7F
:1018E000722072657365743D25640A006D6F746FB4
:1018F00072207265736574006D6F746F72207374FB
:101900006F7020726573657400000000B3000020E2
:10191000700200206D6F746F722073746F7020728C
:101920006573657420616E6420616C6C206D6F74EA
:101930006F722069732073746F700D0A00000000CD
:101940006D6F746F722073746F7020006D6F746FA1
:1019500072206973207265736574696E670A00008E
:10196000000100206D6F746F725B25645D206973E8
:101970002073746F7020616E6420505B25645D3D40
:1019800025640A006D6F746F7220726F74617465E4
:10199000200000006D6F746F72206D6F76652000FF
:1019A0006D6F746F72206D6F7665746F200000002C
:1019B0006D6F746F7220676F686F6D652000000037
:1019C0006D6F746F725B25645D2069732073746141
:1019D000727420676F20686F6D652062792073656F
:1019E00061726368696E6720686F6D652073656EEC
:1019F000736F720A000000006D6F746F7220676F62
:101A00006C696D69742000000D484568002D01DB8C
:101A10002A4600E06A421146094A507801F068FD02
:101A2000074A5168507802F011FF0548417805A037
:101A300003F026FE00E002263046BDE8FC810000EF
:101A4000000100206D6F746F725B25645D20697307
:101A500020737461727420676F20686F6D652062F7
:101A60007920736561726368696E67206C696D695E
:101A7000742073656E736F720A000000F8B5054636
:101A80000026CAA12846FEF788FB10B905F0BEF86B
:101A90008AE10A22C9A12846FEF78DFB00287DD1E4
:101AA00005F10A040622C8A12046FEF784FB88B986
:101AB00000200090A71D0A2269463846FEF78AFBDF
:101AC000C34948700098007818B94878032102F09B
:101AD00073FB67E10922BFA12046FEF76CFB90B9BA
:101AE0000020009004F109070A2269463846FEF7F3
:101AF00071FBB74948700098007818B948780121FF
:101B000002F05AFB4EE10922B5A12046FEF753FB35
:101B100090B90020009004F109070A22694638466E
:101B2000FEF758FBAA4948700098007818B9487821
:101B3000182102F041FB35E10822ACA12046FEF756
:101B40003AFB90B90020009004F108070A22694688
:101B50003846FEF73FFB9E4948700098007818B958
:101B60004878192102F028FB1CE10922A2A1204695
:101B7000FEF721FB98B90020009004F109070A2222
:101B800069463846FEF726FB914948700098007870
:101B900018B948781A2102F00FFB03E103E10B2288
:101BA00098A12046FEF707FB90B90020009004F1B1
:101BB0000B070A2269463846FEF70CFB8449487039
:101BC0000098007818B94878022102F0F5FAE9E0A7
:101BD0000E228FA12046FEF7EEFA90B90020009069
:101BE00004F10E070A2269463846FEF7F3FA7849EF
:101BF00048700098007818B94878002102F0DCFAA3
:101C0000D0E0052286A12046FEF7D5FA88B900204B
:101C10000090671D0A2269463846FEF7DBFA6C49D8
:101C200048700098007818B94878042102F0C4FA86
:101C3000B8E005227CA12046FEF7BDFA88B9002055
:101C40000090671D0A2269463846FEF7C3FA6049CC
:101C500048700098007818B94878052102F0ACFA6D
:101C6000A0E0112272A12046FEF7A5FA90B900204B
:101C7000009004F111070A2269463846FEF7AAFAD5
:101C8000534948700098007818B94878062102F046
:101C900093FA87E00B226BA12046FEF78CFA90B9ED
:101CA0000020009004F10B070A2269463846FEF72F
:101CB00091FA474948700098007818B94878082187
:101CC00002F07AFA6EE00A2261A12046FEF773FA6A
:101CD00090B90020009004F10A070A2269463846AC
:101CE000FEF778FA3A4948700098007818B94878B1
:101CF000092102F061FA55E058A12046FEF74DFA9D
:101D000028B9334948780A2102F056FA4AE00B22F2
:101D100055A12046FEF74FFA90B90020009004F13B
:101D20000B070A2269463846FEF754FA28494870DC
:101D30000098007818B94878172102F03DFA31E090
:101D400009224CA12046FEF736FA90B900200090F7
:101D500004F109070A2269463846FEF73BFA1C4996
:101D600048700098007818B94878142102F024FAD5
:101D700018E00A2242A12046FEF71DFA90B9002081
:101D8000009004F10A070A2269463846FEF722FA53
:101D90000F4948700098007818B94878152102F06A
:101DA0000BFA00BF00E002263046F8BD6D6F746F7D
:101DB00072206765742068656C7000006D6F746FC9
:101DC00072206765742000007370656564200000F0
:101DD00000010020706F736974696F6E200000004D
:101DE00069735F686F6D65642000000069735F73DD
:101DF000746F70200000000069735F726561636832
:101E0000200000006E6578745F7370656564200063
:101E10006E6578745F706F736974696F6E2000000F
:101E2000564D415820000000414D4158200000000F
:101E3000706F736974696F6E5F7265616368656402
:101E40002000000072696768744C696D6974200035
:101E50006C6566744C696D69742000006C696D690D
:101E60007420616C6C000000686F6D6553656E7363
:101E70006F72200072616D705F64697620000000EF
:101E800070756C73655F6469762000002DE9FC4114
:101E9000054600260A22DFA12846FEF78CF9002815
:101EA0007BD105F10A04DEA12046FEF776F910B9D0
:101EB00005F042F8A8E10622DBA12046FEF77BF9F7
:101EC00088BB002001900090A71D0A2201A9384676
:101ED000FEF780F9D649487001980078202821D172
:101EE00001980078401C2D2808D10A2269460198E3
:101EF000801CFEF76FF9CE49486007E00A22694668
:101F00000198401CFEF766F9C949486000980078BE
:101F100040B9C748406828B1C5494A684878042193
:101F200002F0A2FD70E1FFE70B22C2A12046FEF7FE
:101F300042F998BB00200190009004F10B070A229F
:101F400001A93846FEF746F9B9494870019800786A
:101F5000202821D101980078401C2D2808D10A2280
:101F600069460198801CFEF735F9B149486007E0E1
:101F70000A2269460198401CFEF72CF9AC494860DA
:101F80000098007840B9AA48406828B1A8494A6832
:101F90004878022102F068FD36E136E1FFE70E22C3
:101FA000A7A12046FEF707F990BB00200190009002
:101FB00004F10E070A2201A93846FEF70BF99C49E5
:101FC000487001980078202821D101980078401CA1
:101FD0002D2808D10A2269460198801CFEF7FAF8DC
:101FE0009349486007E00A2269460198401CFEF7C1
:101FF000F1F88F4948600098007840B98C484068F3
:1020000028B18B494A684878002102F02DFDFBE099
:10201000FFE710228EA12046FEF7CDF890BB0020EE
:102020000190009004F110070A2201A93846FEF73A
:10203000D1F87F49487001980078202821D1019873
:102040000078401C2D2808D10A2269460198801C7E
:10205000FEF7C0F87649486007E00A226946019811
:10206000401CFEF7B7F8724948600098007840B904
:102070006F48406828B16E494A684878012102F0EB
:10208000F3FCC1E0FFE7052276A12046FEF793F8B6
:10209000F8B9002001900090671D0A2201A9384676
:1020A000FEF798F8624948700198007820280FD10F
:1020B0000A2269460198401CFEF78CF85C4948608A
:1020C0000098007820B94A684878042102F0CCFCD6
:1020D0009AE0052265A12046FEF76DF8F8B90020C8
:1020E00001900090671D0A2201A93846FEF772F898
:1020F0004F4948700198007820280FD10A2269467C
:102100000198401CFEF766F849494860009800783D
:1021100020B94A684878052102F0A6FC74E009223B
:1021200054A12046FEF747F800BB00200190009024
:1021300004F109070A2201A93846FEF74BF83C4989
:1021400048700198007820280FD10A22694601982A
:10215000401CFEF73FF8364948600098007820B9E7
:102160004A684878142102F07FFC4DE00A2244A11D
:102170002046FEF720F800BB00200190009004F1FB
:102180000A070A2201A93846FEF724F828494870B0
:102190000198007820280FD10A2269460198401C36
:1021A000FEF718F8224948600098007820B94A687C
:1021B0004878152102F058FC26E00C2233A1204675
:1021C000FDF7F9FF00BB00200190009004F10C071F
:1021D0000A2201A93846FDF7FDFF1549487001980C
:1021E000007820280FD10A2269460198401CFDF78B
:1021F000F1FF0F4948600098007820B94A68487894
:10220000162102F031FC00BF00E002263046BDE896
:10221000FC8100006D6F746F722073657420000084
:1022200068656C70000000007370656564200000D4
:10223000000100206E6578745F737065656420002E
:102240006E6578745F706F736974696F6E200000DB
:1022500061637475616C5F706F736974696F6E2010
:1022600000000000564D415820000000414D4158EB
:102270002000000072616D705F64697620000000CC
:1022800070756C73655F6469762000006C696D69B8
:10229000745369676E616C200000000070B50446DD
:1022A000002517A12046FDF778FF10B904F068FE5D
:1022B00023E016A12046FDF770FF28B9002016493B
:1022C000087002F04DFF18E014A12046FDF765FFED
:1022D00028B902F035FF15A003F0D2F90DE01DA1D9
:1022E0002046FDF75AFF38B94FF4E13000F00EFBFD
:1022F0000EA003F0C5F900E00225284670BD0000DD
:1023000075617274332068656C7000007072696E5C
:1023100074646174610000002101002073746F70A7
:10232000207072696E7464617461000073746F7000
:10233000207072696E74696E6720746865207072AF
:102340006573737572652076616C7565206F6B0DB2
:102350000A0000007561727433207265696E6974D9
:10236000000000007047000010B50E480068A0B9DA
:102370000D48007888B90D48807C70B902F0E0FE05
:10238000022000F0B8F900200849887000210748B1
:102390008174417506A003F073F9042000F01EF863
:1023A00010BD000008012342B3000020700200208D
:1023B00073746F70206D6F746F72207A206475650E
:1023C00020746F207072657373757265206F766507
:1023D00072686967682121210D0A000001490860BF
:1023E0007047000014040140002123498279002A2B
:1023F0003AD00A46126803689A430B461A600A1DCF
:10240000126803689A430B1D1A60027911440A6826
:1024100003681A430A60184A0832126803689A432C
:10242000154B08331A601A1D126803689A43124B41
:102430000C331A604279102A0ED11A1F12680368F1
:102440001A430D4B08331A601A1D126803681A43A9
:10245000094B0C331A600DE00749427911440A68B0
:1024600003681A430A6005E0027911440A680368A8
:102470009A430A6070470000000401400EB5012134
:10248000084600F02BFD0221042000F031F8042062
:10249000019000208DF808000C208DF80900012023
:1024A0008DF80A0001A8FFF79FFF08208DF80000B3
:1024B00003208DF8010000208DF8020001208DF826
:1024C0000300684600F090FC01A003F0D9F80EBDAF
:1024D000696E697420696E70757438206173206547
:1024E0007874692E2E2E6F6B0D0A000062B670474D
:1024F00030B500228B071C0F0F2303FA04F20B4B9D
:102500008C1053F824309343084C8D1044F8253038
:1025100023468C1053F824308C07240F00FA04F45F
:102520002343024C8D1044F8253030BD0800014093
:102530002DE9F0410246002500260020002300245A
:10254000002791F803C00CF00F0591F803C00CF0C0
:10255000100CBCF1000F03D091F802C04CEA050545
:1025600091F800C0BCF1000F31D0146800202BE0BE
:102570004FF0010C0CFA00F3B1F800C00CEA0306AE
:102580009E4220D183004FF00F0C0CFA03F7BC439E
:1025900005FA03FC4CEA040491F803C0BCF1280FCF
:1025A00006D14FF0010C0CFA00FCC2F814C00AE08E
:1025B00091F803C0BCF1480F05D14FF0010C0CFAA3
:1025C00000FCC2F810C0401C0828D1D31460B1F838
:1025D00000C0BCF1FF0F34DD546800202EE000F194
:1025E000080C4FF0010808FA0CF3B1F800C00CEA2F
:1025F00003069E4221D183004FF00F0C0CFA03F723
:10260000BC4305FA03FC4CEA040491F803C0BCF196
:10261000280F05D100F1080C08FA0CF8C2F8148054
:1026200091F803C0BCF1480F07D100F1080C4FF03E
:10263000010808FA0CF8C2F81080401C0828CED314
:102640005460BDE8F0810000F0B50A460023002484
:102650000021002500F00046B6F1004F02D11D4ECA
:10266000F16901E01B4E7168C0F3034583B200F4C9
:102670004016B6F5401F08D121F07061154E7668FE
:1026800026F07066134F7E6012E000F48016B6F5F7
:10269000801F06D1032606FA05F4A14341F07061BC
:1026A00006E0460D360103FA06F6B14341F07061CB
:1026B00022B1460D360103FA06F6314300F000461A
:1026C000B6F1004F02D1034EF16101E0014E71609D
:1026D000F0BD0000000001400246002093680B405E
:1026E0000BB1012000E0002070474161704701619B
:1026F000704700BFFEE710B50446E0B2022100F0CB
:102700001DFE082141EA4411C8B202F075FF0A21FA
:1027100041EA4411C8B202F06FFF10BD70B5002548
:102720000BE0002405E044EA4511C8B202F064FF62
:10273000641C1C2CF7D9681CC5B2032DF1DB4FF4C7
:102740009971682002F032FF0223042200217E20CA
:1027500002F018FF2F48017A407A61F31F10C2B2CD
:1027600004230021182002F00DFF2A48017D407D3E
:1027700061F31F10C2B204230021382002F002FFCF
:10278000244890F8201090F8210061F31F10C2B285
:1027900004230021582002F0F5FE00231A461946B2
:1027A000142002F0EFFE00231A461946342002F0EE
:1027B000E9FE00231A461946542002F0E3FE0121E7
:1027C000042002F006FF0121242002F002FF012173
:1027D000442002F0FEFE0F480168062002F0E6FEEB
:1027E0000C484168002000F0CDFD0A48C168262051
:1027F00002F0DCFE07480169012000F0C3FD054836
:102800008169462002F0D2FE0248C169022000F030
:10281000B9FD70BDDC00002010B586B00446394813
:1028200002F09EFD0121880300F058FB01210420E5
:1028300000F054FB03208DF8020018208DF80300EF
:102840004FF40070ADF8000069462F48FFF770FEA6
:1028500004208DF803000002ADF8000069462A4804
:10286000FFF766FE02A802F06CFE029402A925485A
:1028700002F0F6FD25208DF8040004208DF80500F7
:1028800000208DF8060001208DF8070001A800F057
:10289000ABFA40F2FF311B4802F03EFD0022282136
:1028A000184802F0B8FD002240F22771154802F0E6
:1028B000B2FD002240F22661124802F0ACFD012276
:1028C00040F225510F4802F0A6FD002240F22441BB
:1028D0000C4802F0A0FD002240F64601094802F033
:1028E0009AFD002240F66A11064802F094FD00228B
:1028F0006021044802F08FFD0121024802F024FD0E
:1029000006B010BD003801400008014010B586B087
:1029100004463B4802F024FD0121212000F0DEFAAC
:102920000121880400F0BAFA01213648FFF78CFE35
:1029300003208DF8020018208DF803004FF48070FA
:10294000ADF8000069463048FFF7F2FD04208DF82D
:102950000300C001ADF8000069462B48FFF7E8FD11
:1029600002A802F0EEFD029402A9254802F078FDCB
:1029700027208DF8040005208DF8050000208DF833
:10298000060001208DF8070001A800F02DFA40F2A2
:10299000FF311B4802F0C0FC00222821184802F039
:1029A0003AFD002240F22771154802F034FD002262
:1029B00040F22661124802F02EFD002240F225511D
:1029C0000F4802F028FD002240F224410C4802F09A
:1029D00022FD002240F64601094802F01CFD0022BB
:1029E00040F66A11064802F016FD002260210448F4
:1029F00002F011FD0121024802F0A6FC06B010BD54
:102A000000480040300014000014014010B588B0A8
:102A10003C2024490022244BCDE9042106901033A8
:102A20000FCB8DE80F00214884681F480FC8A047CE
:102A30001C480068B0F5807F0BD04FF480701949B6
:102A400008604FF4E130486088600020087300F0AF
:102A50005BFC1448007B08281DD2DFE800F0180456
:102A6000081C100C1C1412A002F00AFE17E017A09C
:102A700002F006FE13E01CA002F002FE0FE020A010
:102A800002F0FEFD0BE024A002F0FAFD07E028A012
:102A900002F0F6FD03E02CA002F0F2FD00BF00BF43
:102AA00008B010BD34020020B8000020280000202B
:102AB000202D2D2D20747970653A20425554544FA5
:102AC0004E5F4F4E4C494E450A000000202D2D2DE3
:102AD00020747970653A20425554544F4E5F4F46EA
:102AE000464C494E450A0000202D2D2D207479704A
:102AF000653A204F51435F464C45580A000000009C
:102B0000202D2D2D20747970653A20425554544F54
:102B10004E5F524F41440A00202D2D2D20747970B4
:102B2000653A20414F492D32415849530A0000006F
:102B3000202D2D2D20747970653A20636F6D6D6F97
:102B40006E20757365720A000A636F6E74726F6C23
:102B50006C657220696E6974206F6B202D2D2D209D
:102B6000747970653A20636F6D6D6F6E2075736553
:102B7000720A000000BFFEE710B501203749087057
:102B80000121022004F080FA0021012004F07CFAE7
:102B900002F0D6FA012032490870002001F08AFEC6
:102BA000012001F087FE022001F084FE40F2FF7157
:102BB000062002F0FBFC40F2FF71262002F0F6FC3A
:102BC00040F2FF71462002F0F1FC002410E00020EA
:102BD000244908550021234810300155C01C0155D7
:102BE000214850F82410204600F082FC601CC4B23A
:102BF000032CECDB1C483038007B012807D002286E
:102C000004D004280DD0052825D109E000BF0121FA
:102C10001448417480684142012001F017FE1BE016
:102C200000BF01210F4881740021417500200D492A
:102C300088700D483038806B41420A48C1600A48AC
:102C40003038806B4142022001F000FE022107A0D3
:102C500002F016FD00E000BF00BF10BDB300002071
:102C60001E01002070020020640200206D6F746F4E
:102C7000725B25645D2069732073746172742067D0
:102C80006F20686F6D65206279207365617263687B
:102C9000696E6720686F6D652073656E736F720D66
:102CA0000A00000070B504460D463548005D002856
:102CB00065D00A2141EA4411C8B200F0CDF968BBE1
:102CC00003217C2000F0E2F90646610002208840E2
:102CD000304008B1012000E0002050B1002D04DD9B
:102CE0002946204601F0B2FD03E06942204601F08A
:102CF000ADFD610001208840304008B1012000E0B6
:102D0000002050B1002D04DD6942204601F09EFDF7
:102D100003E02946204601F099FD30E01948007B88
:102D200004280CD12CB91849085D03F077FC012860
:102D30000ED024B11449085D03F070FC40B1114875
:102D4000007B04281BD01049085D03F067FCB0B974
:102D5000002D07DD0A2141EA4411C8B200F07CF9D8
:102D6000002809DB002D0ADA0A2141EA4411C8B221
:102D700000F072F9002802DD204604F091F970BDE0
:102D80008002002034020020D800002070B50446E4
:102D90000D461348005D08B303217C2000F076F94E
:102DA0000646610002208840304008B1012000E062
:102DB000002020B1002D02DA204604F071F96100F4
:102DC00001208840304008B1012000E0002020B1FF
:102DD000002D02DD204604F063F900BF70BD000045
:102DE000830200207047000070B5002100230F22ED
:102DF000C47804B3154C246804F4E064C4F5E064BA
:102E0000210AC1F10403CA40447804FA03F184782A
:102E10001440214309010E4C0678A155047804F0B2
:102E20001F050124AC4005786D11AD0005F1E025CA
:102E3000C5F8004109E0047804F01F050124AC4006
:102E4000044D0678761145F8264070BD0CED00E083
:102E500000E400E080E100E002490143024A116021
:102E6000704700000000FA050CED00E0704700001C
:102E700010B50848008800F4004048B105480478BF
:102E800000200549085504F0ABF8002001490880EE
:102E900010BD0000920000200002002029B1064A67
:102EA000D2690243044BDA6104E0034AD2698243E7
:102EB000014BDA61704700000010024029B1064A58
:102EC00012690243044B1A6104E0034A1269824307
:102ED000014B1A61704700000010024029B1064AF8
:102EE00092690243044B9A6104E0034A9269824367
:102EF000014B9A61704700000010024029B1064A58
:102F0000D2680243044BDA6004E0034AD268824389
:102F1000014BDA60704700000010024030B500211C
:102F20000022002400232D4D6D6805F00C0121B115
:102F3000042905D0082923D105E0294D056022E0A8
:102F4000274D05601FE0254D6D6805F47012234D77
:102F50006D6805F48034022505EB92421CB9214DC1
:102F6000554305600BE01D4D6D6805F400351DB13E
:102F70001C4D5543056002E0194D5543056002E0C4
:102F8000174D056000BF00BF144D6D6805F0F001DE
:102F90000909154D6B5C0568DD4045600F4D6D6896
:102FA00005F4E061090A104D6B5C4568DD40856001
:102FB0000A4D6D6805F46051C90A0B4D6B5C45689C
:102FC000DD40C560054D6D6805F44041890B074D36
:102FD0006B5CC568B5FBF3F5056130BD00100240C0
:102FE00000127A0000093D00140000202400002097
:102FF0007CB505460C4645F001008DF80000694699
:1030000001A800F08BF89DF8050020709DF80600DF
:1030100060709DF80700A0709DF804007CBD7CB531
:10302000054645F001008DF80000694601A800F052
:1030300075F89DF8050000049DF8061040EA01208F
:103040009DF8071040EA010404F4000008B144F0C0
:103050007F4420467CBD00007CB5054645F001005C
:103060008DF80000694601A800F058F89DF80700A7
:103070009DF8061040EA012404F4006008B10248FB
:10308000044320467CBD000000F0FFFF7CB50446F1
:103090000D4644F001008DF80000694601A800F0DB
:1030A0003DF801A8405D7CBD10B5012211461046D7
:1030B00000F050F810BD0000F0B587B004460D4692
:1030C0000027002C21DDC92C1FDA402104F1370034
:1030D0008001104BCDE90551049010330FCB8DE8E2
:1030E0000F000D48D0F808C00A480FC8E047002676
:1030F00007E0A85D7F2802DD0020A85503E0701CD2
:10310000C6B2402EF5DB00BF00E00427384607B00A
:10311000F0BD0000B80000202800002070B5044673
:103120000D4629780022012000F014F820706978FB
:103130000022012000F00EF86070A9780022012022
:1031400000F008F8A070E9780122104600F002F8BB
:10315000E07070BD2DE9F04105460F46164600248B
:10316000A046012D2DD110201749486106E0601CB2
:1031700084B2C82C02DD0020BDE8F0810221134892
:1031800000F094F80028F2D03946104800F09AF880
:10319000002405E0601C84B2C82C01DD0020EBE7B0
:1031A00001210A4800F082F80028F3D0074800F017
:1031B00086F800F0FF0816B1102003490861404668
:1031C000DAE70020D8E7000000100140003001409D
:1031D0000146012080F3138800BF19B10448054A55
:1031E000106003E00248C01E024A106070470000F1
:1031F0000400FFFF0CED00E000B587B001210420C2
:10320000FFF76CFE01210803FFF768FEA020ADF870
:10321000040003208DF8060018208DF8070001A98E
:103220001A48FFF785F94020ADF8040003208DF817
:10323000060004208DF8070001A91448FFF778F96B
:103240000020ADF808004FF48270ADF80A000020AD
:10325000ADF80C000220ADF80E000120ADF8100012
:103260004002ADF812003020ADF814000020ADF897
:103270001600ADF8180002A9054800F025F8012154
:10328000034800F007F807B000BD00000008014047
:103290000030014021B1028842F04002028004E087
:1032A00002884FF6BF731A40028070470246002022
:1032B00013890B400BB1012000E00020704701464C
:1032C000888970478181704710B50022028802F416
:1032D00041520B884C8823438C882343CC8823435A
:1032E0000C8923434C8923438C892343CC89234372
:1032F0001A430280838B4FF2FF74234083830B8A2F
:10330000038210BD7047000010B588B03C2008490A
:103310000022084BCDE90421069010330FCB8DE835
:103320000F000548C46803480FC8A04708B010BD87
:1033300034020020B8000020280000207CB504469C
:103340000D46142040EA4410401CC0B28DF8040021
:1033500001A96846FFF7E2FE142040EA4410C0B21B
:103360008DF804009DF801008DF805009DF802001D
:103370008DF806008DF8075001A96846FFF7CEFECC
:103380007CBD00002DE9F04F8DB005460F46C7F318
:103390000A07182141EA4511C8B208A9FFF728FE1B
:1033A0009DF82100099009984FEA201A099800F029
:1033B0000F094FF0FF300B900A90D1451DDBA9EBB0
:1033C0000A02012101FA02F0FDF71DF80022444B28
:1033D000CDE90001FCF736FFCDE904013846FDF7E1
:1033E00023F8CDE90201DDE90423FCF79DFFCDE9D7
:1033F0000601FDF758F880461EE0AAEB09020121FC
:1034000001FA02F0FCF7FFFF02460B46CDE900018E
:1034100000203349FCF788FFCDE904013846FDF769
:1034200003F8CDE90201DDE90423FCF77DFFCDE9D6
:103430000601FDF738F880464046FDF721F8294A95
:10344000294BCDE90401FCF7FDFECDE90601FDF7AE
:103450002AF88346002424E0012101FA04F0FCF755
:10346000D2FFCDE904015846FDF70AF800221F4BB0
:10347000CDE90001FCF7E6FECDE90201DDE9042318
:10348000FCF7E0FECDE90601FCF7DBFFA0F18006CA
:10349000002E05DB7F2E03DC06F180000B900A94E2
:1034A000641C0D2CD8DD00208DF820000B98C0B2D4
:1034B0008DF821000A98C0B28DF82200122141EA4D
:1034C0004511C8B208A902F04AF80C2141EA451199
:1034D000C8B2394602F07DF800200DB0BDE8F08F8B
:1034E0000000604004560E2DB29DEF3F00002040CA
:1034F00070B505460C4605EB4500EC4901EB800034
:10350000007A062854D105EB450001EB8000407A93
:1035100008284DD1692C08D140F2131005EB450164
:10352000E24A02EB8101486038E0322C07DA0A20D7
:1035300005EB4501DD4A02EB810148602EE0312CAC
:103540000ADD692C08DA04F10A0005EB4501D74AC7
:1035500002EB8101486021E0692C09DDD22C07DAF9
:10356000600005EB4501D14A02EB8101486015E09E
:10357000D12C0BDDB4F5C87F08DA4FF47A7005EB77
:103580004501CA4A02EB8101486007E040F2FF7042
:1035900005EB4501C54A02EB8101486005EB45009A
:1035A000C24A02EB800041682846FFF7EBFE7CE14F
:1035B00005EB4500BD4901EB8000007A052844D1A8
:1035C00005EB450001EB8000407A08283DD1462CF0
:1035D00007D1C82005EB4501B44A02EB81014860E0
:1035E00029E0322C06DA05EB4500B04901EB8000FA
:1035F000446020E0312C09DD692C07DA600005EB1E
:103600004501AA4A02EB8101486014E0682C0ADDFA
:10361000D22C08DA04EB440005EB4501A34A02EB87
:103620008101486007E04FF4FA6005EB45019F4ACD
:1036300002EB8101486005EB45009C4A02EB8000EB
:1036400041682846FFF79EFE2FE105EB45009749AC
:1036500001EB8000007A072878D105EB450001EBEB
:103660008000407A0A28F7D1192C0BDA611D284610
:10367000FFF788FE601D05EB45018C4A02EB8101D6
:10368000486012E1642C0DDA04F10A012846FFF7C4
:1036900079FE04F10A0005EB4501844A02EB810141
:1036A000486002E1962C0DDA04F11E012846FFF76E
:1036B00069FE04F11E0005EB45017C4A02EB810125
:1036C0004860F2E0B4F58C7F0DDA04F13C01284645
:1036D000FFF758FE04F13C0005EB4501734A02EB8D
:1036E00081014860E1E0B4F5D27F0DDA04F16401B4
:1036F0002846FFF747FE04F1640005EB45016B4ADD
:1037000002EB81014860D0E0B4F50C7F0DDA04F1E2
:1037100096012846FFF736FE04F1960005EB4501B9
:10372000624A02EB81014860BFE0B4F52F7F0EDAF8
:1037300004F1C8012846FFF725FE04F1C80005EB97
:1037400045015A4A02EB81014860AEE045E0B4F51C
:10375000527F0DDA04F1FA012846FFF713FE04F157
:10376000FA0005EB4501514A02EB810148609CE0FB
:10377000B4F5757F0DDA04F596712846FFF702FE61
:1037800004F5967005EB4501484A02EB810148605B
:103790008BE040F29C4084420DDC04F5AF7128467A
:1037A000FFF7F0FD04F5AF7005EB45013F4A02EB72
:1037B0008101486079E040F2FF70844275DA04F5D7
:1037C00016712846FFF7DEFD04F5167005EB45017E
:1037D000364A02EB8101486067E005EB450033495A
:1037E00001EB8000007A05285FD105EB450001EB75
:1037F0008000407A082858D1192C0ADA2146284638
:10380000FFF7C0FD05EB4500284901EB800044604F
:103810004BE0322C0BDA611D2846FFF7B3FD601D2B
:1038200005EB4501214A02EB810148603DE0642C33
:103830000BDA64212846FFF7A5FD642005EB45015E
:103840001A4A02EB810148602FE0962C0DDA4FF402
:10385000FA712846FFF796FD4FF4FA7005EB450123
:10386000124A02EB810148601FE0FA2C0DDA4FF496
:103870007A712846FFF786FD4FF47A7005EB450113
:103880000A4A02EB810148600FE040F2FF70844277
:103890000BDA01462846FFF775FD40F2FF7005EB95
:1038A0004501024A02EB8101486070BDDC00002046
:1038B00010B500F001F810BD0CB50020019000908B
:1038C0003348006840F480303149086000BF304818
:1038D000006800F4003000900198401C01900098AE
:1038E00018B90198B0F5A06FF1D12948006800F42B
:1038F000003010B10120009001E0002000900098FD
:10390000012843D12348006840F010002149086095
:103910000846006820F0030008600846006840F090
:10392000020008601A484068194948600846406823
:1039300048600846406840F4806048600846406837
:1039400020F47C1048600846406840F4E810486065
:103950000846006840F08070086000BF0C480068AE
:1039600000F000700028F9D00948406820F00300FA
:10397000074948600846406840F00200486000BFC0
:103980000348406800F00C000828F9D10CBD000085
:10399000001002400020024073B50C469DF8010063
:1039A00002F03CFEA0B19DF8000002F037FE78B1B5
:1039B000009800F076F92146009800F021F900986F
:1039C00000F0ABF90546009800F08BF928467CBD65
:1039D0000120FCE701B59DF80100142102F0B2FDC1
:1039E0009DF80000142102F0ADFD009800F079F977
:1039F00008BD73B50D46082600249DF80100482136
:103A000002F0A0FD002618E0022002F0EDFB9DF878
:103A1000000002F031FE6006040E9DF8010002F085
:103A2000FDFD08B1601CC4B2022002F0DDFB9DF870
:103A3000000002F005FE701CC6B2082EE4DB1DB9C2
:103A4000009800F00EF902E0009800F0B5F820466A
:103A50007CBD2DE9FF47884615461C46DDE90C690B
:103A6000B8F1000F09D0B8F1010F07D0B8F1020F7B
:103A700026D0B8F1030F76D14CE000BF009800F0DB
:103A800010F905F0FE01009800F0BAF8009800F077
:103A900044F918B1012004B0BDE8F0872746E017CB
:103AA00004EB10600012A4EB0020C1B2009800F0FB
:103AB000A7F8009800F031F908B10220EBE753E0D5
:103AC000009800F0EEF805F0FE01009800F098F87C
:103AD000009800F022F908B10120DCE721120098DB
:103AE00000F08EF8009800F018F908B10220D2E733
:103AF0002746E01704EB10600012A4EB0020C1B2CF
:103B0000009800F07DF8009800F007F908B1022055
:103B1000C1E729E0009800F0C4F82746E01704EB5D
:103B200010600012FE2202EB400000EA050100983E
:103B300000F066F8009800F0F0F808B10120AAE75C
:103B40002746E01704EB10600012A4EB0020C1B27E
:103B5000009800F055F8009800F0DFF810B102204E
:103B600099E700E000E000BF00BF009800F099F87E
:103B700045F00101009800F043F8009800F0CDF8FE
:103B800008B1032087E709E0A9F101001FFA80F9D5
:103B900001210098FFF72DFF06F8010BB9F1010F85
:103BA000F2D100210098FFF724FF06F8010B0098DE
:103BB00000F097F800206EE701B59DF8000002F0D4
:103BC0003FFD9DF80100142102F0BCFC9DF80100AE
:103BD00002F036FD022002F007FB9DF8000002F023
:103BE0004BFD022002F000FB9DF8000002F028FDD2
:103BF000022002F0F9FA9DF8010002F03DFD08BD37
:103C000073B50C469DF80100142102F09BFC9DF851
:103C1000000002F015FD012002F0E6FA002519E08F
:103C2000E1099DF8010002F043FD6006040E012049
:103C300002F0DAFA9DF8000002F01EFD022002F008
:103C4000D3FA9DF8000002F0FBFC012002F0CCFA50
:103C5000681CC5B2082DE3DB9DF8010002F00CFDE5
:103C60007CBD01B59DF8000002F0EAFC9DF8010062
:103C7000142102F067FC9DF8010002F0FDFC022017
:103C800002F0B2FA9DF8000002F0F6FC022002F009
:103C9000ABFA9DF8000002F0D3FC012002F0A4FA78
:103CA00008BD01B59DF80100142102F04BFC9DF800
:103CB000010002F0E1FC9DF8000002F0DDFC0420B0
:103CC00002F092FA9DF8010002F0BAFC042002F022
:103CD0008BFA9DF8000002F0B3FC042002F084FA95
:103CE00008BD01B59DF80100142102F02BFC9DF8E0
:103CF000010002F0A5FC012002F076FA9DF8000018
:103D000002F0BAFC042002F06FFA9DF8010002F004
:103D1000B3FC042002F068FA08BD31B500249DF818
:103D20000100482102F00EFC012002F05DFA9DF82E
:103D3000000002F0A1FC012002F056FA08E0601C2D
:103D4000C4B2FA2C04DD0098FFF7CBFF012038BD88
:103D50009DF8010002F062FC0028F0D19DF80000FF
:103D600002F06EFC012002F03FFA0020EFE72DE99F
:103D7000FF470F4615461C46DDE90C890098FFF702
:103D800090FF37B1012F12D0022F2DD0032F78D101
:103D900051E005F0FE010098FFF732FF0098FFF7B1
:103DA000BCFF18B1012004B0BDE8F08700BF05F0EA
:103DB000FE010098FFF724FF0098FFF7AEFF08B15F
:103DC0000120F0E72646E01704EB10600012A4EB98
:103DD0000020C1B20098FFF713FF0098FFF79DFF86
:103DE00008B10220DFE74DE005F0FE010098FFF783
:103DF00007FF0098FFF791FF08B10120D3E72112D8
:103E00000098FFF7FDFE0098FFF787FF08B102203A
:103E1000C9E72646E01704EB10600012A4EB00206F
:103E2000C1B20098FFF7ECFE0098FFF776FF08B1EB
:103E30000220B8E726E02646E01704EB10600012E7
:103E4000FE2202EB400000EA05010098FFF7D8FED1
:103E50000098FFF762FF08B10120A4E72646E017AB
:103E600004EB10600012A4EB0020C1B20098FFF731
:103E7000C7FE0098FFF751FF10B1022093E700E062
:103E800000E000BF00BF0AE018F8011B0098FFF730
:103E9000B7FE0098FFF741FF08B1032083E7B9F1AF
:103EA0000000A9F101011FFA81F9EDD10098FFF797
:103EB00018FF0A2002F01EF9002074E710B504462E
:103EC000E0B20221FFF73AFA082141EA4411C8B2F0
:103ED00001F092FB10BD042808D14FF0E0210969E0
:103EE00041F004014FF0E022116107E04FF0E021C2
:103EF000096921F004014FF0E022116170470000D0
:103F00000148006870470000600000200248006817
:103F1000401C0149086070476000002010B56FF038
:103F20000400FFF7D8FF42F228304FF0E02148614B
:103F30000846006940F0020008610846006940F048
:103F40000100086110BD000010B51348006840F082
:103F500001001149086008464068104908400E49B0
:103F60004860084600680E4908400B49086008464A
:103F7000006820F4802008600846406820F4FE00B5
:103F800048604FF41F008860FFF792FC4FF000601C
:103F90000449086010BD0000001002400000FFF856
:103FA000FFFFF6FE08ED00E030B589B005460C468F
:103FB00001210220FEF772FF01210920FEF78EFF8A
:103FC0000120ADF8200018208DF8230003208DF883
:103FD000220008A91348FEF7ABFAADF81850ADF867
:103FE00014400020ADF81A00ADF8160005A90E48DF
:103FF00000F084F87020ADF804000120ADF8060050
:104000000020ADF80C0001A9074800F01BF80821BA
:10401000054800F067F80121034800F007F809B0EF
:1040200030BD0000000C01400004004021B10288B6
:1040300042F00102028004E002884FF6FE731A404B
:104040000280704770B5002400220023058C4FF6D3
:10405000FF6635400584028C8388848B4FF68F750C
:104060002C404FF6FC752C400D882C434FF6FF5525
:104070002A400D894FF6FF7606EA05252A434D882A
:1040800006EA05252A43154DA84202D0144DA84240
:104090001DD14FF2FF752A404D894FF6FF7606EA93
:1040A00005252A434FF6FF352A408D8806EA052567
:1040B0002A434EF6FF752B404DF6FF752B408D8938
:1040C00006EA05152B43CD8906EA05152B438380A7
:1040D0008483CD888587028470BD0000002C014058
:1040E000003401400A460021818B4FF6F7731940D6
:1040F0001143818370478187704700000022028846
:104100001D4B98420ED01D4B98420BD0B0F1804F02
:1041100008D01B4B984205D01A4B984202D01A4B3C
:10412000984204D14FF68F731A404B881A43174BAD
:10413000984207D0164B984204D04FF6FF431A40DE
:10414000CB881A4302808B8883850B8803850A4BB2
:1041500098420BD0094B984208D00E4B984205D09C
:104160000D4B984202D00D4B984201D10B7A038639
:104170000123838270470000002C0140003401407D
:104180000004004000080040000C00400010004007
:10419000001400400040014000440140004801403C
:1041A00010B500210520FFF7FFFE02210148FFF7AF
:1041B000A2FF10BD000400402DE9FC4104460E465C
:1041C0000020D3494860032C71DA1B2E70D2DFE83F
:1041D00006F00E1D2C3B4A58776F9D88B2CBDD67E9
:1041E00070FA6FF4F3F2F1F06FEFEEEDEC000021F6
:1041F00041EA4411C8B2FEF712FFC54948600846BB
:1042000021464268C3A001F03BFA7BE1022141EA6A
:104210004411C8B2FEF703FFBD4948600846214675
:104220004268C4A001F02CFA6CE1082141EA441173
:10423000C8B2FEF711FFB6494860084621464268F9
:10424000C4A001F01DFA5DE10A2141EA4411C8B29F
:10425000FEF702FFAE494860084621464268C4A006
:1042600001F00EFA4EE104EB4400C94951F8200078
:10427000A7494860084621464268C6A001F000FAF6
:1042800040E104EB4400C24901EB80004068A049D2
:104290004860084621464268C8A001F0F1F931E1C2
:1042A0009B4821464268CEA001F0EAF92AE12AE1C2
:1042B00024E1974821464268D0A001F0E1F921E1CC
:1042C000FEF7F2FE620001219140084008B1012092
:1042D00000E0002005462A462146D0A001F0D0F992
:1042E00010E103217C20FEF7D1FE62000221914003
:1042F000084008B1012000E00020854948600846D8
:1043000021464268CDA001F0BBF9FBE003217C20EF
:10431000FEF7BCFE620001219140084008B1012077
:1043200000E000207A494860084621464268CEA055
:1043300001F0A6F9E6E003217C20FEF7A7FE074680
:1043400000250AE020202841384008B1312000E053
:1043500030200DF80500681CC5B2062DF2DB694659
:10436000CCA001F08DF9CDE0142141EA4411C8B28E
:104370000221FEF78BFEC0F3400065490871084634
:1043800002792146CFA001F07BF9BBE0142141EA7C
:104390004411C8B20221FEF779FE00F001005C4929
:1043A000087108460279214609E087E075E06DE072
:1043B00095E05AE047E034E024E013E003E0CCA0CD
:1043C00001F05EF99EE0042141EA4411C8B2FEF713
:1043D00043FE4F494860084621464268CFA001F09D
:1043E0004FF98FE0142141EA4411C8B20321FEF7CE
:1043F0004DFE47490871084602792146CFA001F0D9
:104400003FF97FE01A2141EA4411C8B2FEF724FEC9
:104410003F494860084621464268CFA001F030F984
:1044200070E0142141EA4411C8B20021FEF72EFECB
:10443000C0F3800036494860084621464268D0A053
:1044400001F01EF95EE0182141EA4411C8B20221D0
:10445000FEF71CFE00F00F002D49087108462146AA
:104460004268D0A001F00CF94CE0182141EA441157
:10447000C8B20221FEF70AFE00112549087108465C
:1044800021464268CFA001F0FBF83BE0D548025D31
:104490002146D5A001F0F4F834E00A2141EA4411A4
:1044A000C8B2FEF7D9FD08B9012000E0002005469A
:1044B0002A462146D2A001F0E3F823E0FEF7F4FDFE
:1044C000620001219140084008B1012000E0002075
:1044D00005462A462146CFA001F0D2F812E0D34982
:1044E000085D02F09BF808B9012000E000200546B5
:1044F0002A462146CEA001F0C3F803E00320044978
:10450000087000BF02E0042001490870BDE8FC818A
:10451000080100206D6F746F725B25645D206E650D
:10452000787420706F736974696F6E3D256C640DCB
:104530000A0000006D6F746F725B25645D2061631B
:104540007475616C20706F736974696F6E3D256C52
:10455000640D0A006D6F746F725B25645D206E657B
:1045600078742073706565643D256C640D0A0000E5
:104570006D6F746F725B25645D2061637475616C2F
:104580002073706565643D256C640D0A00000000B1
:10459000DC0000206D6F746F725B25645D206D61BF
:1045A0007820706F736974696F6E696E67207370BD
:1045B0006565643D256C640D0A0000006D6F746FC5
:1045C000725B25645D206D617820616363656C6555
:1045D000726174696F6E3D256C640D0A0000000005
:1045E0006D6F746F725B25645D206D6178206375FB
:1045F0007272656E743D256C640D0A006D6F746F88
:10460000725B25645D207374616E646279206375EA
:104610007272656E743D256C640D0A006D6F746F67
:10462000725B25645D20706F736974696F6E2072B0
:104630006561636865643D25640D0A006D6F746F84
:10464000725B25645D206C656674206C696D6974AD
:1046500020737769746368207374617475733D2582
:104660006C640D0A000000006D6F746F725B25644E
:104670005D207269676874206C696D697420737756
:1046800069746368207374617475733D256C640D7F
:104690000A0000006D6F746F72206C696D69742080
:1046A00073776974636820737461747573204C3216
:1046B00052324C3152314C3052303D252E36730D32
:1046C0000A0000006D6F746F725B25645D20726973
:1046D000676874206C696D697420737769746368A6
:1046E0002064697361626C653D25640D0A000000F9
:1046F0006D6F746F725B25645D206C656674206CF1
:10470000696D697420737769746368206469736183
:10471000626C653D25640D0A000000006D6F746FCA
:10472000725B25645D206D696E696D756D207370B7
:104730006565643D256C640D0A0000006D6F746F43
:10474000725B25645D2072616D70206D6F64653DE4
:1047500025640D0A000000006D6F746F725B2564A4
:104760005D207265662073776974636820746F6C6E
:104770006572616E63653D256C640D0A0000000082
:104780006D6F746F725B25645D20736F6674207348
:10479000746F70207374617475733D256C640D0AB9
:1047A000000000006D6F746F725B25645D207261A4
:1047B0006D702064697669736F723D256C640D0AB3
:1047C000000000006D6F746F725B25645D20707572
:1047D0006C73652064697669736F723D256C640D36
:1047E0000A000000700200206D6F746F725B256418
:1047F0005D20686F6D65643D25640D0A0000000052
:104800006D6F746F725B25645D2073746F703D25EE
:10481000640D0A006D6F746F725B25645D207265B4
:104820006163683D25640D0A00000000D800002087
:104830006D6F746F725B25645D20686F6D65536585
:104840006E736F723D25640D0A00000070B504465A
:104850000D46032C1CDA01200E4908550221204682
:10486000FEF76CFD062141EA4411C8B240F2FF7127
:1048700000F0AFFE082141EA4411C8B2294600F019
:10488000A8FE2A46214604A000F0FAFE002070BDD2
:104890000120FCE7180100206D6F746F7225642001
:1048A000697320726F746174652061742025640DD2
:1048B0000A00000010B50446032C09DA2046FDF773
:1048C0001AFF002103480155C01C0155002010BDEE
:1048D0000120FCE7800200202DE9F04104460D464E
:1048E00016460027032C42DA0DB1012D3DD1224896
:1048F000005DA8B104EB4402204B53F822100622BD
:1049000042EA4412D0B200F064FE04EB44001B4AB9
:1049100052F820102046FEF7EBFD002016490855FE
:104920005DB9214616A000F0ABFE002141EA44111A
:10493000C8B2314600F03AFE12E021461CA000F059
:104940009FFE022141EA4411C8B2FEF768FB00EB6A
:104950000608002141EA4411C8B2414600F026FE93
:1049600000212046FEF7EAFC02E0032700E00427CE
:104970003846BDE8F081000018010020DC0000206E
:104980006D6F746F725B25645D2069732073746151
:10499000727420746F206D616B65206162736F6C3F
:1049A000757465206D6F74696F6E0D0A00000000EC
:1049B0006D6F746F725B25645D2069732073746121
:1049C000727420746F206D616B652072656C617408
:1049D000697665206D6F74696F6E0D0A00000000C6
:1049E000002036E01C4951F8201000EB40021B4B20
:1049F00043F8221018490C3151F8201000EB400206
:104A000003EB8202516014491831095C00EB40024B
:104A100003EB8202117210491B31095C00EB40026A
:104A200003EB8202517201210D4A115400210D4AFB
:104A3000115400220B4910310A54C91C0A5406496A
:104A4000203151F820200749091D41F82020411C40
:104A5000C8B20328C6DB704744020020DC000020F7
:104A600018010020700200207CB504460D46164651
:104A7000032C6EDAED484660172D6BD2DFE805F0A7
:104A80000C1B2A39486B6A6A6A6A6A82BB6A6AFCCA
:104A90006AF1F0EFEEEDEC00E44A5168002242EAE0
:104AA0004412D0B200F082FDE04821464268E0A006
:104AB00000F0E6FDB5E1DD4A5168022242EA441207
:104AC000D0B200F073FDD94821464268E2A000F060
:104AD000D7FDA6E1D54A5168082242EA4412D0B275
:104AE00000F077FDD14821464268E5A000F0C8FDFE
:104AF00097E1CE4A51680A2242EA4412D0B200F04D
:104B000068FDCA4821464268E6A000F0B9FD88E188
:104B1000C648406804EB4401EB4A42F8210004EB2C
:104B20004402E94B53F82210062242EA4412D0B262
:104B300000F04FFD04EB4400E34A52F820102046F9
:104B4000FEF7D6FCB94821464268E0A000F098FD87
:104B500067E167E161E1B548406804EB4401DA4A86
:104B600002EB8101486004EB440002EB80004168E5
:104B70002046FEF707FCAD4821464268DBA000F066
:104B80007FFD4EE1152040EA4410C0B28DF80000D0
:104B9000694601A8FEF7C2FA9DF805008DF80100EC
:104BA000DE48007930B19DF8060040F002008DF833
:104BB000020005E09DF8060020F002008DF80200DA
:104BC0009DF807008DF80300142040EA4410C0B29D
:104BD0008DF80000694601A8FEF7A0FACF480079D9
:104BE00020B12146CEA000F04BFD03E02146D7A026
:104BF00000F046FD15E1152040EA4410C0B28DF8E2
:104C00000000694601A8FEF789FA9DF805008DF8B5
:104C10000100C248007930B19DF8060040F0010063
:104C20008DF8020005E09DF8060020F001008DF8E7
:104C300002009DF807008DF80300142040EA44109C
:104C4000C0B28DF80000694601A8FEF767FAB348C4
:104C5000007960B1214606E0CBE094E05BE035E00E
:104C600025E018E008E0C4A000F00AFD03E02146BA
:104C7000CCA000F005FDD4E06C4A5168042242EA61
:104C80004412D0B200F0A5FC684821464268CFA08B
:104C900000F0F6FCC5E0654801792046FEF74EFBC2
:104CA000624802792146D3A000F0EAFCB9E05F4AED
:104CB00051681A2242EA4412D0B200F08AFC5B48E2
:104CC00021464268D3A000F0DBFCAAE0142141EAAF
:104CD0004411C8B201A9FEF78BF95448406830B1BD
:104CE0009DF8050040F004008DF8050005E09DF8F2
:104CF000050020F004008DF80500142141EA44115C
:104D0000C8B201A900F02BFC484821464268CCA05B
:104D100000F0B6FC85E0192040EA4410C0B28DF8DE
:104D20000000694601A8FEF7F9F99DF805008DF825
:104D300001009DF8060000F0F0007849097901F0C3
:104D40000F0108438DF802009DF807008DF803005D
:104D5000182040EA4410C0B28DF80000694601A84E
:104D6000FEF7DCF96D48007900F00F0004EB440118
:104D7000554A02EB810148722C4821464268BAA08C
:104D800000F07EFC4DE0192040EA4410C0B28DF8DE
:104D90000000694601A8FEF7C1F99DF805008DF8ED
:104DA00001005E4801799DF8060061F31F10C0B252
:104DB0008DF802009DF807008DF80300182040EAE6
:104DC0004410C0B28DF80000694601A8FEF7A6F9AC
:104DD0005248007900F00F0004EB44013A4A02EB1C
:104DE00081010872114821464268A8A000F048FCE1
:104DF00017E00E48406828B140F23311682000F0F7
:104E0000D5FB04E04FF49971682000F0CFFB074810
:104E10004168A8A000F034FC03E00320B249087008
:104E200000BF02E00420B04908707CBD10010020E2
:104E3000736574206D6F746F725B25645D206E65A1
:104E4000787420706F736974696F6E3D256C64208F
:104E50006F6B0D0A00000000736574206D6F746F36
:104E6000725B25645D2061637475616C20706F7383
:104E70006974696F6E3D256C64206F6B0D0A0000CC
:104E8000736574206D6F746F725B25645D206E6551
:104E900078742073706565643D256C64206F6B0DBC
:104EA0000A000000736574206D6F746F725B256477
:104EB0005D2061637475616C2073706565643D2568
:104EC0006C64206F6B0D0A00DC0000207365742099
:104ED0006D6F746F725B25645D2073706565643DF2
:104EE000256C64206F6B0D0A000000007365742050
:104EF0006D6F746F725B25645D206D6178206163F6
:104F000063656C65726174696F6E2073706565644A
:104F10003D256C64206F6B0D0A000000000100202D
:104F20006D6F746F725B25645D20726967687420B1
:104F30006C696D6974207377697463682069732084
:104F400064697361626C650D0A0000006D6F746FB7
:104F5000725B25645D207269676874206C696D6995
:104F6000742073776974636820697320656E616269
:104F70006C650D0A000000006D6F746F725B256434
:104F80005D206C656674206C696D69742073776947
:104F90007463682069732064697361626C650D0ACB
:104FA000000000006D6F746F725B25645D206C659E
:104FB0006674206C696D6974207377697463682006
:104FC000697320656E61626C650D0A0073657420FB
:104FD0006D6F746F725B25645D206D696E696D75B0
:104FE0006D2073706565643D256C64206F6B0D0AE0
:104FF00000000000736574206D6F746F725B256430
:105000005D2072616D70206D6F64653D2564206F59
:105010006B0D0A00736574206D6F746F725B25648D
:105020005D207265662073776974636820746F6CA5
:105030006572616E63653D256C64206F6B0D0A00BF
:10504000736574206D6F746F725B25645D20736F80
:1050500066742073746F70207374617475733D256A
:105060006C64206F6B0D0A00736574206D6F746F34
:10507000725B25645D2072616D702064697669736E
:105080006F723D256C64206F6B0D0A007365742090
:105090006D6F746F725B25645D2070756C73652035
:1050A00064697669736F723D256C64206F6B0D0ABD
:1050B00000000000736574206C696D697420736969
:1050C000676E616C206566666563746976652074D9
:1050D000726967676572206C6576656C3D256C64E6
:1050E000206F6B0D0A0000000801002070B5044617
:1050F000FEF706FF10490968451A002D01DB284616
:1051000000E06842A04216DD0C48007B072806D16B
:105110000A48007B18B90948007B062807D00121FE
:10512000084600F0A9FF0221084600F081FFFEF7C3
:10513000E7FE0149086070BD2C0100203402002008
:1051400010B5002240F22551034800F064F9002018
:105150000249087010BD0000004800401F010020F7
:1051600010B5012240F22551034800F054F9012006
:105170000249087010BD0000004800401F010020D7
:1051800010B508212D4800F039F9012806D1082171
:105190002A4800F0C1F8294800F0CEF9012127483B
:1051A00000F02CF9012806D10121244800F0B4F8C0
:1051B000224800F0C1F90221204800F01FF901281F
:1051C00006D102211D4800F0A7F81C4800F0B4F9F0
:1051D0001A48008800F0200070B3184800F0ACF9BD
:1051E000C4B21748008800F40040D8B90D2C01D093
:1051F0000A2C06D11248008840F40040104908806B
:1052000010E00F480088C0F30D000E490C540C4804
:105210000088401C0A49088008460088C72801DD2C
:10522000002008802021054800F076F840F2255142
:10523000024800F07AF800BF10BD000000380140BD
:10524000900000203801002010B508212E4800F001
:10525000D5F8012806D108212B4800F05DF82A482E
:1052600000F06AF90121284800F0C8F8012806D1A9
:105270000121254800F050F8234800F05DF9022193
:10528000214800F0BBF8012806D102211F4800F098
:1052900043F81D4800F050F91B48008800F020003A
:1052A00088B3194800F048F9C4B21948008800F4DE
:1052B0000040F0B90D2C01D00A2C09D11448008807
:1052C000B8B11348008840F400401149088010E04C
:1052D0000F480088C0F30D000E490C540C4800889C
:1052E000401C0B49088008460088312801DD002059
:1052F00008802021044800F00FF840F225510248B0
:1053000000F013F800BF10BD004800400038014015
:10531000920000200002002001F40072B2F5007F2C
:1053200000D100BFCA430280704710B5002200239D
:1053300040F66A14A14200D100BF0A120124944031
:10534000A3B2DC43048010BD21B1828942F4005233
:10535000828104E082894DF6FF731A408281704792
:1053600010B504462048844209D101218803FDF785
:10537000C5FD00214FF48040FDF7C0FD32E01B4821
:10538000844209D101214804FDF798FD00214FF422
:105390000030FDF793FD25E01548844209D1012135
:1053A0008804FDF78BFD00214FF48020FDF786FD7A
:1053B00018E01048844209D10121C804FDF77EFDA0
:1053C00000214FF40020FDF779FD0BE00A488442EC
:1053D00008D101210805FDF771FD00214FF480106F
:1053E000FDF76CFD10BD0000003801400044004096
:1053F00000480040004C00400050004002460020A1
:10540000B1F5007F00D100BF13880B400BB1012024
:1054100000E000207047F0B5034600240026002578
:10542000002040F66A17B94200D100BF1846C1F308
:10543000421401F01F06012707FA06F5012C01D1DD
:105440000C3004E0022C01D1103000E014301AB10D
:1054500007682F43076002E00768AF430760F0BDAD
:105460002DE9F04786B005460E460024A24600BF4F
:10547000A1460027B08900B100BF2F462C8A4CF608
:10548000FF700440F08804432C82AC894EF6F31080
:105490000440B08831890843718908430443AC81D2
:1054A000AC8A4FF6FF400440B0890443AC8201A8A7
:1054B000FDF734FD1F48874202D1DDF810A001E05E
:1054C000DDF80CA0A88900F4004040B10AEBCA0046
:1054D00000EB0A1031684900B0FBF1F807E00AEB75
:1054E000CA0000EB0A1031688900B0FBF1F86420B3
:1054F000B8FBF0F004012009642101FB1089A889A0
:1055000000F4004040B1322000EBC900B0FBF1F0E4
:1055100000F00700044308E0322000EB091064218A
:10552000B0FBF1F000F00F0004432C8106B0BDE8A1
:10553000F08700000038014001468888C0F3080069
:1055400070474FF41651016000218180C1800181B4
:105550000C21418100218181704700BFFEE77CB5AD
:1055600005460C468DF8045020788DF805006078CB
:105570008DF80600A0788DF8070001A96846FDF7B0
:10558000CDFD7CBD2DE9FC4104460D4616461F4667
:105590008DF804408DF805508DF806608DF8077081
:1055A00001A96846FDF7BAFDBDE8FC817CB505465A
:1055B0000C468DF80450200C8DF80500200A8DF85B
:1055C0000600E0B28DF8070001A96846FDF7A6FDC8
:1055D0007CBD7CB505460C468DF8045000208DF846
:1055E0000500200A8DF80600E0B28DF8070001A939
:1055F0006846FDF793FD7CBD1CB504468DF804405C
:1056000000208DF805008DF806008DF8070001A92F
:105610006846FDF783FD1CBDF0B587B005460E4614
:1056200000273046FAF7B2FDC4B2412C1FDA002D34
:105630001DDDC92D1BDA402C03D000203055601C25
:10564000C4B205F1370080010B4BCDE9056404902D
:10565000D3E90412D3E90603CDE90203CDE9001230
:105660000648D0F80CC004480FC8E04700E0042703
:10567000384607B0F0BD0000B80000202800002028
:105680000FB4054B10B503A9044A029800F0DEF8E8
:1056900010BC5DF814FB0000E1630008300100203D
:1056A000004870473401002002E008C8121F08C1FA
:1056B000002AFAD170477047002001E001C1121F93
:1056C000002AFBD1704700002DE9FF5F82B0002166
:1056D000DDE90430020DDDF840B0034318D044F694
:1056E0001050A2F2FF3242431514119801281FD026
:1056F000A5EB0B00401C5FEA000A4FF000064E4F7E
:10570000DFF83891B046504615D5CAF1000413E0D1
:10571000119801244AA3012801D16FEA0B010298D4
:10572000119AC0E90031C0E9024206B0BDE8F09F1D
:10573000CBF10000DFE704460021404A491842EB64
:105740000450CDE9001012E0E00707D032463B4696
:1057500040464946FAF776FD8046894632463B4642
:1057600010461946FAF76EFD06460F466410002CE7
:10577000EAD1DDE90401DDE90023BAF1000F06DA20
:10578000FAF760FD42464B46FAF75CFD05E0FAF792
:10579000CBFD42464B46FAF7C7FD04460E460022B3
:1057A000284BFBF799F803D84FF0FF30014607E08C
:1057B0000022254B20463146FAF7CFFFFBF774F85D
:1057C000102409E0002C0ADB0A220023FAF79DFED0
:1057D000039B30321A55641E50EA0102F2D1641C58
:1057E000039AC4F111031444119A012A03D001222F
:1057F00008430DD10AE0084304D000204FF0110BFC
:10580000119072E7A3EB0B056D1E0DE05B4504DD07
:105810004FF0000205F1010504E003DA4FF0000249
:10582000A5F10105002AECD002981199C0E90231D6
:10583000C0E9004579E70000000014400000F03F97
:10584000300000000000F0430000E03F2DE9FF4F72
:1058500095B09B468946064600250FE2252877D15C
:1058600000242746F84A0121059400E0044316F875
:10587000013F203B01FA03F01042F7D130782A288B
:1058800011D06FF02F033078A0F13002092A16D81A
:10589000059A44F0020402EB820203EB4202104438
:1058A000761C0590EFE759F8042B0592002A03DADD
:1058B000504244F40054059044F00204761C3078C1
:1058C0002E2816D116F8010F44F004042A280DD012
:1058D0006FF02F023078A0F13003092B09D807EBC5
:1058E000870302EB4303C718761CF3E759F8047BE0
:1058F000761C30786C280FD006DC4C2817D068282E
:105900000DD06A2814D104E0742810D07A280FD161
:105910000DE044F400140AE044F4801401E044F47F
:1059200040147278824202D104F58014761C761CF1
:10593000307866280BD013DC582877D009DC002893
:1059400075D04528F6D04628F4D047281AD19DE1D5
:1059500018E0632835D0642879D0652812D195E104
:10596000702873D008DC6728F1D069286FD06E28C2
:105970000DD06F2806D1B5E073282CD0752875D0CE
:10598000782874D05A46179990476D1C75E1C4F376
:105990000250022809D003280DD0D9F8001004289D
:1059A0000DD00D6009F1040967E1D9F80010EA177C
:1059B000C1E90052F6E7D9F800100D80F2E70D704A
:1059C000F0E719F8041B8DF8001000208DF8010095
:1059D000EA46012003E059F804AB4FF0FF306107BD
:1059E0004FF0000102D40DE008F101018846B942F0
:1059F0000FDA8045F8DB1AF808100029F4D108E026
:105A000008F1010188468142FADB1AF808100029E2
:105A1000F6D105985B46A0EB080721463846179A51
:105A200000F094FA284400EB080507E04DE029E176
:105A30000DE01AF8010B5A4617999047B8F1010882
:105A4000F7D25B4621463846179A13E142E00A2214
:105A50000092C4F302524FF0000A022A08D059F80B
:105A600004CB032A4FEAEC710AD00DE029E02AE0CA
:105A700009F1070121F00702F2E802C1914609E0AD
:105A80000FFA8CFC4FEAEC71042A03D14FFA8CFC1C
:105A90004FEAEC71002907DA0A460021DCF1000C1C
:105AA00061EB02012D2202E0220504D52B228DF8A4
:105AB0000420012203E0E20701D02022F7E790460C
:105AC00059E00A2102E010220DE010214FF0000AF7
:105AD00000910BE010224FF0000A44F00404082764
