:020000040800F2
:1000000098060020450100088D2F0008AB2A000843
:100010001D2D0008E50C0008CB530008000000006F
:10002000000000000000000000000000793400081B
:100030004D2800080000000015300008814000082D
:100040005F0100085F0100085F0100085F01000810
:100050005F0100085F0100085F0100085F01000800
:10006000512800085F0100085F0100085F010008D7
:100070005F0100085F0100085F0100085F010008E0
:100080005F0100085F0100085F0100085F010008D0
:100090005F0100085F0100085F0100085F010008C0
:1000A0005F0100085F0100085F0100085F010008B0
:1000B0005F0100085F0100085F0100085F010008A0
:1000C0005F0100085F0100085F0100085F01000890
:1000D0005F010008F14F00085F010008B9500008F7
:1000E0005F0100085F0100085F0100085F01000870
:1000F0005F0100085F0100085F0100085F01000860
:100100005F0100085F0100085F0100085F0100084F
:100110005F0100085F0100085F0100085F0100083F
:100120005F0100085F0100085F0100085F0100082F
:10013000DFF80CD000F0D6FB00480047FD60000857
:10014000980600200648804706480047FEE7FEE77D
:10015000FEE7FEE7FEE7FEE7FEE7FEE7FEE7FEE777
:10016000BD40000831010008421C10F8011B0029A5
:10017000FBD1801A704710B5002200E0521C835C4E
:100180008C5CA34201D1002BF8D1D8B2E1B2401A65
:1001900010BD30B505460020034600E05B1C9342CD
:1001A00005D2EC5CC85C201A01D1002CF6D130BD20
:1001B0002DE9F04791460F4680460446002614F884
:1001C000015B2DB100F0D0F90068405DC007F6D1A9
:1001D0002B2D02D02D2D18D0641E4A4639462046BC
:1001E00000F0C6F927B13968A14201D1C7F80080F3
:1001F00071054FF002040BD54042002803DD05F0E5
:1002000073F90460A007BDE8F08746F48066E4E770
:100210000028F8DA05F068F904606FF00040F2E7B2
:100220002DE9FE4F81EA030404F0004421F000416F
:1002300000944FF0000B23F0004350EA01045ED01D
:1002400052EA03045BD0C3F30A54C1F30A552C44A9
:10025000A4F2F3340194A0FB0254C1F3130141F45E
:100260008011C3F3130343F4801301FB024400FB2A
:10027000034E840A970A44EA815447EA8357A4FB51
:10028000076802958D0A05FB07854FEA932C04FB4E
:100290000C542705029D4FEA065847EA1637B5EB7E
:1002A00008056EEB070C870E920E47EA811742EAAB
:1002B0008312A7FB0201B6EB0B0164EB00042B0DCC
:1002C00043EA0C335E1844EB1C50DA465146E7FB18
:1002D0000201C5F313044FEA0B3343EA14534FEA08
:1002E0000432019C43EA0603A4F10C040294009C2E
:1002F000CDE900B400F0D1F903B0BDE8F08F0020E3
:100300000146F9E72DE9F04D81EA030404F0004BC2
:1003100021F0004514464FF0000A23F0004150EA56
:10032000050220D054EA01021DD0C5F30A57024647
:10033000C5F31303C1F31300C1F30A5640F480154B
:1003400043F48013A7EB0608101BD64608F2FD38CD
:1003500073EB050002D308F1010801E092185B413C
:10036000B8F1000F03DA00200146BDE8F08D00204F
:100370004FF48011064684460EE0171B73EB050709
:1003800005D3121B63EB050306434CEA010C490835
:100390004FEA300092185B4150EA0107EDD152EA72
:1003A000030012D082EA040083EA0501084305D065
:1003B000101BAB4106D20122002306E000224FF0C1
:1003C000004302E06FF0010253101AEB06004CEB01
:1003D000085110EB0A0041EB0B01BDE8F04D00F0B5
:1003E0004DB90EB5C10F80EAE0700844CA0700217C
:1003F00040F233438DE80E000A460B4600F04DF9FB
:1004000003B000BD0EB540F2334102910021CDE9A9
:1004100000110A460B4600F040F903B000BD70B56C
:10042000C1F30A5201F000450024C1F3130140F268
:10043000FF3341F480119A4201DA002070BD40F28E
:1004400033439A42A2F2334203DC524200F07CF87A
:1004500000E090402C43F1D0404270BD00F00042DB
:1004600030F000400AD0C10D01F56071C0F31600F4
:1004700042EA0151C208400711437047002001467B
:10048000704701F0004330B421F0004150EA01020E
:1004900006D00A0DA2F56072C1F31301002A02DC36
:1004A00030BC00207047440F44EAC104C100E0188A
:1004B00030BC00EBC25000F0AAB830B50B46014684
:1004C00000202022012409E021FA02F59D4205D3F3
:1004D00003FA02F5491B04FA02F52844151EA2F19D
:1004E0000102F1DC30BD2DE9F05F054600209246A7
:1004F0009B4688460646814640241BE028464146E6
:100500004746224600F020F853465A46C01A914109
:1005100010D311461846224600F0F6F92D1A67EB63
:1005200001084F4622460120002100F0EDF917EBAB
:1005300000094E41201EA4F10104DFDC484631468B
:100540002A464346BDE8F09F202A04DB203A21FAE0
:1005500002F00021704721FA02F3D040C2F12002DC
:1005600091400843194670470048704738750008A5
:100570002DE9F05F82460078002715468B460AF188
:100580000104B946302801D09DB113E014F8010BE5
:100590000127782803D0582801D045B10AE00DB1D1
:1005A000102D07D10027102514F8010B02E00825B3
:1005B00000E00A250026B0460EE005FB080005FB1A
:1005C00006F1012701EB10461FFA80F8B6F5803FCF
:1005D00000D3B94614F8010B294600F0B6F90028FB
:1005E000EBDABBF1000F05D00FB1641E00E05446FA
:1005F000CBF80040B9F1000F06D004F075FF0221DE
:100600000160C81EBDE8F09F48EA0640FAE70029ED
:10061000A8BF7047401C490008BF20F00100704788
:1006200010B4B0FA80FC00FA0CF050EA010404BFE8
:1006300010BC704749B1CCF1200421FA04F411FA3E
:100640000CF118BF012121430843A3EB0C01CB1D82
:100650004FEA00614FEA102042BF002010BC7047F3
:1006600000EBC35010440029A4BF10BC7047401CCD
:10067000490008BF20F0010010BC704710B5141EDF
:1006800073F1000408DA401C41F1000192185B414B
:100690001A4301D120F0010010BD2DE9F04D924622
:1006A0009B4611B1B1FA81F202E0B0FA80F2203239
:1006B000904600F029F904460F4640EA0A0041EA54
:1006C0000B0153465A46084313D0114653EA010022
:1006D00019D0C8F140025046FFF736FF05460E46D6
:1006E00050465946424600F00FF9084305D0012014
:1006F00004E020463946BDE8F08D0020054346EA77
:10070000E0762C4337430A986305E40AA0EB08001F
:100710000022FD0A44EA47540A3002D5002001466F
:10072000E9E7010510196941DDE90845001969414A
:10073000BDE8F04DA2E72DE9FE4F804681EA0300B7
:10074000C00F0C46009021F0004123F00045B8EBAB
:100750000200A94105D24046214690461C460B4660
:10076000024623F00040104347D0270DC7F30A008C
:10077000C3F30A510290401A019040286BDAC3F388
:10078000130040F4801B0098924620B10023D2EB66
:10079000030A63EB0B0B01985946C0F14002504627
:1007A00000F0B2F806460D4650465946019A00F050
:1007B000BAF810EB08006141002487EA115284EA7C
:1007C000E7731A4340D0009A62B3019A012A4FEAB4
:1007D000075215DC001B61EB02014FF0004202EAF8
:1007E0000752CDE90042001C41F5801132462B46EC
:1007F000FFF753FF03B0BDE8F08F40462146F9E70D
:10080000001B61EB0201001C41F5801300185B41E5
:100810002018A2F5001747EB030140EAD570B6197E
:100820006D4111E06D084FEA360645EAC0754FEAA2
:100830000752001B61EB0201001C41F580114908C1
:100840004FEA30000019514132462B4603B0BDE853
:10085000F04FFFF713BF0098012240000023D0EBB8
:10086000020263EBE073009821464FEAE074B8EBB4
:10087000000061EB0401E9E783F000435BE781F0EE
:10088000004158E7C1F30A52C1F3130140F2FF33AC
:1008900041F480119A4202DA00200146704740F28A
:1008A00033439A42A2F2334202DC5242FFF74CBE7B
:1008B00000F02AB830B5041E71F1000404DB4FF0DB
:1008C0000044404264EB0101141E73F1000405DB97
:1008D0001C464FF00043524263EB0403994208BFA9
:1008E000904230BD064C074D06E0E06840F0010341
:1008F00094E8070098471034AC42F6D3FFF71CFC8D
:10090000D07E0008F07E0008202A04DB203A00FA9E
:1009100002F1002070479140C2F1200320FA03F356
:10092000194390407047202A06DBCB17203A41FA42
:1009300002F043EAE07306E041FA02F3D040C2F16C
:10094000200291400843194670473A2800D23038B7
:1009500020F02002412A01D3A2F13700884201D3BE
:100960004FF0FF30704770B58C1810F8015B15F030
:10097000070301D110F8013B2A1106D110F8012B11
:1009800003E010F8016B01F8016B5B1EF9D12B0736
:1009900005D40023521E0DD401F8013BFAE710F8EC
:1009A000013BCB1A921C03E013F8015B01F8015BD9
:1009B000521EF9D5A142D8D3002070BD0FB410B596
:1009C0009DF81210074842680498904718B9012012
:1009D00010BC5DF814FB0348C168049888470020E8
:1009E000F6E70000640000200FB410B5034801686A
:1009F0000498884710BC5DF814FB000064000020D8
:100A00000FB410B588B0129C04200AA9CDE90441A6
:100A100006900EA80FC88DE80F000AA80FC800F0B6
:100A200049F80A9808B010BC5DF814FB0FB410B573
:100A300088B0129C02200AA9CDE9044106900EA8B4
:100A40000FC88DE80F000AA80FC800F033F8BDF8F2
:100A5000280008B010BC5DF814FB0FB410B588B0C6
:100A6000129C04200AA9CDE9044106900EA80FC8E3
:100A70008DE80F000AA80FC800F01CF80A9808B00B
:100A800010BC5DF814FB0FB410B588B0129C0120A7
:100A90000AA9CDE9044106900EA80FC88DE80F0001
:100AA0000AA80FC800F006F89DF8280008B010BC8E
:100AB0005DF814FB0FB42DE9FC41DDE91065129CD3
:100AC00031190C98801C81422BDABDF82C000428C7
:100AD0000ADACDE900549DF82A2014483346012152
:100AE000876A0A98B8471CE0BDF82C0002280EDD82
:100AF000BDF82C0020280ADACDE900549DF82A2000
:100B00000A4833460321876A0A98B84709E0CDE9C5
:100B100000549DF82A20054833460221876A0A9826
:100B2000B847BDE8FC015DF814FB0000640000203C
:100B30000FB410B588B0129C042013A9CDE904416C
:100B400006900EA80FC88DE80F000AA80FC800F085
:100B50004FF8052005F09EF908B010BC5DF814FBB5
:100B60000FB410B588B0129C022013A9CDE904413E
:100B700006900EA80FC88DE80F000AA80FC800F055
:100B800037F8052005F086F908B010BC5DF814FBB5
:100B90000FB410B588B0129C042013A9CDE904410C
:100BA00006900EA80FC88DE80F000AA80FC800F025
:100BB0001FF8052005F06EF908B010BC5DF814FBB5
:100BC0000FB410B588B0129C012013A9CDE90441DF
:100BD00006900EA80FC88DE80F000AA80FC800F0F5
:100BE00007F8052005F056F908B010BC5DF814FBB5
:100BF0000FB42DE9FC47DDE91389129D05EB0901CE
:100C00000E98801C814266DA0FFA89F60027BA46F0
:100C100000245DE00F9895FBF0F100FB11500FFAF6
:100C200080FA0F98B04201DA0F9800E030460F9931
:100C3000A1EB0A01884203DD0F98A0EB0A0005E052
:100C40000F98B04201DA0F9800E0304604B2BDF8C8
:100C5000340004280EDAA0B208EB0701CDE9001039
:100C60009DF832201E482B460121D0F824C00C9854
:100C7000E04724E0BDF83400022812DDBDF834005E
:100C800020280EDAA0B208EB0701CDE900109DF88C
:100C9000322013482B460321D0F824C00C98E0479B
:100CA0000DE0A0B208EB0701CDE900109DF832205D
:100CB0000B482B460221D0F824C00C98E0470520B1
:100CC00005F0E8F8301B06B2381907B2281985B2CA
:100CD000002E9FDC00BFBDE8FC075DF814FB0000A0
:100CE0006400002000BFFEE710B50C48008800F447
:100CF000004088B109480478002009490855084691
:100D0000007830B1084600F029F810B105A004F0D1
:100D1000DBFB00200149088010BD0000900000208E
:100D200044010020636F6D6D616E6473206E6F20EF
:100D3000666F756E64202C20747970652068656C10
:100D40007020746F2073656520636F6D6D616E64D4
:100D500073206C6973740D0A3E3E000070B5044642
:100D60000025204600F056F900286CD0204600F0FF
:100D7000EFF8002867D0204600F024FA002862D05F
:100D8000204601F0F9FC00285DD0204600F062FB0F
:100D9000002858D0204600F0AFFE002853D020464F
:100DA00001F0B2F800284ED0204601F0B5FA002834
:100DB00049D0214625A0FFF7DEF900281BD125A048
:100DC00004F082FB27A004F07FFB2AA004F07CFB48
:100DD0002CA004F079FB2FA004F076FB31A004F0E6
:100DE00073FB35A004F070FB38A004F06DFB3AA053
:100DF00004F06AFB27E021463AA0FFF7BCF930B9BE
:100E00003AA33DA23F4940A004F05EFB1BE021460F
:100E100045A0FFF7B0F918B945484649086012E007
:100E2000214645A0FFF7A7F918B9012002F002FBFF
:100E300009E0214643A0FFF79EF918B9002002F00F
:100E4000F9FA00E00125284670BD000068656C7065
:100E5000000000006770696F2068656C703A0D0AC9
:100E600000000000627574746F6E2068656C703AE3
:100E70000D0A0000656570726F6D2068656C703AD0
:100E80000D0A000075617274332068656C703A0D4C
:100E90000A0000006D6F746F722068656C703A0D07
:100EA0000A0000006D6F746F7220676574206865BA
:100EB0006C703A0D0A0000006D6F746F72207365DC
:100EC000742068656C703A0D0A00000076657273D4
:100ED000696F6E3A0D0A00007265626F6F743A0DA9
:100EE0000A00000076657273696F6E004A756E20A5
:100EF000203320323032300031313A34383A303613
:100F000000000000960000206669726D77617265CE
:100F1000202573206275696C64206174202573201C
:100F200025730D0A000000007265626F6F74000087
:100F30000400FA050CED00E07379732072657365A7
:100F400074000000636F7265207265736574000041
:100F500070B50446002513A12046FFF70CF928B907
:100F60001548017815A004F0AFFA18E018A1204642
:100F7000FFF701F950B900200F4908700021012046
:100F800005F0C8FE17A004F09FFA08E01EA1204655
:100F9000FFF7F1F810B905F0B3F900E00225284693
:100FA00070BD0000627574746F6E535441525420CA
:100FB0007374617475730000B600002062757474F8
:100FC0006F6E53544152543D25640D0A00000000D9
:100FD000627574746F6E535441525420656E616231
:100FE0006C650000656E61626C6520627574746F7B
:100FF0006E20535441525420666F72206E6578748F
:1010000020746573740D0A00627574746F6E2068C5
:10101000656C70002DE9F8430446002642A1204685
:10102000FFF7A9F810B905F0B5FA7AE00A2241A154
:101030002046FFF7AEF8002824D1009004F10A07FB
:1010400000250A2269463846FFF7B2F8054600989F
:10105000007898B9002D11D90D2D0FD2691E384A8C
:10106000505C05F003F908B9012000E0002080463B
:101070004246294633A004F027FA02E034A004F0E7
:1010800023FA4EE00A223AA12046FFF782F800BB7D
:101090000020009004F10A0700250A22694638461C
:1010A000FFF786F805460098007870B9002D0CD936
:1010B000092D0AD2691E314A505C012105F013F94D
:1010C00029462FA004F000FA02E030A004F0FCF959
:1010D00027E00B2235A12046FFF75BF800BB00207C
:1010E000009004F10B0700250A2269463846FFF7F5
:1010F0005FF805460098007870B9002D0CD9092DCD
:101100000AD2691E1D4A505C002105F0ECF8294600
:1011100029A004F0D9F902E01CA004F0D5F900E000
:1011200002263046BDE8F8836770696F2068656CF9
:101130007000000072656164696E70757420000053
:10114000A2000020696E5B25645D3D25640D0A00E8
:10115000696E707574206368616E6E656C206D7564
:10116000737420626520317E31320D0A0000000068
:101170006F7574707574206F6E200000AE000020D3
:101180006F75745B25645D3D310D0A006F75747079
:101190007574206368616E6E656C206D7573742064
:1011A000626520317E380D0A000000006F75747092
:1011B0007574206F666620006F75745B25645D3DF5
:1011C000300D0A00F0B591B0044600264CA120462F
:1011D000FEF7D1FF10B905F0CBF88DE009224BA145
:1011E0002046FEF7D6FF00281CD1109004F1090715
:1011F00000250A2210A93846FEF7DAFF05461098A6
:10120000007820280AD1E8B21099491C04F028F986
:1012100020B9294640A004F057F902E043A004F0A9
:1012200053F969E009224EA12046FEF7B2FFE0B96A
:101230000020109004F1090700250A2210A9384661
:10124000FEF7B6FF05461098007850B9E8B2694637
:1012500002F064F828B96A46294644A004F034F93B
:1012600002E048A004F030F946E04CA12046FEF729
:1012700082FF40B905205149087302F0FFF8504839
:1012800004F022F938E04FA12046FEF774FF40B980
:1012900005204A49087302F0F1F8494804F014F9AE
:1012A0002AE051A12046FEF766FF40B904204349D9
:1012B000087302F0E3F8424804F006F91CE053A179
:1012C0002046FEF758FF40B904203C49087302F05D
:1012D000D5F83B4804F0F8F80EE055A12046FEF79B
:1012E0004AFF40B900203549087302F0C7F8344876
:1012F00004F0EAF800E00226304611B0F0BD00002C
:10130000656570726F6D2068656C700073617665DD
:1013100064617461200000007361766564617461CA
:101320005B25645D206F6B0D0A00000070616765CE
:101330004E756D206D75737420626520317E32307C
:10134000302C64617461206C656E677468206D7503
:10135000737420626520317E36340D0A000000006F
:10136000726561646461746120000000726561648B
:10137000646174615B25645D3D252E3634730D0A0E
:1013800000000000706167654E756D206D757374A7
:1013900020626520317E3230300D0A00506172616A
:1013A0006D536176652050726F6A6563745479700D
:1013B00065204F51432D466C6578000040020020A7
:1013C0002C7B0008506172616D536176652050720C
:1013D0006F6A6563745479706520425554544F4E5A
:1013E0002D415849532D3100506172616D53617622
:1013F000652050726F6A65637454797065206275F8
:1014000074746F6E5F726F6164000000506172618E
:101410006D536176652050726F6A6563745479709C
:101420006520425554544F4E2D415849532D32009A
:10143000506172616D536176652050726F6A6563A9
:10144000745479706520636F6D6D6F6E5F75736531
:10145000000000002DE9FC4104460026FBA12046C7
:10146000FEF789FE10B905F0E7F821E3FAA120465E
:10147000FEF781FE10B905F0E5F919E3FAA120465F
:10148000FEF779FE10B905F073FB11E3FAA12046CF
:10149000FEF771FE58B9FC480078022801D10120FE
:1014A00000E000200146F9A004F00EF800E3FBA1E3
:1014B0002046FEF760FE10B901F032FCF8E2FAA116
:1014C0002046FEF758FEA8B90020FC490870FC49E8
:1014D00008740021FA4841748174002003F09CF9DB
:1014E000012003F099F9022003F096F9F5A003F02A
:1014F000EBFFDDE20B22FEA12046FEF74AFE0028AC
:101500002DD1EE48007818B9ED48807C012803D130
:10151000FAA003F0D9FFCBE20020019004F10B0503
:101520000A2201A92846FEF743FEF949487003F054
:101530004BFDF749487803F06FF978B9F4494978D9
:10154000022242EA4111C8B201F09BFE0746F04870
:10155000427841783B46EFA003F0B6FFA8E20D22A7
:10156000F4A12046FEF715FE002849D10190009015
:1015700004F10D050A2201A92846FEF719FEE449E7
:10158000487001980078202839D101980078401CD3
:101590002D2809D10A2269460198801CFEF708FE11
:1015A0004042DB49486007E00A2269460198401C36
:1015B000FEF7FEFDD649486000980078F8B9D44897
:1015C0004068E0B1DF48007801280BD1D04840687E
:1015D000002807DDCE484078022803D1DAA003F0C6
:1015E00073FF0CE0B5480078012803D1E5A003F0B3
:1015F0006BFF04E0C64A5168507803F0D9F857E20F
:101600000B22E6A12046FEF7C4FDB8BB00200190E6
:10161000009004F10B050A2201A92846FEF7C8FD37
:10162000BB4948700198007820282ED10198007895
:10163000401C2D2809D10A2269460198801CFEF71A
:10164000B7FD4042B249486007E00A226946019866
:10165000401CFEF7ADFDAE49486000980078A0B987
:10166000AB48406888B19548007818B99448807CA8
:10167000012804D1A1A003F027FF06E006E0A44959
:101680004A684878012103F0D9F811E20D22C6A179
:101690002046FEF77EFD00285CD10190009004F109
:1016A0000D050A2201A92846FEF782FD98494870D7
:1016B0000198007820284CD101980078401C2D28F2
:1016C00009D10A2269460198801CFEF771FD40424B
:1016D0008F49486007E00A2269460198401CFEF7DE
:1016E00067FD8B4948600098007820BB88484068B7
:1016F00008B372480078012803D1A2A003F0E4FEE9
:1017000027E090480078012802D0AB480068D0B9A3
:101710007F484078022816D17D494978022242EA62
:101720004111C8B201F0ADFD79494968884203DA38
:1017300085A003F0C9FE0CE075494A68487800218D
:1017400003F07CF805E072494A684878002103F00C
:1017500075F8ADE10D2299A12046FEF71AFD00288B
:101760005AD10190009004F10D070A2201A93846D0
:10177000FEF71EFD664948700198007820284AD17E
:1017800001980078401C2D2809D10A226946019849
:10179000801CFEF70DFD40425D49486007E00A22CB
:1017A00069460198401CFEF703FD594948600098BE
:1017B000007880BB5648406868B30121544842789D
:1017C0003F48103081540021514842783C48133042
:1017D000815400204E494978394A50544C48416858
:1017E00042783748001D40F8221049484568002DCE
:1017F00001DB2A4600E06A421146454A507801F072
:1018000031FF434A5168507802F0D2FF4048417896
:101810006EA003F059FE4BE10E227AA12046FEF79E
:10182000B8FC002810D10190009004F10E070A22A4
:1018300001A93846FEF7BCFC35494870019800788C
:10184000202802D10198E5E031E12BE16D6F746F42
:10185000722068656C7000006D6F746F7220676530
:10186000742068656C7000006D6F746F7220736512
:10187000742068656C7000006D6F746F7220726503
:101880007365743F00000000220100206D6F746FCB
:10189000722072657365743D25640A006D6F746F04
:1018A00072207265736574006D6F746F722073744B
:1018B0006F7020726573657400000000B70000202F
:1018C0007C0200206D6F746F722073746F702072D1
:1018D0006573657420616E6420616C6C206D6F743B
:1018E0006F722069732073746F700D0A000000001E
:1018F0006D6F746F722073746F7020006D6F746FF2
:1019000072206973207265736574696E670A0000DE
:10191000040100206D6F746F725B25645D20697334
:101920002073746F7020616E6420505B25645D3D90
:1019300025640A006D6F746F7220726F7461746534
:10194000200000009400002070726573737572654A
:10195000206F766572686967682C206D6F746F728E
:10196000207A20697320666F7262696464656E20F4
:10197000746F206D6F766520646F776E7761726427
:101980000D0A00006D6F746F7220697320726573A9
:10199000657474696E670D0A000000006D6F746FE6
:1019A00072206D6F766520006D6F746F72206D6FA1
:1019B0007665746F20000000080123426D6F746F1C
:1019C0007220676F686F6D65200000006D6F746F27
:1019D000725B25645D206973207374617274206783
:1019E0006F20686F6D65206279207365617263682E
:1019F000696E6720686F6D652073656E736F720A1C
:101A0000000000006D6F746F7220676F6C696D6904
:101A1000742000000078401C2D2809D10A22694654
:101A20000198801CFEF7C4FB40422349486007E050
:101A30000A2269460198401CFEF7BAFB1E4948601D
:101A40000098007870BB1C48406858B300211A48C1
:101A500042781A4881540121174842781748C01C1F
:101A60008154002014494978144A103A50541248BD
:101A70004168427811480C3840F822100E484568F9
:101A8000002D01DB2A4600E06A4211460A4A5078DE
:101A900001F0E8FD084A5168507802F089FE0648D6
:101AA000417800E002E006A003F00EFD00E002260F
:101AB0003046BDE8FC810000040100208C020020BB
:101AC0006D6F746F725B25645D2069732073746140
:101AD000727420676F20686F6D652062792073656E
:101AE00061726368696E67206C696D6974207365E3
:101AF0006E736F720A000000F8B505460026CAA191
:101B00002846FEF738FB10B904F09CFE8AE10A2251
:101B1000C9A12846FEF73DFB00287DD105F10A0446
:101B20000622C8A12046FEF734FB88B900200090A9
:101B3000A71D0A2269463846FEF73AFBC34948709A
:101B40000098007818B94878032102F0E7FA67E1B5
:101B50000922BFA12046FEF71CFB90B9002000908F
:101B600004F109070A2269463846FEF721FBB74906
:101B700048700098007818B94878012102F0CEFA30
:101B80004EE10922B5A12046FEF703FB90B90020E3
:101B9000009004F109070A2269463846FEF708FB5F
:101BA000AA4948700098007818B94878182102F0BE
:101BB000B5FA35E10822ACA12046FEF7EAFA90B961
:101BC0000020009004F108070A2269463846FEF713
:101BD000EFFA9E4948700098007818B948781921A2
:101BE00002F09CFA1CE10922A2A12046FEF7D1FADC
:101BF00098B90020009004F109070A226946384686
:101C0000FEF7D6FA914948700098007818B94878DC
:101C10001A2102F083FA03E103E10B2298A1204686
:101C2000FEF7B7FA90B90020009004F10B070A22E2
:101C300069463846FEF7BCFA844948700098007837
:101C400018B94878022102F069FAE9E00E228FA162
:101C50002046FEF79EFA90B90020009004F10E078E
:101C60000A2269463846FEF7A3FA78494870009878
:101C7000007818B94878002102F050FAD0E0052227
:101C800086A12046FEF785FA88B900200090671DDE
:101C90000A2269463846FEF78BFA6C49487000986C
:101CA000007818B94878042102F038FAB8E0052223
:101CB0007CA12046FEF76DFA88B900200090671DD0
:101CC0000A2269463846FEF773FA60494870009860
:101CD000007818B94878052102F020FAA0E0112216
:101CE00072A12046FEF755FA90B90020009004F149
:101CF00011070A2269463846FEF75AFA53494870D6
:101D00000098007818B94878062102F007FA87E0B1
:101D10000B226BA12046FEF73CFA90B90020009000
:101D200004F10B070A2269463846FEF741FA474993
:101D300048700098007818B94878082102F0EEF948
:101D40006EE00A2261A12046FEF723FA90B9002036
:101D5000009004F10A070A2269463846FEF728FA7D
:101D60003A4948700098007818B94878092102F07B
:101D7000D5F955E058A12046FEF7FDF928B93349B9
:101D800048780A2102F0CAF94AE00B2255A1204600
:101D9000FEF7FFF990B90020009004F10B070A222A
:101DA00069463846FEF704FA2849487000980078DA
:101DB00018B94878172102F0B1F931E009224CA195
:101DC0002046FEF7E6F990B90020009004F10907DB
:101DD0000A2269463846FEF7EBF91C49487000981C
:101DE000007818B94878142102F098F918E00A220E
:101DF00042A12046FEF7CDF990B90020009004F1F1
:101E00000A070A2269463846FEF7D2F90F49487098
:101E10000098007818B94878152102F07FF900BFC2
:101E200000E002263046F8BD6D6F746F7220676562
:101E3000742068656C7000006D6F746F7220676548
:101E400074200000737065656420000004010020A8
:101E5000706F736974696F6E2000000069735F684A
:101E60006F6D65642000000069735F73746F70208C
:101E70000000000069735F72656163682000000004
:101E80006E6578745F737065656420006E65787444
:101E90005F706F736974696F6E200000564D415812
:101EA00020000000414D415820000000706F736910
:101EB00074696F6E5F72656163686564200000001D
:101EC00072696768744C696D697420006C6566742A
:101ED0004C696D69742000006C696D697420616CD7
:101EE0006C000000686F6D6553656E736F72200043
:101EF00072616D705F6469762000000070756C73AC
:101F0000655F6469762000002DE9FC4105460026E6
:101F10000A22DFA12846FEF73CF900287BD105F113
:101F20000A04DEA12046FEF726F910B904F020FECF
:101F3000A8E10622DBA12046FEF72BF988BB002092
:101F400001900090A71D0A2201A93846FEF730F93A
:101F5000D649487001980078202821D1019800784E
:101F6000401C2D2808D10A2269460198801CFEF7E2
:101F70001FF9CE49486007E00A2269460198401CD3
:101F8000FEF716F9C94948600098007840B9C7487B
:101F9000406828B1C5494A684878042102F0D2FC5B
:101FA00070E1FFE70B22C2A12046FEF7F2F898BBD2
:101FB00000200190009004F10B070A2201A9384685
:101FC000FEF7F6F8B949487001980078202821D129
:101FD00001980078401C2D2808D10A2269460198F2
:101FE000801CFEF7E5F8B149486007E00A2269461F
:101FF0000198401CFEF7DCF8AC4948600098007876
:1020000040B9AA48406828B1A8494A6848780221DE
:1020100002F098FC36E136E1FFE70E22A7A1204648
:10202000FEF7B7F890BB00200190009004F10E0776
:102030000A2201A93846FEF7BBF89C49487001986E
:102040000078202821D101980078401C2D2808D143
:102050000A2269460198801CFEF7AAF89349486055
:1020600007E00A2269460198401CFEF7A1F88F4953
:1020700048600098007840B98C48406828B18B4986
:102080004A684878002102F05DFCFBE0FFE710227F
:102090008EA12046FEF77DF890BB002001900090B5
:1020A00004F110070A2201A93846FEF781F87F499A
:1020B000487001980078202821D101980078401CB0
:1020C0002D2808D10A2269460198801CFEF770F875
:1020D0007649486007E00A2269460198401CFEF7ED
:1020E00067F8724948600098007840B96F484068C6
:1020F00028B16E494A684878012102F023FCC1E00A
:10210000FFE7052276A12046FEF743F8F8B9002044
:1021100001900090671D0A2201A93846FEF748F891
:10212000624948700198007820280FD10A22694638
:102130000198401CFEF73CF85C4948600098007824
:1021400020B94A684878042102F0FCFB9AE0052295
:1021500065A12046FEF71DF8F8B900200190009017
:10216000671D0A2201A93846FEF722F84F49487038
:102170000198007820280FD10A2269460198401C56
:10218000FEF716F8494948600098007820B94A6877
:102190004878052102F0D6FB74E0092254A12046BC
:1021A000FDF7F7FF00BB00200190009004F1090744
:1021B0000A2201A93846FDF7FBFF3C494870019807
:1021C000007820280FD10A2269460198401CFDF7AB
:1021D000EFFF364948600098007820B94A6848788F
:1021E000142102F0AFFB4DE00A2244A12046FDF786
:1021F000D0FF00BB00200190009004F10A070A22E2
:1022000001A93846FDF7D4FF2849487001980078A5
:1022100020280FD10A2269460198401CFDF7C8FF0B
:10222000224948600098007820B94A68487815210A
:1022300002F088FB26E00C2233A12046FDF7A9FF1F
:1022400000BB00200190009004F10C070A2201A9B4
:102250003846FDF7ADFF15494870019800782028F1
:102260000FD10A2269460198401CFDF7A1FF0F49D2
:1022700048600098007820B94A684878162102F032
:1022800061FB00BF00E002263046BDE8FC81000093
:102290006D6F746F722073657420000068656C70D8
:1022A00000000000737065656420000004010020D8
:1022B0006E6578745F737065656420006E65787410
:1022C0005F706F736974696F6E200000616374756D
:1022D000616C5F706F736974696F6E20000000003D
:1022E000564D415820000000414D4158200000004B
:1022F00072616D705F6469762000000070756C73A8
:10230000655F6469762000006C696D697453696764
:102310006E616C200000000070B5044600254DA1E0
:102320002046FDF728FF18B94EA003F0CDF88EE047
:1023300059A12046FDF71FFF18B95CA003F0C4F8AF
:1023400085E068A12046FDF716FF18B969A003F0E3
:10235000BBF87CE06FA12046FDF70DFF18B976A011
:1023600003F0B2F873E084A12046FDF704FF18B92A
:102370008AA003F0A9F86AE098A12046FDF7FBFEC9
:1023800018B99BA003F0A0F861E0A3A12046FDF7D7
:10239000F2FE18B9A4A003F097F858E0B0A12046C7
:1023A000FDF7E9FE18B9B1A003F08EF84FE029A1BE
:1023B0002046FDF7E0FE18B9B6A003F085F846E028
:1023C00048A12046FDF7D7FE18B9C0A003F07CF85D
:1023D0003DE0C6A12046FDF7CEFE002836D1CAA0BA
:1023E00003F072F8CF4803F06FF8CF4803F06CF8B1
:1023F000CE4803F069F8CE4803F066F8CD4803F004
:1024000063F8CD4803F060F8CC4803F05DF8CC48A1
:1024100003F05AF8CB4803F057F8CB4803F054F8D0
:10242000CA4803F051F8CA4803F04EF8C94803F00F
:102430004BF8C94803F048F8C84803F045F8C848C5
:1024400003F042F8C7A003F03FF800E00225284659
:1024500070BD00005B74756E6E656C2D522D305D25
:10246000000000005B74756E6E656C2D522D305D42
:102470003C74756E6E656C2D522D303E0D0A5B30CE
:10248000303130353039385D2054554E4E454C3A58
:10249000204F50454E0D0A007379736366672070B4
:1024A00072696E74204D4C4223000000737973638F
:1024B0006667207072696E74204D4C42230D0A3E8F
:1024C000207379736366673A6F6B202247464838FA
:1024D000323933303031474A4A4E563148220D0A9C
:1024E0005D0D0A0066742075706C6F616420302089
:1024F0003136000066742075706C6F616420302086
:1025000031360D0A3E2066743A6F6B20626567694A
:102510006E0000003030303030303030303130300C
:1025200030303030303030303030303030303030AB
:10253000303030300000000030303030303030305B
:10254000303130303030303030303030303030308A
:1025500030303030303030300D0A3E2066743A6F03
:102560006B20646F6E6520307837373145303733F4
:10257000410D0A5D0D0A000030303030303030300F
:10258000303030303030303030303030303030304B
:1025900030303030303030300000000030303030FB
:1025A000303030303030303030303030303030302B
:1025B0003030303030303030303030300D0A3E2066
:1025C00066743A6F6B20646F6E65203078454342C5
:1025D00042344235350D0A5D0D0A0000737973638C
:1025E00066672061646420436C66452031360000D4
:1025F0007379736366672061646420436C66452069
:1026000031360D0A3E207379736366673A6F6B0D3E
:102610000A5D0D0A0000000066742074756E6E6518
:102620006C20636C6F73650066742074756E6E65E4
:102630006C20636C6F73650D0A3E2066743A6F6B95
:102640000D0A5B30303131353137305D2054554E15
:102650004E454C3A20434C4F5345440D0A00000070
:1026600066742072657365740000000066742072E1
:10267000657365740D0A3E5B303031303839343360
:102680005D2054554E4E454C3A20434C4F534544E3
:102690000D0A00005B74756E6E656C2D522D305DF9
:1026A0003C74756E6E656C2D522D303E0D0A5B309C
:1026B000303131303136395D2054554E4E454C3A2B
:1026C000204F50454E0D0A5D0D0A000066742075BE
:1026D000706C6F616420302031360D0A3E206674C4
:1026E0003A6F6B20626567696E0D0A0062657279E8
:1026F0006C2069656474657374207261772031356C
:102700002033333030000000626572796C206965D7
:1027100064746573742072617720313520333330EF
:10272000300D0A00A07A00083C7500089875000872
:10273000F475000850760008AC76000808770008A9
:1027400064770008C07700081C78000878780008D3
:10275000D4780008307900088C790008E8790008FE
:10276000447A00080D0A3E20626572796C3A6F6BFC
:102770000D0A5D0D0A00000070B50446002519A180
:102780002046FDF7F8FC10B904F016FA28E018A16D
:102790002046FDF7F0FC50B9002018490870402091
:1027A00000F06FFD1649086002F018FC18E015A152
:1027B0002046FDF7E0FC28B902F006FC15A002F067
:1027C00083FE0DE01DA12046FDF7D5FC38B94FF47E
:1027D000E13000F0F9F90FA002F076FE00E00225EA
:1027E000284670BD75617274332068656C70000096
:1027F0007072696E746461746100000025010020CC
:102800002801002073746F70207072696E746461A7
:102810007461000073746F70207072696E74696EF9
:1028200067207468652070726573737572652076B1
:10283000616C7565206F6B0D0A0000007561727424
:1028400033207265696E69740000000070470000F3
:1028500010B5042000F040F811480068C0B901200C
:102860001049087002F0B0FB0F48807C012809D1A4
:102870000D48C068002805DA0B48C168022001F045
:1028800097FF05E0022000F012F908A002F01CFEFC
:1028900003480068012802D100200249087010BDD9
:1028A00008012342940000207C02002073746F70A2
:1028B000206D6F746F72207A2064756520746F20AC
:1028C0007072657373757265206F7665726869677B
:1028D000682121210D0A00000149086070470000AD
:1028E0001404014062B670472DE9F041024600250C
:1028F0000026002000230024002791F803C00CF0DC
:102900000F0591F803C00CF0100CBCF1000F03D0C0
:1029100091F802C04CEA050591F800C0BCF1000F27
:1029200031D0146800202BE04FF0010C0CFA00F3BA
:10293000B1F800C00CEA03069E4220D183004FF09C
:102940000F0C0CFA03F7BC4305FA03FC4CEA040431
:1029500091F803C0BCF1280F06D14FF0010C0CFA1E
:1029600000FCC2F814C00AE091F803C0BCF1480FA3
:1029700005D14FF0010C0CFA00FCC2F810C0401C4D
:102980000828D1D31460B1F800C0BCF1FF0F34DDCA
:10299000546800202EE000F1080C4FF0010808FAFE
:1029A0000CF3B1F800C00CEA03069E4221D183006B
:1029B0004FF00F0C0CFA03F7BC4305FA03FC4CEA8A
:1029C000040491F803C0BCF1280F05D100F1080CF4
:1029D00008FA0CF8C2F8148091F803C0BCF1480F53
:1029E00007D100F1080C4FF0010808FA0CF8C2F802
:1029F0001080401C0828CED35460BDE8F081000050
:102A0000F0B50A46002300240021002500F000460E
:102A1000B6F1004F02D11D4EF16901E01B4E716805
:102A2000C0F3034583B200F44016B6F5401F08D149
:102A300021F07061154E766826F07066134F7E6047
:102A400012E000F48016B6F5801F06D1032606FAC0
:102A500005F4A14341F0706106E0460D360103FA2A
:102A600006F6B14341F0706122B1460D360103FA1A
:102A700006F6314300F00046B6F1004F02D1034E96
:102A8000F16101E0014E7160F0BD00000000014005
:102A90000246002093680B400BB1012000E00020AB
:102AA0007047416170470161704700BFFEE710B594
:102AB0000446E0B2022100F0FBFC082141EA441187
:102AC000C8B202F0BDFC0A2141EA4411C8B202F0CA
:102AD000B7FC10BD10B586B00446394802F078FB4B
:102AE0000121880300F02CFB0121042000F028FBC9
:102AF00003208DF8020018208DF803004FF40070B9
:102B0000ADF8000069462F48FFF7EEFE04208DF86F
:102B100003000002ADF8000069462A48FFF7E4FE12
:102B200002A802F046FC029402A9254802F0D0FB5C
:102B300025208DF8040004208DF8050000208DF874
:102B4000060001208DF8070001A800F021FA40F2EC
:102B5000FF311B4802F018FB00222821184802F020
:102B600092FB002240F22771154802F08CFB0022F4
:102B700040F22661124802F086FB012240F2255104
:102B80000F4802F080FB002240F224410C4802F082
:102B90007AFB002240F64601094802F074FB00224D
:102BA00040F66A11064802F06EFB002260210448DC
:102BB00002F069FB0121024802F0FEFA06B010BDE6
:102BC000003801400008014010B586B004463B487B
:102BD00002F0FEFA0121212000F0B2FA012188045E
:102BE00000F08EFA01213648FFF70AFF03208DF826
:102BF000020018208DF803004FF48070ADF800003B
:102C000069463048FFF770FE04208DF80300C001CC
:102C1000ADF8000069462B48FFF766FE02A802F0F7
:102C2000C8FB029402A9254802F052FB27208DF828
:102C3000040005208DF8050000208DF80600012015
:102C40008DF8070001A800F0A3F940F2FF311B48FE
:102C500002F09AFA00222821184802F014FB002200
:102C600040F22771154802F00EFB002240F2266167
:102C7000124802F008FB002240F225510F4802F0F2
:102C800002FB002240F224410C4802F0FCFA002230
:102C900040F64601094802F0F6FA002240F66A11B1
:102CA000064802F0F0FA00226021044802F0EBFA34
:102CB0000121024802F080FA06B010BD0048004031
:102CC000300014000014014070B5044601F0D2F940
:102CD00010490968451A002D01DB284600E06842CA
:102CE000A04216DD0C48007B072806D10A48007B6D
:102CF00018B90948007B062807D00121084603F0CF
:102D000085F80221084603F05DF801F0B3F90149A6
:102D1000086070BD300100204002002000BFFEE7C7
:102D200010B50120374908700121022003F0F2FF9D
:102D30000021012003F0EEFF02F046F901203249A4
:102D40000870002001F068FD012001F065FD0220FF
:102D500001F062FD40F2FF71062002F04BFB40F2F1
:102D6000FF71262002F046FB40F2FF71462002F080
:102D700041FB002410E0002024490855002123488D
:102D800010300155C01C0155214850F82410204630
:102D900000F068FC601CC4B2032CECDB1C4830382B
:102DA000007B012807D0022804D004280DD0052874
:102DB00025D109E000BF01211448417480684142D7
:102DC000012001F0F5FC1BE000BF01210F488174D8
:102DD0000021417500200D4988700D483038806B06
:102DE00041420A48C1600A483038806B41420220A3
:102DF00001F0DEFC022107A002F066FB00E000BF4C
:102E000000BF10BDB7000020220100207C0200207E
:102E1000700200206D6F746F725B25645D206973B2
:102E200020737461727420676F20686F6D65206213
:102E30007920736561726368696E6720686F6D657C
:102E40002073656E736F720D0A00000070B5044642
:102E50000D463548005D002865D00A2141EA44113D
:102E6000C8B200F02BFA68BB03217C2000F040FAC6
:102E70000646610002208840304008B1012000E091
:102E8000002050B1002D04DD2946204601F090FCC1
:102E900003E06942204601F08BFC6100012088407C
:102EA000304008B1012000E0002050B1002D04DDC9
:102EB0006942204601F07CFC03E02946204601F0EF
:102EC00077FC30E01948007B04280CD12CB9184954
:102ED000085D03F0CBF901280ED024B11449085D38
:102EE00003F0C4F940B11148007B04281BD01049FD
:102EF000085D03F0BBF9B0B9002D07DD0A2141EAF6
:102F00004411C8B200F0DAF9002809DB002D0ADA12
:102F10000A2141EA4411C8B200F0D0F9002802DDCC
:102F2000204603F003FF70BD8C0200204002002009
:102F3000DC00002070B504460D461348005D08B360
:102F400003217C2000F0D4F906466100022088406D
:102F5000304008B1012000E0002020B1002D02DA4D
:102F6000204603F0E3FE610001208840304008B1B4
:102F7000012000E0002020B1002D02DD204603F0FA
:102F8000D5FE00BF70BD00008F020020704700001A
:102F900070B5002100230F22C47804B3154C2468B7
:102FA00004F4E064C4F5E064210AC1F10403CA40FA
:102FB000447804FA03F184781440214309010E4C4B
:102FC0000678A155047804F01F050124AC4005786B
:102FD0006D11AD0005F1E025C5F8004109E0047868
:102FE00004F01F050124AC40044D0678761145F825
:102FF000264070BD0CED00E000E400E080E100E060
:1030000002490143024A1160704700000000FA05BE
:103010000CED00E07047000070B5044601F02AF89E
:103020001D490968451A002D01DB284600E0684269
:10303000A04230DD1948007B072806D11748007BE5
:1030400018B91648007B062821D015480068B8B981
:103050004A2000F033F9002812DD12480078401CA5
:103060001049087008460078022810DB0220FFF79C
:103070001EFD00200B4908700BA002F025FA06E0A7
:1030800007480068012802D100200649087000F0B6
:10309000F1FF0149086070BD3401002040020020AA
:1030A000080123423801002073746F70206D6F7423
:1030B0006F72207A2064756520746F20707265735A
:1030C00073757265206F7665726869676821212162
:1030D0000D0A000010B50848008800F4004048B10F
:1030E0000548047800200549085503F095FD0020A7
:1030F0000149088010BD0000920000200C02002051
:1031000029B1064AD2690243044BDA6104E0034A5A
:10311000D2698243014BDA6170470000001002401F
:1031200029B1064A12690243044B1A6104E0034ABA
:1031300012698243014B1A6170470000001002407F
:1031400029B1064A92690243044B9A6104E0034A9A
:1031500092698243014B9A6170470000001002405F
:1031600029B1064AD2680243044BDA6004E0034AFC
:10317000D2688243014BDA607047000000100240C1
:1031800030B500210022002400232D4D6D6805F08C
:103190000C0121B1042905D0082923D105E0294DCE
:1031A000056022E0274D05601FE0254D6D6805F4A0
:1031B0007012234D6D6805F48034022505EB9242B0
:1031C0001CB9214D554305600BE01D4D6D6805F49C
:1031D00000351DB11C4D5543056002E0194D5543A6
:1031E000056002E0174D056000BF00BF144D6D681B
:1031F00005F0F0010909154D6B5C0568DD4045607F
:103200000F4D6D6805F4E061090A104D6B5C45686F
:10321000DD4085600A4D6D6805F46051C90A0B4DAB
:103220006B5C4568DD40C560054D6D6805F4404147
:10323000890B074D6B5CC568B5FBF3F5056130BDC7
:103240000010024000127A0000093D001400002026
:10325000240000207CB505460C4645F001008DF8A1
:103260000000694601A800F08BF89DF80500207069
:103270009DF8060060709DF80700A0709DF804009E
:103280007CBD7CB5054645F001008DF8000069461F
:1032900001A800F075F89DF8050000049DF80610DF
:1032A00040EA01209DF8071040EA010404F4000000
:1032B00008B144F07F4420467CBD00007CB5054643
:1032C00045F001008DF80000694601A800F058F8AB
:1032D0009DF807009DF8061040EA012404F4006000
:1032E00008B10248044320467CBD000000F0FFFF07
:1032F0007CB504460D4644F001008DF80000694697
:1033000001A800F03DF801A8405D7CBD10B5012288
:103310001146104600F050F810BD0000F0B587B01F
:1033200004460D460027002C21DDC92C1FDA402160
:1033300004F137008001104BCDE9055104901033A2
:103340000FCB8DE80F000D48D0F808C00A480FC811
:10335000E047002607E0A85D7F2802DD0020A85591
:1033600003E0701CC6B2402EF5DB00BF00E004276E
:10337000384607B0F0BD0000BC0000202800002047
:1033800070B504460D4629780022012000F014F89B
:10339000207069780022012000F00EF86070A97892
:1033A0000022012000F008F8A070E9780122104600
:1033B00000F002F8E07070BD2DE9F04105460F46BF
:1033C00016460024A046012D2DD110201749486132
:1033D00006E0601C84B2C82C02DD0020BDE8F0814C
:1033E0000221134800F03AF80028F2D0394610487C
:1033F00000F040F8002405E0601C84B2C82C01DD18
:103400000020EBE701210A4800F028F80028F3D05B
:10341000074800F02CF800F0FF0816B1102003490F
:1034200008614046DAE70020D8E7000000100140BC
:10343000003001400146012080F3138800BF19B11C
:103440000448054A106003E00248C01E024A1060AA
:10345000704700000400FFFF0CED00E00246002072
:1034600013890B400BB1012000E00020704701469A
:1034700088897047818170477047000010B588B017
:103480003C2008490022084BCDE904210690103366
:103490000FCB8DE80F000548C46803480FC8A0474C
:1034A00008B010BD40020020BC0000202800002011
:1034B0007CB504460D46142040EA4410401CC0B2BE
:1034C0008DF8040001A96846FFF75AFF142040EA6E
:1034D0004410C0B28DF804009DF801008DF805007D
:1034E0009DF802008DF806008DF8075001A9684686
:1034F000FFF746FF7CBD00002DE9F04F8DB005467B
:103500000F46C7F30A07182141EA4511C8B208A9B6
:10351000FFF7A0FE9DF82100099009984FEA201AB4
:10352000099800F00F094FF0FF300B900A90D14539
:103530001DDBA9EB0A02012101FA02F0FCF751FFA1
:103540000022444BCDE90001FCF76AFECDE90401FD
:103550003846FCF757FFCDE90201DDE90423FCF70B
:10356000D1FECDE90601FCF78CFF80461EE0AAEBF8
:103570000902012101FA02F0FCF733FF02460B4673
:10358000CDE9000100203349FCF7BCFECDE9040180
:103590003846FCF737FFCDE90201DDE90423FCF7EB
:1035A000B1FECDE90601FCF76CFF80464046FCF712
:1035B00055FF294A294BCDE90401FCF731FECDE93D
:1035C0000601FCF75EFF8346002424E0012101FA96
:1035D00004F0FCF706FFCDE904015846FCF73EFF76
:1035E00000221F4BCDE90001FCF71AFECDE90201D4
:1035F000DDE90423FCF714FECDE90601FCF70FFF1B
:10360000A0F18006002E05DB7F2E03DC06F1800092
:103610000B900A94641C0D2CD8DD00208DF820003E
:103620000B98C0B28DF821000A98C0B28DF8220024
:10363000122141EA4511C8B208A901F0C8FE0C21C7
:1036400041EA4511C8B2394601F0E7FE00200DB04D
:10365000BDE8F08F0000604004560E2DB29DEF3F94
:103660000000204070B505460C4605EB4500EC49CE
:1036700001EB8000007A062854D105EB450001EBF0
:103680008000407A08284DD1692C08D140F21310EF
:1036900005EB4501E24A02EB8101486038E0322C3B
:1036A00007DA0A2005EB4501DD4A02EB810148609B
:1036B0002EE0312C0ADD692C08DA04F10A0005EB52
:1036C0004501D74A02EB8101486021E0692C09DD00
:1036D000D22C07DA600005EB4501D14A02EB8101EB
:1036E000486015E0D12C0BDDB4F5C87F08DA4FF443
:1036F0007A7005EB4501CA4A02EB8101486007E098
:1037000040F2FF7005EB4501C54A02EB81014860BC
:1037100005EB4500C24A02EB800041682846FFF7EE
:10372000EBFE7CE105EB4500BD4901EB8000007A32
:10373000052844D105EB450001EB8000407A0828BC
:103740003DD1462C07D1C82005EB4501B44A02EB18
:103750008101486029E0322C06DA05EB4500B049CA
:1037600001EB8000446020E0312C09DD692C07DA90
:10377000600005EB4501AA4A02EB8101486014E0B4
:10378000682C0ADDD22C08DA04EB440005EB450175
:10379000A34A02EB8101486007E04FF4FA6005EBB1
:1037A00045019F4A02EB8101486005EB45009C4AB8
:1037B00002EB800041682846FFF79EFE2FE105EBF3
:1037C0004500974901EB8000007A072878D105EB86
:1037D000450001EB8000407A0A28F7D1192C0BDA5A
:1037E000611D2846FFF788FE601D05EB45018C4AE8
:1037F00002EB8101486012E1642C0DDA04F10A0148
:103800002846FFF779FE04F10A0005EB4501844ADA
:1038100002EB8101486002E1962C0DDA04F11E01F1
:103820002846FFF769FE04F11E0005EB45017C4ABE
:1038300002EB81014860F2E0B4F58C7F0DDA04F10F
:103840003C012846FFF758FE04F13C0005EB45011A
:10385000734A02EB81014860E1E0B4F5D27F0DDAF2
:1038600004F164012846FFF747FE04F1640005EB0C
:1038700045016B4A02EB81014860D0E0B4F50C7F52
:103880000DDA04F196012846FFF736FE04F19600A2
:1038900005EB4501624A02EB81014860BFE0B4F5E7
:1038A0002F7F0EDA04F1C8012846FFF725FE04F148
:1038B000C80005EB45015A4A02EB81014860AEE0C1
:1038C00045E0B4F5527F0DDA04F1FA012846FFF71E
:1038D00013FE04F1FA0005EB4501514A02EB8101A8
:1038E00048609CE0B4F5757F0DDA04F596712846C2
:1038F000FFF702FE04F5967005EB4501484A02EB1E
:10390000810148608BE040F29C4084420DDC04F56C
:10391000AF712846FFF7F0FD04F5AF7005EB4501E8
:103920003F4A02EB8101486079E040F2FF70844237
:1039300075DA04F516712846FFF7DEFD04F51670FA
:1039400005EB4501364A02EB8101486067E005EB73
:103950004500334901EB8000007A05285FD105EB73
:10396000450001EB8000407A082858D1192C0ADA6A
:1039700021462846FFF7C0FD05EB4500284901EB2D
:10398000800044604BE0322C0BDA611D2846FFF7C3
:10399000B3FD601D05EB4501214A02EB8101486042
:1039A0003DE0642C0BDA64212846FFF7A5FD642076
:1039B00005EB45011A4A02EB810148602FE0962C85
:1039C0000DDA4FF4FA712846FFF796FD4FF4FA70BE
:1039D00005EB4501124A02EB810148601FE0FA2C19
:1039E0000DDA4FF47A712846FFF786FD4FF47A70AE
:1039F00005EB45010A4A02EB810148600FE040F205
:103A0000FF7084420BDA01462846FFF775FD40F24D
:103A1000FF7005EB4501024A02EB8101486070BD71
:103A2000E000002010B500F001F810BD0CB500203A
:103A3000019000903348006840F4803031490860BC
:103A400000BF3048006800F4003000900198401C2E
:103A50000190009818B90198B0F5A06FF1D12948EC
:103A6000006800F4003010B10120009001E0002057
:103A700000900098012843D12348006840F01000CE
:103A8000214908600846006820F0030008600846E5
:103A9000006840F0020008601A4840681949486010
:103AA0000846406848600846406840F480604860C6
:103AB0000846406820F47C1048600846406840F49E
:103AC000E81048600846006840F08070086000BF59
:103AD0000C48006800F000700028F9D009484068E0
:103AE00020F00300074948600846406840F00200A3
:103AF000486000BF0348406800F00C000828F9D176
:103B00000CBD0000001002400020024073B50C46BE
:103B10009DF8010002F0AAFBA0B19DF8000002F0A0
:103B2000A5FB78B1009800F076F92146009800F0E6
:103B300021F9009800F0ABF90546009800F08BF9E8
:103B400028467CBD0120FCE701B59DF80100142149
:103B500002F020FB9DF80000142102F01BFB0098EE
:103B600000F079F908BD73B50D46082600249DF8CC
:103B70000100482102F00EFB002618E0022002F0AE
:103B800093F99DF8000002F092FB6006040E9DF888
:103B9000010002F06BFB08B1601CC4B2022002F00D
:103BA00083F99DF8000002F073FB701CC6B2082E6A
:103BB000E4DB1DB9009800F00EF902E0009800F077
:103BC000B5F820467CBD2DE9FF47884615461C46C2
:103BD000DDE90C69B8F1000F09D0B8F1010F07D089
:103BE000B8F1020F26D0B8F1030F76D14CE000BF38
:103BF000009800F010F905F0FE01009800F0BAF806
:103C0000009800F044F918B1012004B0BDE8F08735
:103C10002746E01704EB10600012A4EB0020C1B2AD
:103C2000009800F0A7F8009800F031F908B10220E0
:103C3000EBE753E0009800F0EEF805F0FE01009885
:103C400000F098F8009800F022F908B10120DCE7B4
:103C50002112009800F08EF8009800F018F908B1D1
:103C60000220D2E72746E01704EB10600012A4EB15
:103C70000020C1B2009800F07DF8009800F007F92C
:103C800008B10220C1E729E0009800F0C4F82746F7
:103C9000E01704EB10600012FE2202EB400000EA85
:103CA0000501009800F066F8009800F0F0F808B1FF
:103CB0000120AAE72746E01704EB10600012A4EBEE
:103CC0000020C1B2009800F055F8009800F0DFF82D
:103CD00010B1022099E700E000E000BF00BF0098AB
:103CE00000F099F845F00101009800F043F80098C1
:103CF00000F0CDF808B1032087E709E0A9F1010041
:103D00001FFA80F901210098FFF72DFF06F8010B3B
:103D1000B9F1010FF2D100210098FFF724FF06F856
:103D2000010B009800F097F800206EE701B59DF8B0
:103D3000000002F0ADFA9DF80100142102F02AFA09
:103D40009DF8010002F0A4FA022002F0ADF89DF8FF
:103D5000000002F0ACFA022002F0A6F89DF8000084
:103D600002F096FA022002F09FF89DF8010002F09E
:103D70009EFA08BD73B50C469DF80100142102F0AF
:103D800009FA9DF8000002F083FA012002F08CF895
:103D9000002519E0E1099DF8010002F0A4FA60068F
:103DA000040E012002F080F89DF8000002F07FFA76
:103DB000022002F079F89DF8000002F069FA012073
:103DC00002F072F8681CC5B2082DE3DB9DF8010013
:103DD00002F06DFA7CBD01B59DF8000002F058FAC2
:103DE0009DF80100142102F0D5F99DF8010002F0C0
:103DF0005EFA022002F058F89DF8000002F057FA2F
:103E0000022002F051F89DF8000002F041FA012072
:103E100002F04AF808BD01B59DF80100142102F036
:103E2000B9F99DF8010002F042FA9DF8000002F095
:103E30003EFA042002F038F89DF8010002F028FA5A
:103E4000042002F031F89DF8000002F021FA04206D
:103E500002F02AF808BD01B59DF80100142102F016
:103E600099F99DF8010002F013FA012002F01CF804
:103E70009DF8000002F01BFA042002F015F89DF8EE
:103E8000010002F014FA042002F00EF808BD31B56A
:103E900000249DF80100482102F07CF9012002F085
:103EA00003F89DF8000002F002FA012001F0FCFF87
:103EB00008E0601CC4B2FA2C04DD0098FFF7CBFFC9
:103EC000012038BD9DF8010002F0D0F90028F0D1A2
:103ED0009DF8000002F0DCF9012001F0E5FF002070
:103EE000EFE72DE9FF470F4615461C46DDE90C8933
:103EF0000098FFF790FF37B1012F12D0022F2DD07D
:103F0000032F78D151E005F0FE010098FFF732FF52
:103F10000098FFF7BCFF18B1012004B0BDE8F0879E
:103F200000BF05F0FE010098FFF724FF0098FFF79F
:103F3000AEFF08B10120F0E72646E01704EB106061
:103F40000012A4EB0020C1B20098FFF713FF009805
:103F5000FFF79DFF08B10220DFE74DE005F0FE010D
:103F60000098FFF707FF0098FFF791FF08B10120C5
:103F7000D3E721120098FFF7FDFE0098FFF787FFB7
:103F800008B10220C9E72646E01704EB10600012D2
:103F9000A4EB0020C1B20098FFF7ECFE0098FFF7F9
:103FA00076FF08B10220B8E726E02646E01704EBCA
:103FB00010600012FE2202EB400000EA05010098AA
:103FC000FFF7D8FE0098FFF762FF08B10120A4E7D1
:103FD0002646E01704EB10600012A4EB0020C1B2EB
:103FE0000098FFF7C7FE0098FFF751FF10B10220BD
:103FF00093E700E000E000BF00BF0AE018F8011BF3
:104000000098FFF7B7FE0098FFF741FF08B10320C3
:1040100083E7B9F10000A9F101011FFA81F9EDD19F
:104020000098FFF718FF0A2001F02EFF002074E728
:1040300010B50446E0B20221FFF73AFA082141EA3E
:104040004411C8B201F0FCF910BD042808D14FF0AA
:10405000E021096941F004014FF0E022116107E01D
:104060004FF0E021096921F004014FF0E0221161D5
:1040700070470000014800687047000060000020A1
:1040800002480068401C0149086070476000002039
:1040900010B56FF00400FFF7D8FF42F228304FF060
:1040A000E02148610846006940F0020008610846C6
:1040B000006940F00100086110BD000010B5134810
:1040C000006840F001001149086008464068104946
:1040D00008400E494860084600680E4908400B49F0
:1040E00008600846006820F48020086008464068A0
:1040F00020F4FE0048604FF41F008860FFF792FC38
:104100004FF000600449086010BD0000001002403C
:104110000000FFF8FFFFF6FE08ED00E02DE9FC418E
:1041200004460E460020D3494860032C71DA1B2E4A
:1041300070D2DFE806F00E1D2C3B4A58776F9D8841
:10414000B2CBDD6770FA6FF4F3F2F1F06FEFEEEDE2
:10415000EC00002141EA4411C8B2FFF792F8C549CA
:104160004860084621464268C3A001F0ADF97BE1F2
:10417000022141EA4411C8B2FFF783F8BD49486003
:10418000084621464268C4A001F09EF96CE108216E
:1041900041EA4411C8B2FFF791F8B64948600846B1
:1041A00021464268C4A001F08FF95DE10A2141EA8D
:1041B0004411C8B2FFF782F8AE494860084621466C
:1041C0004268C4A001F080F94EE104EB4400C94903
:1041D00051F82000A7494860084621464268C6A019
:1041E00001F072F940E104EB4400C24901EB8000A8
:1041F0004068A0494860084621464268C8A001F0CE
:1042000063F931E19B4821464268CEA001F05CF998
:104210002AE12AE124E1974821464268D0A001F032
:1042200053F921E1FFF772F8620001219140084043
:1042300008B1012000E0002005462A462146D0A012
:1042400001F042F910E103217C20FFF751F86200F0
:1042500002219140084008B1012000E0002085497A
:104260004860084621464268CDA001F02DF9FBE0E8
:1042700003217C20FFF73CF86200012191400840B7
:1042800008B1012000E000207A4948600846214634
:104290004268CEA001F018F9E6E003217C20FFF788
:1042A00027F8074600250AE020202841384008B1B9
:1042B000312000E030200DF80500681CC5B2062D45
:1042C000F2DB6946CCA001F0FFF8CDE0142141EA11
:1042D0004411C8B20221FFF70BF8C0F34000654952
:1042E0000871084602792146CFA001F0EDF8BBE045
:1042F000142141EA4411C8B20221FEF7F9FF00F08F
:1043000001005C49087108460279214609E087E00E
:1043100075E06DE095E05AE047E034E024E013E01A
:1043200003E0CCA001F0D0F89EE0042141EA441162
:10433000C8B2FEF7C3FF4F494860084621464268AD
:10434000CFA001F0C1F88FE0142141EA4411C8B2B6
:104350000321FEF7CDFF474908710846027921463F
:10436000CFA001F0B1F87FE01A2141EA4411C8B2B0
:10437000FEF7A4FF3F494860084621464268CFA0A7
:1043800001F0A2F870E0142141EA4411C8B2002102
:10439000FEF7AEFFC0F3800036494860084621466C
:1043A0004268D0A001F090F85EE0182141EA441183
:1043B000C8B20221FEF79CFF00F00F002D490871E2
:1043C000084621464268D0A001F07EF84CE0182152
:1043D00041EA4411C8B20221FEF78AFF00112549C3
:1043E0000871084621464268CFA001F06DF83BE015
:1043F000D548025D2146D5A001F066F834E00A21D7
:1044000041EA4411C8B2FEF759FF08B9012000E0A3
:10441000002005462A462146D2A001F055F823E0A7
:10442000FEF774FF620001219140084008B10120AD
:1044300000E0002005462A462146CFA001F044F8BE
:1044400012E0D349085D01F011FF08B9012000E036
:10445000002005462A462146CEA001F035F803E0AB
:1044600003200449087000BF02E0042001490870DD
:10447000BDE8FC810C0100206D6F746F725B2564D8
:104480005D206E65787420706F736974696F6E3D1E
:10449000256C640D0A0000006D6F746F725B2564FB
:1044A0005D2061637475616C20706F736974696FEE
:1044B0006E3D256C640D0A006D6F746F725B256430
:1044C0005D206E6578742073706565643D256C644D
:1044D0000D0A00006D6F746F725B25645D2061636F
:1044E0007475616C2073706565643D256C640D0A9C
:1044F00000000000E00000206D6F746F725B2564A7
:104500005D206D617820706F736974696F6E696E7C
:10451000672073706565643D256C640D0A000000BA
:104520006D6F746F725B25645D206D6178206163CF
:1045300063656C65726174696F6E3D256C640D0A0C
:10454000000000006D6F746F725B25645D206D610B
:10455000782063757272656E743D256C640D0A0077
:104560006D6F746F725B25645D207374616E64623D
:10457000792063757272656E743D256C640D0A0056
:104580006D6F746F725B25645D20706F7369746901
:104590006F6E20726561636865643D25640D0A0075
:1045A0006D6F746F725B25645D206C656674206C42
:1045B000696D6974207377697463682073746174BA
:1045C00075733D256C640D0A000000006D6F746FFB
:1045D000725B25645D207269676874206C696D691F
:1045E0007420737769746368207374617475733DA4
:1045F000256C640D0A0000006D6F746F72206C6989
:104600006D6974207377697463682073746174755D
:1046100073204C3252324C3152314C3052303D25A5
:104620002E36730D0A0000006D6F746F725B256487
:104630005D207269676874206C696D697420737796
:10464000697463682064697361626C653D25640DFB
:104650000A0000006D6F746F725B25645D206C65ED
:104660006674206C696D697420737769746368205F
:1046700064697361626C653D25640D0A0000000089
:104680006D6F746F725B25645D206D696E696D7509
:104690006D2073706565643D256C640D0A00000033
:1046A0006D6F746F725B25645D2072616D70206D3B
:1046B0006F64653D25640D0A000000006D6F746F26
:1046C000725B25645D207265662073776974636828
:1046D00020746F6C6572616E63653D256C640D0AB4
:1046E000000000006D6F746F725B25645D20736F56
:1046F00066742073746F70207374617475733D25D4
:104700006C640D0A000000006D6F746F725B2564AD
:104710005D2072616D702064697669736F723D25EA
:104720006C640D0A000000006D6F746F725B25648D
:104730005D2070756C73652064697669736F723D76
:10474000256C640D0A0000007C0200206D6F746F00
:10475000725B25645D20686F6D65643D25640D0A9C
:10476000000000006D6F746F725B25645D207374D0
:104770006F703D25640D0A006D6F746F725B256468
:104780005D2072656163683D25640D0A00000000CC
:10479000DC0000206D6F746F725B25645D20686FB4
:1047A0006D6553656E736F723D25640D0A000000E0
:1047B00070B504460D46032C1CDA01200E4908553D
:1047C00002212046FEF774FE062141EA4411C8B2D8
:1047D00040F2FF7100F021FE082141EA4411C8B205
:1047E000294600F01AFE2A46214604A000F06CFE7D
:1047F000002070BD0120FCE71C0100206D6F746F6C
:1048000072256420697320726F746174652061740D
:104810002025640D0A00000010B50446032C09DAB7
:104820002046FEF744F9002103480155C01C0155FC
:10483000002010BD0120FCE78C0200202DE9F04192
:1048400004460D4616460027032C42DA0DB1012D11
:104850003DD12248005DA8B104EB4402204B53F83F
:104860002210062242EA4412D0B200F0D6FD04EB38
:1048700044001B4A52F820102046FEF7F3FE0020A9
:10488000164908555DB9214616A000F01DFE00210D
:1048900041EA4411C8B2314600F0ACFD12E02146B5
:1048A0001CA000F011FE022141EA4411C8B2FEF73B
:1048B000E8FC00EB0608002141EA4411C8B2414679
:1048C00000F098FD00212046FEF7F2FD02E00327EC
:1048D00000E004273846BDE8F08100001C010020FC
:1048E000E00000206D6F746F725B25645D2069735A
:1048F00020737461727420746F206D616B65206128
:1049000062736F6C757465206D6F74696F6E0D0ADC
:10491000000000006D6F746F725B25645D20697329
:1049200020737461727420746F206D616B652072E6
:10493000656C6174697665206D6F74696F6E0D0AC0
:10494000000000007CB504460D461646032C6EDAC6
:10495000ED484660172D6BD2DFE805F00C1B2A39B5
:10496000486B6A6A6A6A6A82BB6A6AFC6AF1F0EF3B
:10497000EEEDEC00E44A5168002242EA4412D0B263
:1049800000F038FDE04821464268E0A000F09CFDC0
:10499000B5E1DD4A5168022242EA4412D0B200F089
:1049A00029FDD94821464268E2A000F08DFDA6E12C
:1049B000D54A5168082242EA4412D0B200F02DFDD7
:1049C000D14821464268E5A000F07EFD97E1CE4A3D
:1049D00051680A2242EA4412D0B200F01EFDCA48D1
:1049E00021464268E6A000F06FFD88E1C6484068B5
:1049F00004EB4401EB4A42F8210004EB4402E94B8A
:104A000053F82210062242EA4412D0B200F005FD0B
:104A100004EB4400E34A52F820102046FEF722FE41
:104A2000B94821464268E0A000F04EFD67E167E129
:104A300061E1B548406804EB4401DA4A02EB8101C8
:104A4000486004EB440002EB800041682046FEF71A
:104A500053FDAD4821464268DBA000F035FD4EE134
:104A6000152040EA4410C0B28DF80000694601A844
:104A7000FEF786FC9DF805008DF80100DE48007900
:104A800030B19DF8060040F002008DF8020005E00C
:104A90009DF8060020F002008DF802009DF8070046
:104AA0008DF80300142040EA4410C0B28DF80000D5
:104AB000694601A8FEF764FCCF48007920B1214681
:104AC000CEA000F001FD03E02146D7A000F0FCFCE1
:104AD00015E1152040EA4410C0B28DF80000694687
:104AE00001A8FEF74DFC9DF805008DF80100C248B5
:104AF000007930B19DF8060040F001008DF8020009
:104B000005E09DF8060020F001008DF802009DF8F8
:104B100007008DF80300142040EA4410C0B28DF85D
:104B20000000694601A8FEF72BFCB348007960B18C
:104B3000214606E0CBE094E05BE035E025E018E0BC
:104B400008E0C4A000F0C0FC03E02146CCA000F0C7
:104B5000BBFCD4E06C4A5168042242EA4412D0B251
:104B600000F05BFC684821464268CFA000F0ACFC36
:104B7000C5E0654801792046FEF79AFC6248027953
:104B80002146D3A000F0A0FCB9E05F4A51681A2288
:104B900042EA4412D0B200F040FC5B482146426831
:104BA000D3A000F091FCAAE0142141EA4411C8B25C
:104BB00001A9FEF74FFB5448406830B19DF805004D
:104BC00040F004008DF8050005E09DF8050020F098
:104BD00004008DF80500142141EA4411C8B201A96E
:104BE00000F0F5FB484821464268CCA000F06CFC80
:104BF00085E0192040EA4410C0B28DF800006946F3
:104C000001A8FEF7BDFB9DF805008DF801009DF899
:104C1000060000F0F0007849097901F00F0108431F
:104C20008DF802009DF807008DF80300182040EA77
:104C30004410C0B28DF80000694601A8FEF7A0FB41
:104C40006D48007900F00F0004EB4401554A02EB77
:104C5000810148722C4821464268BAA000F034FC19
:104C60004DE0192040EA4410C0B28DF800006946BA
:104C700001A8FEF785FB9DF805008DF801005E4850
:104C800001799DF8060061F31F10C0B28DF8020093
:104C90009DF807008DF80300182040EA4410C0B2C8
:104CA0008DF80000694601A8FEF76AFB52480079BA
:104CB00000F00F0004EB44013A4A02EB8101087254
:104CC000114821464268A8A000F0FEFB17E00E48FC
:104CD000406828B140F23311682000F08BFB04E0FB
:104CE0004FF49971682000F085FB07484168A8A03F
:104CF00000F0EAFB03E00320B249087000BF02E0C5
:104D00000420B04908707CBD140100207365742034
:104D10006D6F746F725B25645D206E6578742070B2
:104D20006F736974696F6E3D256C64206F6B0D0A3B
:104D300000000000736574206D6F746F725B2564F2
:104D40005D2061637475616C20706F736974696F45
:104D50006E3D256C64206F6B0D0A00007365742036
:104D60006D6F746F725B25645D206E65787420735F
:104D7000706565643D256C64206F6B0D0A00000052
:104D8000736574206D6F746F725B25645D20616361
:104D90007475616C2073706565643D256C64206F6B
:104DA0006B0D0A00E0000020736574206D6F746F56
:104DB000725B25645D2073706565643D256C6420BD
:104DC0006F6B0D0A00000000736574206D6F746FC7
:104DD000725B25645D206D617820616363656C653D
:104DE000726174696F6E2073706565643D256C64D3
:104DF000206F6B0D0A000000040100206D6F746FBE
:104E0000725B25645D207269676874206C696D69E6
:104E100074207377697463682069732064697361AF
:104E2000626C650D0A0000006D6F746F725B256423
:104E30005D207269676874206C696D69742073778E
:104E40006974636820697320656E61626C650D0A20
:104E5000000000006D6F746F725B25645D206C65EF
:104E60006674206C696D6974207377697463682057
:104E700069732064697361626C650D0A000000004B
:104E80006D6F746F725B25645D206C656674206C59
:104E9000696D69742073776974636820697320652C
:104EA0006E61626C650D0A00736574206D6F746FBE
:104EB000725B25645D206D696E696D756D20737020
:104EC0006565643D256C64206F6B0D0A0000000071
:104ED000736574206D6F746F725B25645D20726101
:104EE0006D70206D6F64653D2564206F6B0D0A0049
:104EF000736574206D6F746F725B25645D207265DD
:104F0000662073776974636820746F6C6572616E74
:104F100063653D256C64206F6B0D0A00736574201A
:104F20006D6F746F725B25645D20736F66742073A0
:104F3000746F70207374617475733D256C64206F99
:104F40006B0D0A00736574206D6F746F725B25645E
:104F50005D2072616D702064697669736F723D25A2
:104F60006C64206F6B0D0A00736574206D6F746F35
:104F7000725B25645D2070756C7365206469766969
:104F8000736F723D256C64206F6B0D0A000000008A
:104F9000736574206C696D6974207369676E616CE8
:104FA00020656666656374697665207472696767F3
:104FB0006572206C6576656C3D256C64206F6B0DA9
:104FC0000A0000000C01002010B5002240F225511B
:104FD000014800F058F910BD0048004010B501220A
:104FE00040F22551014800F04EF910BD0048004044
:104FF00010B508212D4800F039F9012806D1082103
:105000002A4800F0C1F8294800F0CEF901212748CC
:1050100000F02CF9012806D10121244800F0B4F851
:10502000224800F0C1F90221204800F01FF90128B0
:1050300006D102211D4800F0A7F81C4800F0B4F981
:105040001A48008800F0200070B3184800F0ACF94E
:10505000C4B21748008800F40040D8B90D2C01D024
:105060000A2C06D11248008840F4004010490880FC
:1050700010E00F480088C0F30D000E490C540C4896
:105080000088401C0A49088008460088C72801DDBE
:10509000002008802021054800F076F840F22551D4
:1050A000024800F07AF800BF10BD0000003801404F
:1050B000900000204401002010B508212E4800F087
:1050C000D5F8012806D108212B4800F05DF82A48C0
:1050D00000F06AF90121284800F0C8F8012806D13B
:1050E0000121254800F050F8234800F05DF9022125
:1050F000214800F0BBF8012806D102211F4800F02A
:1051000043F81D4800F050F91B48008800F02000CB
:1051100088B3194800F048F9C4B21948008800F46F
:105120000040F0B90D2C01D00A2C09D11448008898
:10513000B8B11348008840F400401149088010E0DD
:105140000F480088C0F30D000E490C540C4800882D
:10515000401C0B49088008460088312801DD0020EA
:1051600008802021044800F00FF840F22551024841
:1051700000F013F800BF10BD0048004000380140A7
:10518000920000200C02002001F40072B2F5007FB2
:1051900000D100BFCA430280704710B5002200232F
:1051A00040F66A14A14200D100BF0A1201249440C3
:1051B000A3B2DC43048010BD21B1828942F40052C5
:1051C000828104E082894DF6FF731A408281704724
:1051D00010B504462048844209D101218803FDF717
:1051E000BFFF00214FF48040FDF7BAFF32E01B48BB
:1051F000844209D101214804FDF792FF00214FF4B8
:105200000030FDF78DFF25E01548844209D10121CA
:105210008804FDF785FF00214FF48020FDF780FF13
:1052200018E01048844209D10121C804FDF778FF35
:1052300000214FF40020FDF773FF0BE00A48844281
:1052400008D101210805FDF76BFF00214FF4801004
:10525000FDF766FF10BD000000380140004400402B
:1052600000480040004C0040005000400246002032
:10527000B1F5007F00D100BF13880B400BB10120B6
:1052800000E000207047F0B503460024002600250A
:10529000002040F66A17B94200D100BF1846C1F39A
:1052A000421401F01F06012707FA06F5012C01D16F
:1052B0000C3004E0022C01D1103000E014301AB19F
:1052C00007682F43076002E00768AF430760F0BD3F
:1052D0002DE9F04786B005460E460024A24600BFE1
:1052E000A1460027B08900B100BF2F462C8A4CF69A
:1052F000FF700440F08804432C82AC894EF6F31012
:105300000440B08831890843718908430443AC8163
:10531000AC8A4FF6FF400440B0890443AC8201A838
:10532000FDF72EFF1F48874202D1DDF810A001E0F3
:10533000DDF80CA0A88900F4004040B10AEBCA00D7
:1053400000EB0A1031684900B0FBF1F807E00AEB06
:10535000CA0000EB0A1031688900B0FBF1F8642044
:10536000B8FBF0F004012009642101FB1089A88931
:1053700000F4004040B1322000EBC900B0FBF1F076
:1053800000F00700044308E0322000EB091064211C
:10539000B0FBF1F000F00F0004432C8106B0BDE833
:1053A000F08700000038014001468888C0F30800FB
:1053B00070474FF41651016000218180C180018146
:1053C0000C21418100218181704700BFFEE77CB53F
:1053D00005460C468DF8045020788DF8050060785D
:1053E0008DF80600A0788DF8070001A96846FDF742
:1053F000C7FF7CBD7CB505460C468DF80450200CDB
:105400008DF80500200A8DF80600E0B28DF807003F
:1054100001A96846FDF7B4FF7CBD7CB505460C4686
:105420008DF8045000208DF80500200A8DF8060044
:10543000E0B28DF8070001A96846FDF7A1FF7CBD29
:105440001CB504468DF8044000208DF805008DF849
:1054500006008DF8070001A96846FDF791FF1CBD05
:10546000F0B587B005460E4600273046FAF77CFEB9
:10547000C4B2412C1FDA002D1DDDC92D1BDA402CD2
:1054800003D000203055601CC4B205F13700800104
:105490000B4BCDE905640490D3E90412D3E906036C
:1054A000CDE90203CDE900120648D0F80CC004484B
:1054B0000FC8E04700E00427384607B0F0BD000001
:1054C000BC000020280000200FB4054B10B503A934
:1054D000044A029800F0DEF810BC5DF814FB0000EE
:1054E000A16000083C0100200048704740010020F6
:1054F00002E008C8121F08C1002AFAD1704770479D
:10550000002001E001C1121F002AFBD170470000FA
:105510002DE9FF5F82B00021DDE90430020DDDF8E6
:1055200040B0034318D044F61050A2F2FF32424379
:105530001514119801281FD0A5EB0B00401C5FEA41
:10554000000A4FF000064E4FDFF83891B046504643
:1055500015D5CAF1000413E0119801244AA30128CB
:1055600001D16FEA0B010298119AC0E90031C0E93C
:10557000024206B0BDE8F09FCBF10000DFE7044631
:105580000021404A491842EB0450CDE9001012E0D6
:10559000E00707D032463B4640464946FAF740FE10
:1055A0008046894632463B4610461946FAF738FE91
:1055B00006460F466410002CEAD1DDE90401DDE95E
:1055C0000023BAF1000F06DAFAF72AFE42464B46EC
:1055D000FAF726FE05E0FAF795FE42464B46FAF743
:1055E00091FE04460E460022284BFBF763F903D8D0
:1055F0004FF0FF30014607E00022254B20463146A0
:10560000FBF799F8FBF73EF9102409E0002C0ADBC0
:105610000A220023FAF767FF039B30321A55641EF3
:1056200050EA0102F2D1641C039AC4F1110314443C
:10563000119A012A03D0012208430DD10AE0084340
:1056400004D000204FF0110B119072E7A3EB0B0573
:105650006D1E0DE05B4504DD4FF0000205F1010514
:1056600004E003DA4FF00002A5F10105002AECD0B6
:1056700002981199C0E90231C0E9004579E70000BC
:10568000000014400000F03F300000000000F04334
:105690000000E03F2DE9FF4F95B09B468946064646
:1056A00000250FE2252877D100242746F84A01215A
:1056B000059400E0044316F8013F203B01FA03F093
:1056C0001042F7D130782A2811D06FF02F033078AC
:1056D000A0F13002092A16D8059A44F0020402EB20
:1056E000820203EB42021044761C0590EFE759F862
:1056F000042B0592002A03DA504244F4005405902A
:1057000044F00204761C30782E2816D116F8010FCA
:1057100044F004042A280DD06FF02F023078A0F155
:105720003003092B09D807EB870302EB4303C718A3
:10573000761CF3E759F8047B761C30786C280FD080
:1057400006DC4C2817D068280DD06A2814D104E054
:10575000742810D07A280FD10DE044F400140AE028
:1057600044F4801401E044F440147278824202D17F
:1057700004F58014761C761C307866280BD013DC78
:10578000582877D009DC002875D04528F6D046285F
:10579000F4D047281AD19DE118E0632835D0642859
:1057A00079D0652812D195E1702873D008DC67287C
:1057B000F1D069286FD06E280DD06F2806D1B5E0E2
:1057C00073282CD0752875D0782874D05A4617992C
:1057D00090476D1C75E1C4F30250022809D00328DC
:1057E0000DD0D9F8001004280DD00D6009F104097E
:1057F00067E1D9F80010EA17C1E90052F6E7D9F8D5
:1058000000100D80F2E70D70F0E719F8041B8DF819
:10581000001000208DF80100EA46012003E059F84D
:1058200004AB4FF0FF3061074FF0000102D40DE0F0
:1058300008F101018846B9420FDA8045F8DB1AF811
:1058400008100029F4D108E008F1010188468142DE
:10585000FADB1AF808100029F6D105985B46A0EB90
:10586000080721463846179A00F094FA284400EBBE
:10587000080507E04DE029E10DE01AF8010B5A4652
:1058800017999047B8F10108F7D25B462146384690
:10589000179A13E142E00A220092C4F302524FF039
:1058A000000A022A08D059F804CB032A4FEAEC7107
:1058B0000AD00DE029E02AE009F1070121F00702F2
:1058C000F2E802C1914609E00FFA8CFC4FEAEC7154
:1058D000042A03D14FFA8CFC4FEAEC71002907DA55
:1058E0000A460021DCF1000C61EB02012D2202E0EE
:1058F000220504D52B228DF80420012203E0E207C3
:1059000001D02022F7E7904659E00A2102E0102258
:105910000DE010214FF0000A00910BE010224FF033
:10592000000A44F004040827009203E008224FF024
:10593000000A0092C4F30252022A05D059F804CB9F
:105940000021032A08D009E009F1070121F007022C
:10595000F2E802C1914605E01FFA8CFC042A01D14D
:105960000CF0FF0C4FF00008220728D5702806D055
:10597000009B83F0100353EA0A0305D00EE0402297
:105980008DF80420012208E05CEA010206D03022F2
:105990008DF804208DF8050002229046009B83F0CC
:1059A000080353EA0A030AD15CEA010201D1620743
:1059B00005D530228DF804204FF001087F1E5828AD
:1059C00004D034A003900EA802900DE036A0F9E7B1
:1059D00053466046009AFAF786FD84460398825C37
:1059E0000298401E029002705CEA0100F0D1029819
:1059F00006A9081A00F1200A600702D524F48034B1
:105A000000E00127574502DDA7EB0A0000E0002077
:105A100000EB0A01009005984144401A0590E0030C
:105A200006D45B462146179A059800F0B3F9054461
:105A3000002706E001A85A46C05D179990476D1CE3
:105A40007F1C4745F6DBE0030CD55B462146179AE1
:105A5000059800F09FF9054404E030205A46179954
:105A600090476D1C0099481E00900029F5DC08E065
:105A7000029802995A460078491C0291179990475A
:105A80006D1CBAF10001AAF1010AF1DC65E1000028
:105A90000928010030313233343536373839616204
:105AA00063646566000000003031323334353637C8
:105AB00038394142434445460000000000F058F99F
:105AC0000544761C307800287FF4ECAD19B02846E8
:105AD000BDE8F08F620700D4062709F1070222F023
